{
  "abi": [
    {
      "constant": false,
      "inputs": [
        {
          "name": "marketId",
          "type": "uint256"
        },
        {
          "components": [
            {
              "name": "value",
              "type": "uint256"
            }
          ],
          "name": "spreadPremium",
          "type": "tuple"
        }
      ],
      "name": "ownerSetSpreadPremium",
      "outputs": [],
      "payable": false,
      "stateMutability": "nonpayable",
      "type": "function"
    },
    {
      "constant": true,
      "inputs": [
        {
          "name": "operator",
          "type": "address"
        }
      ],
      "name": "getIsGlobalOperator",
      "outputs": [
        {
          "name": "",
          "type": "bool"
        }
      ],
      "payable": false,
      "stateMutability": "view",
      "type": "function"
    },
    {
      "constant": true,
      "inputs": [
        {
          "name": "marketId",
          "type": "uint256"
        }
      ],
      "name": "getMarketTokenAddress",
      "outputs": [
        {
          "name": "",
          "type": "address"
        }
      ],
      "payable": false,
      "stateMutability": "view",
      "type": "function"
    },
    {
      "constant": false,
      "inputs": [
        {
          "name": "marketId",
          "type": "uint256"
        },
        {
          "name": "interestSetter",
          "type": "address"
        }
      ],
      "name": "ownerSetInterestSetter",
      "outputs": [],
      "payable": false,
      "stateMutability": "nonpayable",
      "type": "function"
    },
    {
      "constant": true,
      "inputs": [
        {
          "components": [
            {
              "name": "owner",
              "type": "address"
            },
            {
              "name": "number",
              "type": "uint256"
            }
          ],
          "name": "account",
          "type": "tuple"
        }
      ],
      "name": "getAccountValues",
      "outputs": [
        {
          "components": [
            {
              "name": "value",
              "type": "uint256"
            }
          ],
          "name": "",
          "type": "tuple"
        },
        {
          "components": [
            {
              "name": "value",
              "type": "uint256"
            }
          ],
          "name": "",
          "type": "tuple"
        }
      ],
      "payable": false,
      "stateMutability": "view",
      "type": "function"
    },
    {
      "constant": true,
      "inputs": [
        {
          "name": "marketId",
          "type": "uint256"
        }
      ],
      "name": "getMarketPriceOracle",
      "outputs": [
        {
          "name": "",
          "type": "address"
        }
      ],
      "payable": false,
      "stateMutability": "view",
      "type": "function"
    },
    {
      "constant": true,
      "inputs": [
        {
          "name": "marketId",
          "type": "uint256"
        }
      ],
      "name": "getMarketInterestSetter",
      "outputs": [
        {
          "name": "",
          "type": "address"
        }
      ],
      "payable": false,
      "stateMutability": "view",
      "type": "function"
    },
    {
      "constant": true,
      "inputs": [
        {
          "name": "marketId",
          "type": "uint256"
        }
      ],
      "name": "getMarketSpreadPremium",
      "outputs": [
        {
          "components": [
            {
              "name": "value",
              "type": "uint256"
            }
          ],
          "name": "",
          "type": "tuple"
        }
      ],
      "payable": false,
      "stateMutability": "view",
      "type": "function"
    },
    {
      "constant": true,
      "inputs": [],
      "name": "getNumMarkets",
      "outputs": [
        {
          "name": "",
          "type": "uint256"
        }
      ],
      "payable": false,
      "stateMutability": "view",
      "type": "function"
    },
    {
      "constant": false,
      "inputs": [
        {
          "name": "token",
          "type": "address"
        },
        {
          "name": "recipient",
          "type": "address"
        }
      ],
      "name": "ownerWithdrawUnsupportedTokens",
      "outputs": [
        {
          "name": "",
          "type": "uint256"
        }
      ],
      "payable": false,
      "stateMutability": "nonpayable",
      "type": "function"
    },
    {
      "constant": false,
      "inputs": [
        {
          "components": [
            {
              "name": "value",
              "type": "uint256"
            }
          ],
          "name": "minBorrowedValue",
          "type": "tuple"
        }
      ],
      "name": "ownerSetMinBorrowedValue",
      "outputs": [],
      "payable": false,
      "stateMutability": "nonpayable",
      "type": "function"
    },
    {
      "constant": false,
      "inputs": [
        {
          "components": [
            {
              "name": "value",
              "type": "uint256"
            }
          ],
          "name": "spread",
          "type": "tuple"
        }
      ],
      "name": "ownerSetLiquidationSpread",
      "outputs": [],
      "payable": false,
      "stateMutability": "nonpayable",
      "type": "function"
    },
    {
      "constant": false,
      "inputs": [
        {
          "components": [
            {
              "name": "value",
              "type": "uint256"
            }
          ],
          "name": "earningsRate",
          "type": "tuple"
        }
      ],
      "name": "ownerSetEarningsRate",
      "outputs": [],
      "payable": false,
      "stateMutability": "nonpayable",
      "type": "function"
    },
    {
      "constant": true,
      "inputs": [
        {
          "name": "owner",
          "type": "address"
        },
        {
          "name": "operator",
          "type": "address"
        }
      ],
      "name": "getIsLocalOperator",
      "outputs": [
        {
          "name": "",
          "type": "bool"
        }
      ],
      "payable": false,
      "stateMutability": "view",
      "type": "function"
    },
    {
      "constant": true,
      "inputs": [
        {
          "components": [
            {
              "name": "owner",
              "type": "address"
            },
            {
              "name": "number",
              "type": "uint256"
            }
          ],
          "name": "account",
          "type": "tuple"
        },
        {
          "name": "marketId",
          "type": "uint256"
        }
      ],
      "name": "getAccountPar",
      "outputs": [
        {
          "components": [
            {
              "name": "sign",
              "type": "bool"
            },
            {
              "name": "value",
              "type": "uint128"
            }
          ],
          "name": "",
          "type": "tuple"
        }
      ],
      "payable": false,
      "stateMutability": "view",
      "type": "function"
    },
    {
      "constant": false,
      "inputs": [
        {
          "name": "marketId",
          "type": "uint256"
        },
        {
          "components": [
            {
              "name": "value",
              "type": "uint256"
            }
          ],
          "name": "marginPremium",
          "type": "tuple"
        }
      ],
      "name": "ownerSetMarginPremium",
      "outputs": [],
      "payable": false,
      "stateMutability": "nonpayable",
      "type": "function"
    },
    {
      "constant": true,
      "inputs": [],
      "name": "getMarginRatio",
      "outputs": [
        {
          "components": [
            {
              "name": "value",
              "type": "uint256"
            }
          ],
          "name": "",
          "type": "tuple"
        }
      ],
      "payable": false,
      "stateMutability": "view",
      "type": "function"
    },
    {
      "constant": true,
      "inputs": [
        {
          "name": "marketId",
          "type": "uint256"
        }
      ],
      "name": "getMarketCurrentIndex",
      "outputs": [
        {
          "components": [
            {
              "name": "borrow",
              "type": "uint96"
            },
            {
              "name": "supply",
              "type": "uint96"
            },
            {
              "name": "lastUpdate",
              "type": "uint32"
            }
          ],
          "name": "",
          "type": "tuple"
        }
      ],
      "payable": false,
      "stateMutability": "view",
      "type": "function"
    },
    {
      "constant": true,
      "inputs": [
        {
          "name": "marketId",
          "type": "uint256"
        }
      ],
      "name": "getMarketIsClosing",
      "outputs": [
        {
          "name": "",
          "type": "bool"
        }
      ],
      "payable": false,
      "stateMutability": "view",
      "type": "function"
    },
    {
      "constant": true,
      "inputs": [],
      "name": "getRiskParams",
      "outputs": [
        {
          "components": [
            {
              "components": [
                {
                  "name": "value",
                  "type": "uint256"
                }
              ],
              "name": "marginRatio",
              "type": "tuple"
            },
            {
              "components": [
                {
                  "name": "value",
                  "type": "uint256"
                }
              ],
              "name": "liquidationSpread",
              "type": "tuple"
            },
            {
              "components": [
                {
                  "name": "value",
                  "type": "uint256"
                }
              ],
              "name": "earningsRate",
              "type": "tuple"
            },
            {
              "components": [
                {
                  "name": "value",
                  "type": "uint256"
                }
              ],
              "name": "minBorrowedValue",
              "type": "tuple"
            }
          ],
          "name": "",
          "type": "tuple"
        }
      ],
      "payable": false,
      "stateMutability": "view",
      "type": "function"
    },
    {
      "constant": true,
      "inputs": [
        {
          "components": [
            {
              "name": "owner",
              "type": "address"
            },
            {
              "name": "number",
              "type": "uint256"
            }
          ],
          "name": "account",
          "type": "tuple"
        }
      ],
      "name": "getAccountBalances",
      "outputs": [
        {
          "name": "",
          "type": "address[]"
        },
        {
          "components": [
            {
              "name": "sign",
              "type": "bool"
            },
            {
              "name": "value",
              "type": "uint128"
            }
          ],
          "name": "",
          "type": "tuple[]"
        },
        {
          "components": [
            {
              "name": "sign",
              "type": "bool"
            },
            {
              "name": "value",
              "type": "uint256"
            }
          ],
          "name": "",
          "type": "tuple[]"
        }
      ],
      "payable": false,
      "stateMutability": "view",
      "type": "function"
    },
    {
      "constant": false,
      "inputs": [],
      "name": "renounceOwnership",
      "outputs": [],
      "payable": false,
      "stateMutability": "nonpayable",
      "type": "function"
    },
    {
      "constant": true,
      "inputs": [],
      "name": "getMinBorrowedValue",
      "outputs": [
        {
          "components": [
            {
              "name": "value",
              "type": "uint256"
            }
          ],
          "name": "",
          "type": "tuple"
        }
      ],
      "payable": false,
      "stateMutability": "view",
      "type": "function"
    },
    {
      "constant": false,
      "inputs": [
        {
          "components": [
            {
              "name": "operator",
              "type": "address"
            },
            {
              "name": "trusted",
              "type": "bool"
            }
          ],
          "name": "args",
          "type": "tuple[]"
        }
      ],
      "name": "setOperators",
      "outputs": [],
      "payable": false,
      "stateMutability": "nonpayable",
      "type": "function"
    },
    {
      "constant": true,
      "inputs": [
        {
          "name": "marketId",
          "type": "uint256"
        }
      ],
      "name": "getMarketPrice",
      "outputs": [
        {
          "components": [
            {
              "name": "value",
              "type": "uint256"
            }
          ],
          "name": "",
          "type": "tuple"
        }
      ],
      "payable": false,
      "stateMutability": "view",
      "type": "function"
    },
    {
      "constant": true,
      "inputs": [],
      "name": "owner",
      "outputs": [
        {
          "name": "",
          "type": "address"
        }
      ],
      "payable": false,
      "stateMutability": "view",
      "type": "function"
    },
    {
      "constant": true,
      "inputs": [],
      "name": "isOwner",
      "outputs": [
        {
          "name": "",
          "type": "bool"
        }
      ],
      "payable": false,
      "stateMutability": "view",
      "type": "function"
    },
    {
      "constant": false,
      "inputs": [
        {
          "name": "marketId",
          "type": "uint256"
        },
        {
          "name": "recipient",
          "type": "address"
        }
      ],
      "name": "ownerWithdrawExcessTokens",
      "outputs": [
        {
          "name": "",
          "type": "uint256"
        }
      ],
      "payable": false,
      "stateMutability": "nonpayable",
      "type": "function"
    },
    {
      "constant": false,
      "inputs": [
        {
          "name": "token",
          "type": "address"
        },
        {
          "name": "priceOracle",
          "type": "address"
        },
        {
          "name": "interestSetter",
          "type": "address"
        },
        {
          "components": [
            {
              "name": "value",
              "type": "uint256"
            }
          ],
          "name": "marginPremium",
          "type": "tuple"
        },
        {
          "components": [
            {
              "name": "value",
              "type": "uint256"
            }
          ],
          "name": "spreadPremium",
          "type": "tuple"
        }
      ],
      "name": "ownerAddMarket",
      "outputs": [],
      "payable": false,
      "stateMutability": "nonpayable",
      "type": "function"
    },
    {
      "constant": false,
      "inputs": [
        {
          "components": [
            {
              "name": "owner",
              "type": "address"
            },
            {
              "name": "number",
              "type": "uint256"
            }
          ],
          "name": "accounts",
          "type": "tuple[]"
        },
        {
          "components": [
            {
              "name": "actionType",
              "type": "uint8"
            },
            {
              "name": "accountId",
              "type": "uint256"
            },
            {
              "components": [
                {
                  "name": "sign",
                  "type": "bool"
                },
                {
                  "name": "denomination",
                  "type": "uint8"
                },
                {
                  "name": "ref",
                  "type": "uint8"
                },
                {
                  "name": "value",
                  "type": "uint256"
                }
              ],
              "name": "amount",
              "type": "tuple"
            },
            {
              "name": "primaryMarketId",
              "type": "uint256"
            },
            {
              "name": "secondaryMarketId",
              "type": "uint256"
            },
            {
              "name": "otherAddress",
              "type": "address"
            },
            {
              "name": "otherAccountId",
              "type": "uint256"
            },
            {
              "name": "data",
              "type": "bytes"
            }
          ],
          "name": "actions",
          "type": "tuple[]"
        }
      ],
      "name": "operate",
      "outputs": [],
      "payable": false,
      "stateMutability": "nonpayable",
      "type": "function"
    },
    {
      "constant": true,
      "inputs": [
        {
          "name": "marketId",
          "type": "uint256"
        }
      ],
      "name": "getMarketWithInfo",
      "outputs": [
        {
          "components": [
            {
              "name": "token",
              "type": "address"
            },
            {
              "components": [
                {
                  "name": "borrow",
                  "type": "uint128"
                },
                {
                  "name": "supply",
                  "type": "uint128"
                }
              ],
              "name": "totalPar",
              "type": "tuple"
            },
            {
              "components": [
                {
                  "name": "borrow",
                  "type": "uint96"
                },
                {
                  "name": "supply",
                  "type": "uint96"
                },
                {
                  "name": "lastUpdate",
                  "type": "uint32"
                }
              ],
              "name": "index",
              "type": "tuple"
            },
            {
              "name": "priceOracle",
              "type": "address"
            },
            {
              "name": "interestSetter",
              "type": "address"
            },
            {
              "components": [
                {
                  "name": "value",
                  "type": "uint256"
                }
              ],
              "name": "marginPremium",
              "type": "tuple"
            },
            {
              "components": [
                {
                  "name": "value",
                  "type": "uint256"
                }
              ],
              "name": "spreadPremium",
              "type": "tuple"
            },
            {
              "name": "isClosing",
              "type": "bool"
            }
          ],
          "name": "",
          "type": "tuple"
        },
        {
          "components": [
            {
              "name": "borrow",
              "type": "uint96"
            },
            {
              "name": "supply",
              "type": "uint96"
            },
            {
              "name": "lastUpdate",
              "type": "uint32"
            }
          ],
          "name": "",
          "type": "tuple"
        },
        {
          "components": [
            {
              "name": "value",
              "type": "uint256"
            }
          ],
          "name": "",
          "type": "tuple"
        },
        {
          "components": [
            {
              "name": "value",
              "type": "uint256"
            }
          ],
          "name": "",
          "type": "tuple"
        }
      ],
      "payable": false,
      "stateMutability": "view",
      "type": "function"
    },
    {
      "constant": false,
      "inputs": [
        {
          "components": [
            {
              "name": "value",
              "type": "uint256"
            }
          ],
          "name": "ratio",
          "type": "tuple"
        }
      ],
      "name": "ownerSetMarginRatio",
      "outputs": [],
      "payable": false,
      "stateMutability": "nonpayable",
      "type": "function"
    },
    {
      "constant": true,
      "inputs": [],
      "name": "getLiquidationSpread",
      "outputs": [
        {
          "components": [
            {
              "name": "value",
              "type": "uint256"
            }
          ],
          "name": "",
          "type": "tuple"
        }
      ],
      "payable": false,
      "stateMutability": "view",
      "type": "function"
    },
    {
      "constant": true,
      "inputs": [
        {
          "components": [
            {
              "name": "owner",
              "type": "address"
            },
            {
              "name": "number",
              "type": "uint256"
            }
          ],
          "name": "account",
          "type": "tuple"
        },
        {
          "name": "marketId",
          "type": "uint256"
        }
      ],
      "name": "getAccountWei",
      "outputs": [
        {
          "components": [
            {
              "name": "sign",
              "type": "bool"
            },
            {
              "name": "value",
              "type": "uint256"
            }
          ],
          "name": "",
          "type": "tuple"
        }
      ],
      "payable": false,
      "stateMutability": "view",
      "type": "function"
    },
    {
      "constant": true,
      "inputs": [
        {
          "name": "marketId",
          "type": "uint256"
        }
      ],
      "name": "getMarketTotalPar",
      "outputs": [
        {
          "components": [
            {
              "name": "borrow",
              "type": "uint128"
            },
            {
              "name": "supply",
              "type": "uint128"
            }
          ],
          "name": "",
          "type": "tuple"
        }
      ],
      "payable": false,
      "stateMutability": "view",
      "type": "function"
    },
    {
      "constant": true,
      "inputs": [
        {
          "name": "heldMarketId",
          "type": "uint256"
        },
        {
          "name": "owedMarketId",
          "type": "uint256"
        }
      ],
      "name": "getLiquidationSpreadForPair",
      "outputs": [
        {
          "components": [
            {
              "name": "value",
              "type": "uint256"
            }
          ],
          "name": "",
          "type": "tuple"
        }
      ],
      "payable": false,
      "stateMutability": "view",
      "type": "function"
    },
    {
      "constant": true,
      "inputs": [
        {
          "name": "marketId",
          "type": "uint256"
        }
      ],
      "name": "getNumExcessTokens",
      "outputs": [
        {
          "components": [
            {
              "name": "sign",
              "type": "bool"
            },
            {
              "name": "value",
              "type": "uint256"
            }
          ],
          "name": "",
          "type": "tuple"
        }
      ],
      "payable": false,
      "stateMutability": "view",
      "type": "function"
    },
    {
      "constant": true,
      "inputs": [
        {
          "name": "marketId",
          "type": "uint256"
        }
      ],
      "name": "getMarketCachedIndex",
      "outputs": [
        {
          "components": [
            {
              "name": "borrow",
              "type": "uint96"
            },
            {
              "name": "supply",
              "type": "uint96"
            },
            {
              "name": "lastUpdate",
              "type": "uint32"
            }
          ],
          "name": "",
          "type": "tuple"
        }
      ],
      "payable": false,
      "stateMutability": "view",
      "type": "function"
    },
    {
      "constant": true,
      "inputs": [
        {
          "components": [
            {
              "name": "owner",
              "type": "address"
            },
            {
              "name": "number",
              "type": "uint256"
            }
          ],
          "name": "account",
          "type": "tuple"
        }
      ],
      "name": "getAccountStatus",
      "outputs": [
        {
          "name": "",
          "type": "uint8"
        }
      ],
      "payable": false,
      "stateMutability": "view",
      "type": "function"
    },
    {
      "constant": true,
      "inputs": [],
      "name": "getEarningsRate",
      "outputs": [
        {
          "components": [
            {
              "name": "value",
              "type": "uint256"
            }
          ],
          "name": "",
          "type": "tuple"
        }
      ],
      "payable": false,
      "stateMutability": "view",
      "type": "function"
    },
    {
      "constant": false,
      "inputs": [
        {
          "name": "marketId",
          "type": "uint256"
        },
        {
          "name": "priceOracle",
          "type": "address"
        }
      ],
      "name": "ownerSetPriceOracle",
      "outputs": [],
      "payable": false,
      "stateMutability": "nonpayable",
      "type": "function"
    },
    {
      "constant": true,
      "inputs": [],
      "name": "getRiskLimits",
      "outputs": [
        {
          "components": [
            {
              "name": "marginRatioMax",
              "type": "uint64"
            },
            {
              "name": "liquidationSpreadMax",
              "type": "uint64"
            },
            {
              "name": "earningsRateMax",
              "type": "uint64"
            },
            {
              "name": "marginPremiumMax",
              "type": "uint64"
            },
            {
              "name": "spreadPremiumMax",
              "type": "uint64"
            },
            {
              "name": "minBorrowedValueMax",
              "type": "uint128"
            }
          ],
          "name": "",
          "type": "tuple"
        }
      ],
      "payable": false,
      "stateMutability": "view",
      "type": "function"
    },
    {
      "constant": true,
      "inputs": [
        {
          "name": "marketId",
          "type": "uint256"
        }
      ],
      "name": "getMarket",
      "outputs": [
        {
          "components": [
            {
              "name": "token",
              "type": "address"
            },
            {
              "components": [
                {
                  "name": "borrow",
                  "type": "uint128"
                },
                {
                  "name": "supply",
                  "type": "uint128"
                }
              ],
              "name": "totalPar",
              "type": "tuple"
            },
            {
              "components": [
                {
                  "name": "borrow",
                  "type": "uint96"
                },
                {
                  "name": "supply",
                  "type": "uint96"
                },
                {
                  "name": "lastUpdate",
                  "type": "uint32"
                }
              ],
              "name": "index",
              "type": "tuple"
            },
            {
              "name": "priceOracle",
              "type": "address"
            },
            {
              "name": "interestSetter",
              "type": "address"
            },
            {
              "components": [
                {
                  "name": "value",
                  "type": "uint256"
                }
              ],
              "name": "marginPremium",
              "type": "tuple"
            },
            {
              "components": [
                {
                  "name": "value",
                  "type": "uint256"
                }
              ],
              "name": "spreadPremium",
              "type": "tuple"
            },
            {
              "name": "isClosing",
              "type": "bool"
            }
          ],
          "name": "",
          "type": "tuple"
        }
      ],
      "payable": false,
      "stateMutability": "view",
      "type": "function"
    },
    {
      "constant": false,
      "inputs": [
        {
          "name": "marketId",
          "type": "uint256"
        },
        {
          "name": "isClosing",
          "type": "bool"
        }
      ],
      "name": "ownerSetIsClosing",
      "outputs": [],
      "payable": false,
      "stateMutability": "nonpayable",
      "type": "function"
    },
    {
      "constant": false,
      "inputs": [
        {
          "name": "operator",
          "type": "address"
        },
        {
          "name": "approved",
          "type": "bool"
        }
      ],
      "name": "ownerSetGlobalOperator",
      "outputs": [],
      "payable": false,
      "stateMutability": "nonpayable",
      "type": "function"
    },
    {
      "constant": false,
      "inputs": [
        {
          "name": "newOwner",
          "type": "address"
        }
      ],
      "name": "transferOwnership",
      "outputs": [],
      "payable": false,
      "stateMutability": "nonpayable",
      "type": "function"
    },
    {
      "constant": true,
      "inputs": [
        {
          "components": [
            {
              "name": "owner",
              "type": "address"
            },
            {
              "name": "number",
              "type": "uint256"
            }
          ],
          "name": "account",
          "type": "tuple"
        }
      ],
      "name": "getAdjustedAccountValues",
      "outputs": [
        {
          "components": [
            {
              "name": "value",
              "type": "uint256"
            }
          ],
          "name": "",
          "type": "tuple"
        },
        {
          "components": [
            {
              "name": "value",
              "type": "uint256"
            }
          ],
          "name": "",
          "type": "tuple"
        }
      ],
      "payable": false,
      "stateMutability": "view",
      "type": "function"
    },
    {
      "constant": true,
      "inputs": [
        {
          "name": "marketId",
          "type": "uint256"
        }
      ],
      "name": "getMarketMarginPremium",
      "outputs": [
        {
          "components": [
            {
              "name": "value",
              "type": "uint256"
            }
          ],
          "name": "",
          "type": "tuple"
        }
      ],
      "payable": false,
      "stateMutability": "view",
      "type": "function"
    },
    {
      "constant": true,
      "inputs": [
        {
          "name": "marketId",
          "type": "uint256"
        }
      ],
      "name": "getMarketInterestRate",
      "outputs": [
        {
          "components": [
            {
              "name": "value",
              "type": "uint256"
            }
          ],
          "name": "",
          "type": "tuple"
        }
      ],
      "payable": false,
      "stateMutability": "view",
      "type": "function"
    },
    {
      "inputs": [
        {
          "components": [
            {
              "components": [
                {
                  "name": "value",
                  "type": "uint256"
                }
              ],
              "name": "marginRatio",
              "type": "tuple"
            },
            {
              "components": [
                {
                  "name": "value",
                  "type": "uint256"
                }
              ],
              "name": "liquidationSpread",
              "type": "tuple"
            },
            {
              "components": [
                {
                  "name": "value",
                  "type": "uint256"
                }
              ],
              "name": "earningsRate",
              "type": "tuple"
            },
            {
              "components": [
                {
                  "name": "value",
                  "type": "uint256"
                }
              ],
              "name": "minBorrowedValue",
              "type": "tuple"
            }
          ],
          "name": "riskParams",
          "type": "tuple"
        },
        {
          "components": [
            {
              "name": "marginRatioMax",
              "type": "uint64"
            },
            {
              "name": "liquidationSpreadMax",
              "type": "uint64"
            },
            {
              "name": "earningsRateMax",
              "type": "uint64"
            },
            {
              "name": "marginPremiumMax",
              "type": "uint64"
            },
            {
              "name": "spreadPremiumMax",
              "type": "uint64"
            },
            {
              "name": "minBorrowedValueMax",
              "type": "uint128"
            }
          ],
          "name": "riskLimits",
          "type": "tuple"
        }
      ],
      "payable": false,
      "stateMutability": "nonpayable",
      "type": "constructor"
    },
    {
      "anonymous": false,
      "inputs": [
        {
          "indexed": true,
          "name": "owner",
          "type": "address"
        },
        {
          "indexed": false,
          "name": "operator",
          "type": "address"
        },
        {
          "indexed": false,
          "name": "trusted",
          "type": "bool"
        }
      ],
      "name": "LogOperatorSet",
      "type": "event"
    },
    {
      "anonymous": false,
      "inputs": [
        {
          "indexed": true,
          "name": "previousOwner",
          "type": "address"
        },
        {
          "indexed": true,
          "name": "newOwner",
          "type": "address"
        }
      ],
      "name": "OwnershipTransferred",
      "type": "event"
    }
  ],
  "bytecode": "60806040527f4765747465727300000000000000000000000000000000000000000000000000600d553480156200003557600080fd5b506040516101408062003ee1833981018060405262000058919081019062000335565b600b80546001600160a01b0319163317908190556040516001600160a01b0391909116906000907f8be0079c531659141344cd1fd0a4f28419497f9722a3daafe3b4186f6b6457e0908290a36001600c558151516005556020808301515160065560408084015151600755606093840151516008558251600980549385015192850151958501516001600160401b03199485166001600160401b0393841617600160401b600160801b03191668010000000000000000948416850217600160801b600160c01b03191670010000000000000000000000000000000097841697909702969096176001600160c01b0316780100000000000000000000000000000000000000000000000096831696909602959095179094556080830151600a805460a09095015194909316941693909317600160401b600160c01b0319166001600160801b03909216909202179055620003b7565b600060208284031215620001bf57600080fd5b620001cb602062000375565b90506000620001db848462000319565b82525092915050565b600060c08284031215620001f757600080fd5b6200020360c062000375565b9050600062000213848462000327565b8252506020620002268484830162000327565b60208301525060406200023c8482850162000327565b6040830152506060620002528482850162000327565b6060830152506080620002688482850162000327565b60808301525060a06200027e8482850162000304565b60a08301525092915050565b6000608082840312156200029d57600080fd5b620002a9608062000375565b90506000620002b98484620001ac565b8252506020620002cc84848301620001ac565b6020830152506040620002e284828501620001ac565b6040830152506060620002f884828501620001ac565b60608301525092915050565b60006200031282516200039c565b9392505050565b6000620003128251620003a8565b6000620003128251620003ab565b60008061014083850312156200034a57600080fd5b60006200035885856200028a565b92505060806200036b85828601620001e4565b9150509250929050565b6040518181016001600160401b03811182821017156200039457600080fd5b604052919050565b6001600160801b031690565b90565b6001600160401b031690565b613b1a80620003c76000396000f3fe608060405234801561001057600080fd5b50600436106102bb5760003560e01c80638928378e11610182578063d5ecf7c5116100e9578063eb44fdd3116100a2578063f2fde38b1161007c578063f2fde38b1461068a578063f94160521461069d578063fd04b606146106b0578063fd47eda6146106c3576102bb565b8063eb44fdd314610644578063ef6957d014610664578063f2901ae214610677576102bb565b8063d5ecf7c5146105ce578063deec053d146105e1578063e51bfcb4146105f4578063e552022814610614578063e8e72f751461061c578063eb1c6e6b1461062f576102bb565b8063b548b8921161013b578063b548b8921461053d578063c0bb72b714610560578063c146094214610573578063c190c2ec1461057b578063cb04a34c1461059b578063d24c48bc146105bb576102bb565b80638928378e146104e15780638da5cb5b146104f45780638f32d59b146104fc5780638f6bc65914610504578063982f323c14610517578063a67a6a451461052a576102bb565b8063387a498a116102265780635ac7d17c116101df5780635ac7d17c1461047457806369794795146104875780636a8194e71461049c578063715018a6146104be5780637e9eaf41146104c657806385b53fc8146104ce576102bb565b8063387a498a146103f35780633a031bf01461040657806347d1b53c146104195780634be87414146104395780634f3c15421461044c57806356ea84b214610454576102bb565b8063197f0f0511610278578063197f0f05146103725780631a7777bb14610385578063295c39a5146103a55780632a560845146103ba5780632e822af3146103cd5780633063bce2146103e0576102bb565b8063042069d6146102c0578063052f72d7146102d5578063062bd3e9146102fe578063121fb72f1461031e578063124f914c146103315780631336836414610352575b600080fd5b6102d36102ce366004612f62565b6106d6565b005b6102e86102e3366004612c9d565b610774565b6040516102f591906136c2565b60405180910390f35b61031161030c366004612eb8565b61078e565b6040516102f59190613638565b6102d361032c366004612f32565b6107aa565b61034461033f366004612e4c565b610805565b6040516102f5929190613918565b610365610360366004612eb8565b610829565b6040516102f591906136d0565b610365610380366004612eb8565b610853565b610398610393366004612eb8565b61087d565b6040516102f591906136fd565b6103ad6108b4565b6040516102f59190613934565b6103ad6103c8366004612cbb565b6108ba565b6102d36103db366004612e2e565b61097e565b6102d36103ee366004612e2e565b610a19565b6102d3610401366004612e2e565b610a72565b6102e8610414366004612cbb565b610acb565b61042c610427366004612e6a565b610ae7565b6040516102f59190613761565b6102d3610447366004612f62565b610b0a565b610398610b65565b610467610462366004612eb8565b610b81565b6040516102f5919061370b565b6102e8610482366004612eb8565b610bb6565b61048f610bda565b6040516102f5919061377d565b6104af6104aa366004612e4c565b610c36565b6040516102f593929190613689565b6102d3610d8a565b610398610de5565b6102d36104dc366004612df9565b610e01565b6103986104ef366004612eb8565b610eb9565b610311610edb565b6102e8610eea565b6103ad610512366004612ef4565b610efb565b6102d3610525366004612d25565b610f58565b6102d3610538366004612d9a565b610fff565b61055061054b366004612eb8565b611049565b6040516102f59493929190613728565b6102d361056e366004612e2e565b6110a5565b6103986110fe565b61058e610589366004612e6a565b61111a565b6040516102f59190613926565b6105ae6105a9366004612eb8565b61115a565b6040516102f5919061390a565b6103986105c9366004612f92565b61117c565b61058e6105dc366004612eb8565b6111a8565b6104676105ef366004612eb8565b6111ca565b610607610602366004612e4c565b6111ec565b6040516102f591906136de565b6103986111fe565b6102d361062a366004612f32565b61121a565b610637611275565b6040516102f5919061376f565b610657610652366004612eb8565b6112ec565b6040516102f59190613719565b6102d3610672366004612f13565b6113e5565b6102d3610685366004612cf5565b611440565b6102d3610698366004612c9d565b61149b565b6103446106ab366004612e4c565b6114b8565b6103986106be366004612eb8565b6114d3565b6103986106d1366004612eb8565b61150a565b6106de610eea565b6106e757600080fd5b600c805460010190819055604051600160e11b63442a559f02815273__AdminImpl_____________________________90638854ab3e9061073190600090879087906004016138e2565b60006040518083038186803b15801561074957600080fd5b505af415801561075d573d6000803e3d6000fd5b50505050600c54811461076f57600080fd5b505050565b6000610786818363ffffffff61153f16565b90505b919050565b600061079982611561565b61078660008363ffffffff61158416565b6107b2610eea565b6107bb57600080fd5b600c805460010190819055604051600160e31b6315525c6902815273__AdminImpl_____________________________9063aa92e3489061073190600090879087906004016138ba565b61080d61272a565b61081561272a565b6108208360006115a3565b91509150915091565b600061083482611561565b506000908152600160205260409020600301546001600160a01b031690565b600061085e82611561565b506000908152600160205260409020600401546001600160a01b031690565b61088561272a565b61088e82611561565b506000908152600160209081526040918290208251918201909252600690910154815290565b60005490565b60006108c4610eea565b6108cd57600080fd5b600c805460010190819055604051600160e11b636e994cc502815273__AdminImpl_____________________________9063dd32998a90610917906000908890889060040161378b565b60206040518083038186803b15801561092f57600080fd5b505af4158015610943573d6000803e3d6000fd5b505050506040513d601f19601f820116820180604052506109679190810190612ed6565b9150600c54811461097757600080fd5b5092915050565b610986610eea565b61098f57600080fd5b600c805460010190819055604051600160e21b633e72b31302815273__AdminImpl_____________________________9063f9cacc4c906109d7906000908690600401613869565b60006040518083038186803b1580156109ef57600080fd5b505af4158015610a03573d6000803e3d6000fd5b50505050600c548114610a1557600080fd5b5050565b610a21610eea565b610a2a57600080fd5b600c805460010190819055604051600160e21b6303d139af02815273__AdminImpl_____________________________90630f44e6bc906109d7906000908690600401613869565b610a7a610eea565b610a8357600080fd5b600c805460010190819055604051600160e41b630311401d02815273__AdminImpl_____________________________9063311401d0906109d7906000908690600401613869565b6000610ade81848463ffffffff61162f16565b90505b92915050565b610aef61273d565b610af882611561565b610ade6000848463ffffffff61166216565b610b12610eea565b610b1b57600080fd5b600c805460010190819055604051600160e01b637335079b02815273__AdminImpl_____________________________90637335079b9061073190600090879087906004016138e2565b610b6d61272a565b506040805160208101909152600554815290565b610b89612754565b610b9282611561565b61078682610ba760008263ffffffff6116c816565b6000919063ffffffff61172916565b6000610bc182611561565b5060009081526001602052604090206007015460ff1690565b610be2612774565b506040805160a0810182526005546080820190815281528151602081810184526006548252808301919091528251808201845260075481528284015282519081019092526008548252606081019190915290565b6060806060600080600001549050606081604051908082528060200260200182016040528015610c70578160200160208202803883390190505b509050606082604051908082528060200260200182016040528015610caf57816020015b610c9c61273d565b815260200190600190039081610c945790505b509050606083604051908082528060200260200182016040528015610cee57816020015b610cdb61273d565b815260200190600190039081610cd35790505b50905060005b84811015610d7b57610d058161078e565b848281518110610d1157fe5b60200260200101906001600160a01b031690816001600160a01b031681525050610d3b8982610ae7565b838281518110610d4757fe5b6020026020010181905250610d5c898261111a565b828281518110610d6857fe5b6020908102919091010152600101610cf4565b50919790965090945092505050565b610d92610eea565b610d9b57600080fd5b600b546040516000916001600160a01b0316907f8be0079c531659141344cd1fd0a4f28419497f9722a3daafe3b4186f6b6457e0908390a3600b80546001600160a01b0319169055565b610ded61272a565b506040805160208101909152600854815290565b60005b8151811015610a15576000828281518110610e1b57fe5b60200260200101516000015190506000838381518110610e3757fe5b6020908102919091018101518101513360008181526003845260408082206001600160a01b0388168352909452839020805460ff191683151517905591519092507f4d7f317d2088d039c2a95a09fcbf9cc9191fad5905f883c937cc3d317c4a632790610ea79085908590613646565b60405180910390a25050600101610e04565b610ec161272a565b610eca82611561565b61078660008363ffffffff61178116565b600b546001600160a01b031690565b600b546001600160a01b0316331490565b6000610f05610eea565b610f0e57600080fd5b600c805460010190819055604051600160e51b630592994702815273__AdminImpl_____________________________9063b25328e0906109179060009088908890600401613884565b610f60610eea565b610f6957600080fd5b600c805460010190819055604051600160e21b631234192102815273__AdminImpl_____________________________906348d0648490610fb9906000908a908a908a908a908a906004016137db565b60006040518083038186803b158015610fd157600080fd5b505af4158015610fe5573d6000803e3d6000fd5b50505050600c548114610ff757600080fd5b505050505050565b600c805460010190819055604051600160e01b63bd76ecfd02815273__OperationImpl_________________________9063bd76ecfd906107319060009087908790600401613835565b6110516127b3565b611059612754565b61106161272a565b61106961272a565b61107285611561565b61107b856112ec565b61108486610b81565b61108d87610eb9565b6110968861150a565b93509350935093509193509193565b6110ad610eea565b6110b657600080fd5b600c805460010190819055604051600160e11b632a6e9a8b02815273__AdminImpl_____________________________906354dd3516906109d7906000908690600401613869565b61110661272a565b506040805160208101909152600654815290565b61112261273d565b61112b82611561565b610ade6111406000858563ffffffff61166216565b61115584610ba760008263ffffffff6116c816565b611881565b61116261273d565b61116b82611561565b61078660008363ffffffff61191f16565b61118461272a565b61118d83611561565b61119682611561565b610ade6000848463ffffffff61196916565b6111b061273d565b6111b982611561565b61078660008363ffffffff6119ff16565b6111d2612754565b6111db82611561565b61078660008363ffffffff6116c816565b6000610786818363ffffffff611ac516565b61120661272a565b506040805160208101909152600754815290565b611222610eea565b61122b57600080fd5b600c805460010190819055604051600160e01b638c5dabd102815273__AdminImpl_____________________________90638c5dabd19061073190600090879087906004016138ba565b61127d612819565b506040805160c08101825260095467ffffffffffffffff80821683526801000000000000000080830482166020850152600160801b8304821694840194909452600160c01b90910481166060830152600a549081166080830152919091046001600160801b031660a082015290565b6112f46127b3565b6112fd82611561565b5060009081526001602081815260409283902083516101008101855281546001600160a01b03908116825285518087018752948301546001600160801b038082168752600160801b90910416858501528184019490945284516060808201875260028401546001600160601b038082168452600160601b82041683870152600160c01b900463ffffffff168288015282870191909152600383015485169082015260048201549093166080840152835180830185526005820154815260a084015283519182019093526006830154815260c082015260079091015460ff16151560e082015290565b6113ed610eea565b6113f657600080fd5b600c805460010190819055604051600160e11b6308643d8302815273__AdminImpl_____________________________906310c87b0690610731906000908790879060040161389f565b611448610eea565b61145157600080fd5b600c805460010190819055604051600160e21b633a03e00902815273__AdminImpl_____________________________9063e80f80249061073190600090879087906004016137b3565b6114a3610eea565b6114ac57600080fd5b6114b581611afa565b50565b6114c061272a565b6114c861272a565b6108208360016115a3565b6114db61272a565b6114e482611561565b506000908152600160209081526040918290208251918201909252600590910154815290565b61151261272a565b61151b82611561565b6107868261153060008263ffffffff6116c816565b6000919063ffffffff611b6916565b6001600160a01b03166000908152600491909101602052604090205460ff1690565b6114b560008001548210600d54600160b11b6926b0b935b2ba1027a7a102611c67565b600090815260019190910160205260409020546001600160a01b031690565b6115ab61272a565b6115b361272a565b6000546115be61284e565b6115c782611ccb565b905060005b8281101561160e576115ee6115e96000898463ffffffff61166216565b611d21565b611606576116048260008363ffffffff611d3216565b505b6001016115cc565b50611622600087838863ffffffff611e0316565b9350935050509250929050565b6001600160a01b03808316600090815260038501602090815260408083209385168352929052205460ff165b9392505050565b61166a61273d565b5081516001600160a01b031660009081526002840160209081526040808320828601518452825280832084845282529182902082518084019093525460ff8116151583526001600160801b0361010090910416908201529392505050565b6116d0612754565b506000908152600191909101602090815260409182902082516060810184526002909101546001600160601b038082168352600160601b82041692820192909252600160c01b90910463ffffffff169181019190915290565b611731612754565b61173961272a565b61174a85858563ffffffff611b6916565b90506117788382611761888863ffffffff61191f16565b604080516020810190915260078a01548152611f56565b95945050505050565b61178961272a565b60008281526001840160205260409020600301546001600160a01b03166117ae61272a565b6001600160a01b0382166341976e096117cd878763ffffffff61158416565b6040518263ffffffff1660e01b81526004016117e99190613638565b60206040518083038186803b15801561180157600080fd5b505afa158015611815573d6000803e3d6000fd5b505050506040513d601f19601f820116820180604052506118399190810190612e9a565b8051909150611879901515600160c81b6653746f72616765027f50726963652063616e6e6f74206265207a65726f000000000000000000000000876120b1565b949350505050565b61188961273d565b602083015183516001600160801b0390911690156118e7576040805180820190915260018152602084810151908201906118dc9084906001600160601b0316670de0b6b3a764000063ffffffff61210616565b815250915050610ae1565b6040805180820190915260008152835160208201906118dc9084906001600160601b0316670de0b6b3a764000063ffffffff61212816565b61192761273d565b506000818152600180840160209081526040928390208351808501909452909101546001600160801b038082168452600160801b909104169082015292915050565b61197161272a565b600680850154600085815260018701602090815260409182902082519182019092529201548252906119ad9082906119a890612175565b6121ac565b90506119e8816119a8876001016000878152602001908152602001600020600601604051806020016040529081600082015481525050612175565b604080516020810190915290815295945050505050565b611a0761273d565b611a0f612754565b611a1f848463ffffffff6116c816565b9050611a2961273d565b611a39858563ffffffff61191f16565b90506000611a4d868663ffffffff61158416565b9050611a5761273d565b6040518060400160405280600115158152602001611a7584306121c5565b90529050611a8161273d565b611a8961273d565b611a938587612247565b9092509050611ab882611aac858463ffffffff6122dd16565b9063ffffffff6122dd16565b9998505050505050505050565b80516001600160a01b031660009081526002929092016020908152604080842092820151845291905290206001015460ff1690565b6001600160a01b038116611b0d57600080fd5b600b546040516001600160a01b038084169216907f8be0079c531659141344cd1fd0a4f28419497f9722a3daafe3b4186f6b6457e090600090a3600b80546001600160a01b0319166001600160a01b0392909216919091179055565b611b7161272a565b611b7961273d565b611b89858563ffffffff61191f16565b9050611b9361273d565b611b9b61273d565b611ba58386612247565b91509150611bb161272a565b60008781526001890160205260409020600401546001600160a01b031663e8177dcf611be38a8a63ffffffff61158416565b846020015186602001516040518463ffffffff1660e01b8152600401611c0b93929190613661565b60206040518083038186803b158015611c2357600080fd5b505afa158015611c37573d6000803e3d6000fd5b505050506040513d601f19601f82011682018060405250611c5b9190810190612e9a565b98975050505050505050565b8261076f57611c75826122f7565b600160f51b6101d102611c87836122f7565b604051602001611c99939291906135b2565b60408051601f1981840301815290829052600160e51b62461bcd028252611cc2916004016136ec565b60405180910390fd5b611cd361284e565b604051806020016040528083604051908082528060200260200182016040528015611d1857816020015b611d05612861565b815260200190600190039081611cfd5790505b50905292915050565b602001516001600160801b03161590565b6000611d44848363ffffffff61237f16565b15611d515750600061165b565b611d61838363ffffffff61178116565b8451805184908110611d6f57fe5b602090810291909101810151604090810192909252600084815260018601909152206007015460ff1615611df957600184600001518381518110611daf57fe5b60209081029190910101519015159052611dcf838363ffffffff61191f16565b518451805184908110611dde57fe5b6020908102919091018101516001600160801b039092169101525b5060019392505050565b611e0b61272a565b611e1361272a565b611e1b61272a565b611e2361272a565b6000611e2e876123ad565b905060005b81811015611f4757611e4b888263ffffffff61237f16565b611e5457611f3f565b611e5c61273d565b611e6d8b8b8463ffffffff6123b216565b9050611e7881612421565b15611e835750611f3f565b6000611eaa611e988b8563ffffffff61242916565b5160208401519063ffffffff61245316565b9050611eb461272a565b611ebc61247a565b90508915611ef457600084815260018e01602090815260409182902082519182019092526005909101548152611ef190612175565b90505b825115611f1d57611f16611f08838361249c565b88519063ffffffff6124b516565b8752611f3b565b611f38611f2a83836121ac565b87519063ffffffff6124b516565b86525b5050505b600101611e33565b50919890975095505050505050565b611f5e612754565b611f6661273d565b611f6e61273d565b611f788588612247565b915091506000611f866124c7565b90506000611fbe611fb08a6040015163ffffffff168463ffffffff166124d790919063ffffffff16565b89519063ffffffff61245316565b90506000611fcb85612421565b15611fd85750600061200a565b611fe282886121ac565b905084602001518460200151101561200a576120078185602001518760200151612106565b90505b8181111561201457fe5b60408051606081019091528a51819061205890612053906001600160601b03166120478188670de0b6b3a7640000612106565b9063ffffffff6124b516565b6124ec565b6001600160601b03908116825260208d81015192019161208a9161205391166120478187670de0b6b3a7640000612106565b6001600160601b031681526020018463ffffffff1681525095505050505050949350505050565b83612100576120bf836122f7565b600160f51b6101d1026120d1846122f7565b600160f21b61080f026120e38561252f565b604051611c99959493929190600160f91b601f02906020016135da565b50505050565b60006118798261211c868663ffffffff61245316565b9063ffffffff6125ef16565b6000831580612135575082155b1561214c576121456000836125ef565b905061165b565b61187960016120478461211c836121698a8a63ffffffff61245316565b9063ffffffff6124d716565b61217d61272a565b6040805160208101909152825181906121a490670de0b6b3a764000063ffffffff6124b516565b905292915050565b6000610ade838360000151670de0b6b3a7640000612106565b604051600160e01b6370a082310281526000906001600160a01b038416906370a08231906121f7908590600401613638565b60206040518083038186803b15801561220f57600080fd5b505afa158015612223573d6000803e3d6000fd5b505050506040513d601f19601f82011682018060405250610ade9190810190612ed6565b61224f61273d565b61225761273d565b61225f61273d565b5060408051808201909152600181526020858101516001600160801b03169082015261228961273d565b50604080518082019091526000815285516001600160801b031660208201526122b061273d565b6122ba8387611881565b90506122c461273d565b6122ce8388611881565b91989197509095505050505050565b6122e561273d565b610ade836122f284612611565b612638565b6060808260405160200161230b919061359d565b60408051601f19818403018152919052905060205b80156123685781516000199091019082908290811061233b57fe5b01602001516001600160f81b031960f891821c90911b16156123635760010181529050610789565b612320565b505060408051600081526020810190915292915050565b60008260000151828151811061239157fe5b6020026020010151604001516000015160001415905092915050565b515190565b6123ba61273d565b6123c261273d565b6123d385858563ffffffff61166216565b90506123de81611d21565b156123f3576123eb6126ca565b91505061165b565b6123fb612754565b61240b868563ffffffff6116c816565b90506124178282611881565b9695505050505050565b602001511590565b61243161272a565b825180518390811061243f57fe5b602002602001015160400151905092915050565b60008261246257506000610ae1565b8282028284828161246f57fe5b0414610ade57600080fd5b61248261272a565b506040805160208101909152670de0b6b3a7640000815290565b6000610ade83670de0b6b3a76400008460000151612106565b600082820183811015610ade57600080fd5b60006124d2426126ea565b905090565b6000828211156124e657600080fd5b50900390565b6000816107866001600160601b0382168214600160e31b6309ac2e8d027f556e73616665206361737420746f2075696e7439360000000000000000000000611c67565b60608161255757506040805180820190915260018152600160fc1b6003026020820152610789565b8160005b811561256f57600101600a8204915061255b565b6060816040519080825280601f01601f19166020018201604052801561259c576020820181803883390190505b508593509050815b80156125e65760001901600a840660300160f81b8282815181106125c457fe5b60200101906001600160f81b031916908160001a905350600a840493506125a4565b50949350505050565b60008082116125fd57600080fd5b600082848161260857fe5b04949350505050565b61261961273d565b5060408051808201909152815115815260208083015190820152919050565b61264061273d565b61264861273d565b825184511515901515141561267b578351151581526020808501519084015161267191906124b5565b6020820152610ade565b82602001518460200151106126a4578351151581526020808501519084015161267191906124d7565b825115158152602080840151908501516126be91906124d7565b60208201529392505050565b6126d261273d565b50604080518082019091526000808252602082015290565b60008161078663ffffffff82168214600160e31b6309ac2e8d027f556e73616665206361737420746f2075696e7433320000000000000000000000611c67565b6040518060200160405280600081525090565b604080518082019091526000808252602082015290565b604080516060810182526000808252602082018190529181019190915290565b604051806080016040528061278761272a565b815260200161279461272a565b81526020016127a161272a565b81526020016127ae61272a565b905290565b60405180610160016040528060006001600160a01b031681526020016127d761273d565b81526020016127e4612754565b815260006020820181905260408201526060016127ff61272a565b815260200161280c61272a565b8152600060209091015290565b6040805160c081018252600080825260208201819052918101829052606081018290526080810182905260a081019190915290565b6040518060200160405280606081525090565b60408051606081018252600080825260208201529081016127ae61272a565b6000610ade82356139c5565b600082601f83011261289d57600080fd5b81356128b06128ab82613969565b613942565b81815260209384019390925082018360005b838110156128ee57813586016128d88882612a5b565b84525060209283019291909101906001016128c2565b5050505092915050565b600082601f83011261290957600080fd5b81356129176128ab82613969565b9150818183526020840193506020810190508385604084028201111561293c57600080fd5b60005b838110156128ee57816129528882612bd9565b8452506020909201916040919091019060010161293f565b600082601f83011261297b57600080fd5b81356129896128ab82613969565b915081818352602084019350602081019050838560408402820111156129ae57600080fd5b60005b838110156128ee57816129c48882612c20565b845250602090920191604091909101906001016129b1565b6000610ade82356139d0565b600082601f8301126129f957600080fd5b8135612a076128ab8261398a565b91508082526020830160208301858383011115612a2357600080fd5b612a2e838284613a9e565b50505092915050565b6000610ade8235613a54565b6000610ade8235613a5f565b6000610ade8235613a6e565b60006101608284031215612a6e57600080fd5b612a79610100613942565b90506000612a878484612a43565b8252506020612a9884848301612c85565b6020830152506040612aac84828501612b37565b60408301525060c0612ac084828501612c85565b60608301525060e0612ad484828501612c85565b608083015250610100612ae984828501612880565b60a083015250610120612afe84828501612c85565b60c08301525061014082013567ffffffffffffffff811115612b1f57600080fd5b612b2b848285016129e8565b60e08301525092915050565b600060808284031215612b4957600080fd5b612b536080613942565b90506000612b6184846129dc565b8252506020612b7284848301612a4f565b6020830152506040612b8684828501612a4f565b6040830152506060612b9a84828501612c85565b60608301525092915050565b600060208284031215612bb857600080fd5b612bc26020613942565b90506000612bd08484612c85565b82525092915050565b600060408284031215612beb57600080fd5b612bf56040613942565b90506000612c038484612880565b8252506020612c1484848301612c85565b60208301525092915050565b600060408284031215612c3257600080fd5b612c3c6040613942565b90506000612c4a8484612880565b8252506020612c14848483016129dc565b600060208284031215612c6d57600080fd5b612c776020613942565b90506000612bd08484612c91565b6000610ade82356139ef565b6000610ade82516139ef565b600060208284031215612caf57600080fd5b60006118798484612880565b60008060408385031215612cce57600080fd5b6000612cda8585612880565b9250506020612ceb85828601612880565b9150509250929050565b60008060408385031215612d0857600080fd5b6000612d148585612880565b9250506020612ceb858286016129dc565b600080600080600060a08688031215612d3d57600080fd5b6000612d498888612880565b9550506020612d5a88828901612a37565b9450506040612d6b88828901612a37565b9350506060612d7c88828901612ba6565b9250506080612d8d88828901612ba6565b9150509295509295909350565b60008060408385031215612dad57600080fd5b823567ffffffffffffffff811115612dc457600080fd5b612dd0858286016128f8565b925050602083013567ffffffffffffffff811115612ded57600080fd5b612ceb8582860161288c565b600060208284031215612e0b57600080fd5b813567ffffffffffffffff811115612e2257600080fd5b6118798482850161296a565b600060208284031215612e4057600080fd5b60006118798484612ba6565b600060408284031215612e5e57600080fd5b60006118798484612bd9565b60008060608385031215612e7d57600080fd5b6000612e898585612bd9565b9250506040612ceb85828601612c85565b600060208284031215612eac57600080fd5b60006118798484612c5b565b600060208284031215612eca57600080fd5b60006118798484612c85565b600060208284031215612ee857600080fd5b60006118798484612c91565b60008060408385031215612f0757600080fd5b6000612cda8585612c85565b60008060408385031215612f2657600080fd5b6000612d148585612c85565b60008060408385031215612f4557600080fd5b6000612f518585612c85565b9250506020612ceb85828601612a37565b60008060408385031215612f7557600080fd5b6000612f818585612c85565b9250506020612ceb85828601612ba6565b60008060408385031215612fa557600080fd5b6000612fb18585612c85565b9250506020612ceb85828601612c85565b6000612fce838361300e565b505060200190565b6000610ade838361327a565b6000612fee83836133ae565b505060400190565b6000612fee838361346c565b6000612fee838361355f565b613017816139c5565b82525050565b6000613028826139b8565b61303281856139bc565b935061303d836139b2565b60005b8281101561306857613053868351612fc2565b955061305e826139b2565b9150600101613040565b5093949350505050565b600061307d826139b8565b61308781856139bc565b935083602082028501613099856139b2565b60005b848110156130d05783830388526130b4838351612fd6565b92506130bf826139b2565b60209890980197915060010161309c565b50909695505050505050565b60006130e7826139b8565b6130f181856139bc565b93506130fc836139b2565b60005b8281101561306857613112868351612fe2565b955061311d826139b2565b91506001016130ff565b6000613132826139b8565b61313c81856139bc565b9350613147836139b2565b60005b828110156130685761315d868351612ff6565b9550613168826139b2565b915060010161314a565b600061317d826139b8565b61318781856139bc565b9350613192836139b2565b60005b82811015613068576131a8868351613002565b95506131b3826139b2565b9150600101613195565b613017816139d0565b6130176131d2826139d5565b6139ef565b6130176131d2826139e2565b6130176131d2826139ef565b60006131fa826139b8565b6132048185610789565b9350613214818560208601613aaa565b9290920192915050565b6000613229826139b8565b61323381856139bc565b9350613243818560208601613aaa565b61324c81613ad6565b9093019392505050565b61301781613a54565b61301781613a7d565b61301781613a88565b61301781613a93565b805160009061016084019061328f858261325f565b5060208301516132a26020860182613579565b5060408301516132b5604086018261331c565b5060608301516132c860c0860182613579565b5060808301516132db60e0860182613579565b5060a08301516132ef61010086018261300e565b5060c0830151613303610120860182613579565b5060e0830151848203610140860152611778828261321e565b8051608083019061332d84826131bd565b5060208201516133406020850182613268565b5060408201516133536040850182613268565b5060608201516121006060850182613579565b805160208301906121008482613579565b805160608301906133888482613594565b50602082015161339b6020850182613594565b5060408201516121006040850182613582565b805160408301906133bf848261300e565b5060208201516121006020850182613579565b80516101608301906133e4848261300e565b5060208201516133f7602085018261354e565b50604082015161340a6060850182613377565b50606082015161341d60c0850182613256565b50608082015161343060e0850182613256565b5060a0820151613444610100850182613366565b5060c0820151613458610120850182613366565b5060e08201516121006101408501826131bd565b8051604083019061347d84826131bd565b5060208201516121006020850182613570565b805160c08301906134a1848261358b565b5060208201516134b4602085018261358b565b5060408201516134c7604085018261358b565b5060608201516134da606085018261358b565b5060808201516134ed608085018261358b565b5060a082015161210060a0850182613570565b805160808301906135118482613366565b5060208201516135246020850182613366565b5060408201516135376040850182613366565b5060608201516121006060850182613366565b9052565b8051604083019061347d8482613570565b805160408301906133bf84826131bd565b61301781613a1a565b613017816139ef565b61301781613a32565b61301781613a3b565b61301781613a48565b60006135a982846131e3565b50602001919050565b60006135be82866131ef565b91506135ca82856131d7565b60028201915061177882846131ef565b60006135e682896131ef565b91506135f282886131d7565b60028201915061360282876131ef565b915061360e82866131d7565b60028201915061361e82856131ef565b915061362a82846131c6565b506001019695505050505050565b60208101610ae1828461300e565b60408101613654828561300e565b61165b60208301846131bd565b6060810161366f828661300e565b61367c6020830185613579565b6118796040830184613579565b6060808252810161369a818661301d565b905081810360208301526136ae8185613127565b905081810360408301526117788184613172565b60208101610ae182846131bd565b60208101610ae18284613256565b60208101610ae18284613271565b60208082528101610ade818461321e565b60208101610ae18284613366565b60608101610ae18284613377565b6101608101610ae182846133d2565b610200810161373782876133d2565b613745610160830186613377565b6137536101c0830185613366565b6117786101e0830184613366565b60408101610ae1828461346c565b60c08101610ae18284613490565b60808101610ae18284613500565b60608101613799828661354a565b6137a6602083018561300e565b611879604083018461300e565b606081016137c1828661354a565b6137ce602083018561300e565b61187960408301846131bd565b60c081016137e9828961354a565b6137f6602083018861300e565b6138036040830187613256565b6138106060830186613256565b61381d6080830185613366565b61382a60a0830184613366565b979650505050505050565b60608101613843828661354a565b818103602083015261385581856130dc565b905081810360408301526117788184613072565b60408101613877828561354a565b61165b6020830184613366565b60608101613892828661354a565b6137a66020830185613579565b606081016138ad828661354a565b6137ce6020830185613579565b606081016138c8828661354a565b6138d56020830185613579565b6118796040830184613256565b606081016138f0828661354a565b6138fd6020830185613579565b6118796040830184613366565b60408101610ae1828461354e565b604081016138778285613366565b60408101610ae1828461355f565b60208101610ae18284613579565b60405181810167ffffffffffffffff8111828210171561396157600080fd5b604052919050565b600067ffffffffffffffff82111561398057600080fd5b5060209081020190565b600067ffffffffffffffff8211156139a157600080fd5b506020601f91909101601f19160190565b60200190565b5190565b90815260200190565b600061078682613a26565b151590565b6001600160f81b03191690565b6001600160f01b03191690565b90565b6000600982106139fe57fe5b5090565b6000600282106139fe57fe5b6000600382106139fe57fe5b6001600160801b031690565b6001600160a01b031690565b63ffffffff1690565b67ffffffffffffffff1690565b6001600160601b031690565b6000610786826139c5565b6000600982106139fe57600080fd5b6000600282106139fe57600080fd5b6000610786826139f2565b600061078682613a02565b600061078682613a0e565b82818337506000910152565b60005b83811015613ac5578181015183820152602001613aad565b838111156121005750506000910152565b601f01601f19169056fea265627a7a723058200429bb916c14d387fb77daee0b3116f5ea589b40222582840ff0a03bb7f37bc96c6578706572696d656e74616cf50037",
  "bytecodeSha1": "c72ef255eb573be233da8192cf0c4b08def5ce16",
  "compiler": {
    "evm_version": "petersburg",
    "optimizer": {
      "enabled": true,
      "runs": 200
    },
    "version": "0.5.7+commit.6da8b019"
  },
  "contractName": "SoloMargin",
  "deployedBytecode": "608060405234801561001057600080fd5b50600436106102bb5760003560e01c80638928378e11610182578063d5ecf7c5116100e9578063eb44fdd3116100a2578063f2fde38b1161007c578063f2fde38b1461068a578063f94160521461069d578063fd04b606146106b0578063fd47eda6146106c3576102bb565b8063eb44fdd314610644578063ef6957d014610664578063f2901ae214610677576102bb565b8063d5ecf7c5146105ce578063deec053d146105e1578063e51bfcb4146105f4578063e552022814610614578063e8e72f751461061c578063eb1c6e6b1461062f576102bb565b8063b548b8921161013b578063b548b8921461053d578063c0bb72b714610560578063c146094214610573578063c190c2ec1461057b578063cb04a34c1461059b578063d24c48bc146105bb576102bb565b80638928378e146104e15780638da5cb5b146104f45780638f32d59b146104fc5780638f6bc65914610504578063982f323c14610517578063a67a6a451461052a576102bb565b8063387a498a116102265780635ac7d17c116101df5780635ac7d17c1461047457806369794795146104875780636a8194e71461049c578063715018a6146104be5780637e9eaf41146104c657806385b53fc8146104ce576102bb565b8063387a498a146103f35780633a031bf01461040657806347d1b53c146104195780634be87414146104395780634f3c15421461044c57806356ea84b214610454576102bb565b8063197f0f0511610278578063197f0f05146103725780631a7777bb14610385578063295c39a5146103a55780632a560845146103ba5780632e822af3146103cd5780633063bce2146103e0576102bb565b8063042069d6146102c0578063052f72d7146102d5578063062bd3e9146102fe578063121fb72f1461031e578063124f914c146103315780631336836414610352575b600080fd5b6102d36102ce366004612f62565b6106d6565b005b6102e86102e3366004612c9d565b610774565b6040516102f591906136c2565b60405180910390f35b61031161030c366004612eb8565b61078e565b6040516102f59190613638565b6102d361032c366004612f32565b6107aa565b61034461033f366004612e4c565b610805565b6040516102f5929190613918565b610365610360366004612eb8565b610829565b6040516102f591906136d0565b610365610380366004612eb8565b610853565b610398610393366004612eb8565b61087d565b6040516102f591906136fd565b6103ad6108b4565b6040516102f59190613934565b6103ad6103c8366004612cbb565b6108ba565b6102d36103db366004612e2e565b61097e565b6102d36103ee366004612e2e565b610a19565b6102d3610401366004612e2e565b610a72565b6102e8610414366004612cbb565b610acb565b61042c610427366004612e6a565b610ae7565b6040516102f59190613761565b6102d3610447366004612f62565b610b0a565b610398610b65565b610467610462366004612eb8565b610b81565b6040516102f5919061370b565b6102e8610482366004612eb8565b610bb6565b61048f610bda565b6040516102f5919061377d565b6104af6104aa366004612e4c565b610c36565b6040516102f593929190613689565b6102d3610d8a565b610398610de5565b6102d36104dc366004612df9565b610e01565b6103986104ef366004612eb8565b610eb9565b610311610edb565b6102e8610eea565b6103ad610512366004612ef4565b610efb565b6102d3610525366004612d25565b610f58565b6102d3610538366004612d9a565b610fff565b61055061054b366004612eb8565b611049565b6040516102f59493929190613728565b6102d361056e366004612e2e565b6110a5565b6103986110fe565b61058e610589366004612e6a565b61111a565b6040516102f59190613926565b6105ae6105a9366004612eb8565b61115a565b6040516102f5919061390a565b6103986105c9366004612f92565b61117c565b61058e6105dc366004612eb8565b6111a8565b6104676105ef366004612eb8565b6111ca565b610607610602366004612e4c565b6111ec565b6040516102f591906136de565b6103986111fe565b6102d361062a366004612f32565b61121a565b610637611275565b6040516102f5919061376f565b610657610652366004612eb8565b6112ec565b6040516102f59190613719565b6102d3610672366004612f13565b6113e5565b6102d3610685366004612cf5565b611440565b6102d3610698366004612c9d565b61149b565b6103446106ab366004612e4c565b6114b8565b6103986106be366004612eb8565b6114d3565b6103986106d1366004612eb8565b61150a565b6106de610eea565b6106e757600080fd5b600c805460010190819055604051600160e11b63442a559f02815273__$b3c063db0609f365893787ac7667548d06$__90638854ab3e9061073190600090879087906004016138e2565b60006040518083038186803b15801561074957600080fd5b505af415801561075d573d6000803e3d6000fd5b50505050600c54811461076f57600080fd5b505050565b6000610786818363ffffffff61153f16565b90505b919050565b600061079982611561565b61078660008363ffffffff61158416565b6107b2610eea565b6107bb57600080fd5b600c805460010190819055604051600160e31b6315525c6902815273__$b3c063db0609f365893787ac7667548d06$__9063aa92e3489061073190600090879087906004016138ba565b61080d61272a565b61081561272a565b6108208360006115a3565b91509150915091565b600061083482611561565b506000908152600160205260409020600301546001600160a01b031690565b600061085e82611561565b506000908152600160205260409020600401546001600160a01b031690565b61088561272a565b61088e82611561565b506000908152600160209081526040918290208251918201909252600690910154815290565b60005490565b60006108c4610eea565b6108cd57600080fd5b600c805460010190819055604051600160e11b636e994cc502815273__$b3c063db0609f365893787ac7667548d06$__9063dd32998a90610917906000908890889060040161378b565b60206040518083038186803b15801561092f57600080fd5b505af4158015610943573d6000803e3d6000fd5b505050506040513d601f19601f820116820180604052506109679190810190612ed6565b9150600c54811461097757600080fd5b5092915050565b610986610eea565b61098f57600080fd5b600c805460010190819055604051600160e21b633e72b31302815273__$b3c063db0609f365893787ac7667548d06$__9063f9cacc4c906109d7906000908690600401613869565b60006040518083038186803b1580156109ef57600080fd5b505af4158015610a03573d6000803e3d6000fd5b50505050600c548114610a1557600080fd5b5050565b610a21610eea565b610a2a57600080fd5b600c805460010190819055604051600160e21b6303d139af02815273__$b3c063db0609f365893787ac7667548d06$__90630f44e6bc906109d7906000908690600401613869565b610a7a610eea565b610a8357600080fd5b600c805460010190819055604051600160e41b630311401d02815273__$b3c063db0609f365893787ac7667548d06$__9063311401d0906109d7906000908690600401613869565b6000610ade81848463ffffffff61162f16565b90505b92915050565b610aef61273d565b610af882611561565b610ade6000848463ffffffff61166216565b610b12610eea565b610b1b57600080fd5b600c805460010190819055604051600160e01b637335079b02815273__$b3c063db0609f365893787ac7667548d06$__90637335079b9061073190600090879087906004016138e2565b610b6d61272a565b506040805160208101909152600554815290565b610b89612754565b610b9282611561565b61078682610ba760008263ffffffff6116c816565b6000919063ffffffff61172916565b6000610bc182611561565b5060009081526001602052604090206007015460ff1690565b610be2612774565b506040805160a0810182526005546080820190815281528151602081810184526006548252808301919091528251808201845260075481528284015282519081019092526008548252606081019190915290565b6060806060600080600001549050606081604051908082528060200260200182016040528015610c70578160200160208202803883390190505b509050606082604051908082528060200260200182016040528015610caf57816020015b610c9c61273d565b815260200190600190039081610c945790505b509050606083604051908082528060200260200182016040528015610cee57816020015b610cdb61273d565b815260200190600190039081610cd35790505b50905060005b84811015610d7b57610d058161078e565b848281518110610d1157fe5b60200260200101906001600160a01b031690816001600160a01b031681525050610d3b8982610ae7565b838281518110610d4757fe5b6020026020010181905250610d5c898261111a565b828281518110610d6857fe5b6020908102919091010152600101610cf4565b50919790965090945092505050565b610d92610eea565b610d9b57600080fd5b600b546040516000916001600160a01b0316907f8be0079c531659141344cd1fd0a4f28419497f9722a3daafe3b4186f6b6457e0908390a3600b80546001600160a01b0319169055565b610ded61272a565b506040805160208101909152600854815290565b60005b8151811015610a15576000828281518110610e1b57fe5b60200260200101516000015190506000838381518110610e3757fe5b6020908102919091018101518101513360008181526003845260408082206001600160a01b0388168352909452839020805460ff191683151517905591519092507f4d7f317d2088d039c2a95a09fcbf9cc9191fad5905f883c937cc3d317c4a632790610ea79085908590613646565b60405180910390a25050600101610e04565b610ec161272a565b610eca82611561565b61078660008363ffffffff61178116565b600b546001600160a01b031690565b600b546001600160a01b0316331490565b6000610f05610eea565b610f0e57600080fd5b600c805460010190819055604051600160e51b630592994702815273__$b3c063db0609f365893787ac7667548d06$__9063b25328e0906109179060009088908890600401613884565b610f60610eea565b610f6957600080fd5b600c805460010190819055604051600160e21b631234192102815273__$b3c063db0609f365893787ac7667548d06$__906348d0648490610fb9906000908a908a908a908a908a906004016137db565b60006040518083038186803b158015610fd157600080fd5b505af4158015610fe5573d6000803e3d6000fd5b50505050600c548114610ff757600080fd5b505050505050565b600c805460010190819055604051600160e01b63bd76ecfd02815273__$46522ed35f586fef70d98b600e893b9cbc$__9063bd76ecfd906107319060009087908790600401613835565b6110516127b3565b611059612754565b61106161272a565b61106961272a565b61107285611561565b61107b856112ec565b61108486610b81565b61108d87610eb9565b6110968861150a565b93509350935093509193509193565b6110ad610eea565b6110b657600080fd5b600c805460010190819055604051600160e11b632a6e9a8b02815273__$b3c063db0609f365893787ac7667548d06$__906354dd3516906109d7906000908690600401613869565b61110661272a565b506040805160208101909152600654815290565b61112261273d565b61112b82611561565b610ade6111406000858563ffffffff61166216565b61115584610ba760008263ffffffff6116c816565b611881565b61116261273d565b61116b82611561565b61078660008363ffffffff61191f16565b61118461272a565b61118d83611561565b61119682611561565b610ade6000848463ffffffff61196916565b6111b061273d565b6111b982611561565b61078660008363ffffffff6119ff16565b6111d2612754565b6111db82611561565b61078660008363ffffffff6116c816565b6000610786818363ffffffff611ac516565b61120661272a565b506040805160208101909152600754815290565b611222610eea565b61122b57600080fd5b600c805460010190819055604051600160e01b638c5dabd102815273__$b3c063db0609f365893787ac7667548d06$__90638c5dabd19061073190600090879087906004016138ba565b61127d612819565b506040805160c08101825260095467ffffffffffffffff80821683526801000000000000000080830482166020850152600160801b8304821694840194909452600160c01b90910481166060830152600a549081166080830152919091046001600160801b031660a082015290565b6112f46127b3565b6112fd82611561565b5060009081526001602081815260409283902083516101008101855281546001600160a01b03908116825285518087018752948301546001600160801b038082168752600160801b90910416858501528184019490945284516060808201875260028401546001600160601b038082168452600160601b82041683870152600160c01b900463ffffffff168288015282870191909152600383015485169082015260048201549093166080840152835180830185526005820154815260a084015283519182019093526006830154815260c082015260079091015460ff16151560e082015290565b6113ed610eea565b6113f657600080fd5b600c805460010190819055604051600160e11b6308643d8302815273__$b3c063db0609f365893787ac7667548d06$__906310c87b0690610731906000908790879060040161389f565b611448610eea565b61145157600080fd5b600c805460010190819055604051600160e21b633a03e00902815273__$b3c063db0609f365893787ac7667548d06$__9063e80f80249061073190600090879087906004016137b3565b6114a3610eea565b6114ac57600080fd5b6114b581611afa565b50565b6114c061272a565b6114c861272a565b6108208360016115a3565b6114db61272a565b6114e482611561565b506000908152600160209081526040918290208251918201909252600590910154815290565b61151261272a565b61151b82611561565b6107868261153060008263ffffffff6116c816565b6000919063ffffffff611b6916565b6001600160a01b03166000908152600491909101602052604090205460ff1690565b6114b560008001548210600d54600160b11b6926b0b935b2ba1027a7a102611c67565b600090815260019190910160205260409020546001600160a01b031690565b6115ab61272a565b6115b361272a565b6000546115be61284e565b6115c782611ccb565b905060005b8281101561160e576115ee6115e96000898463ffffffff61166216565b611d21565b611606576116048260008363ffffffff611d3216565b505b6001016115cc565b50611622600087838863ffffffff611e0316565b9350935050509250929050565b6001600160a01b03808316600090815260038501602090815260408083209385168352929052205460ff165b9392505050565b61166a61273d565b5081516001600160a01b031660009081526002840160209081526040808320828601518452825280832084845282529182902082518084019093525460ff8116151583526001600160801b0361010090910416908201529392505050565b6116d0612754565b506000908152600191909101602090815260409182902082516060810184526002909101546001600160601b038082168352600160601b82041692820192909252600160c01b90910463ffffffff169181019190915290565b611731612754565b61173961272a565b61174a85858563ffffffff611b6916565b90506117788382611761888863ffffffff61191f16565b604080516020810190915260078a01548152611f56565b95945050505050565b61178961272a565b60008281526001840160205260409020600301546001600160a01b03166117ae61272a565b6001600160a01b0382166341976e096117cd878763ffffffff61158416565b6040518263ffffffff1660e01b81526004016117e99190613638565b60206040518083038186803b15801561180157600080fd5b505afa158015611815573d6000803e3d6000fd5b505050506040513d601f19601f820116820180604052506118399190810190612e9a565b8051909150611879901515600160c81b6653746f72616765027f50726963652063616e6e6f74206265207a65726f000000000000000000000000876120b1565b949350505050565b61188961273d565b602083015183516001600160801b0390911690156118e7576040805180820190915260018152602084810151908201906118dc9084906001600160601b0316670de0b6b3a764000063ffffffff61210616565b815250915050610ae1565b6040805180820190915260008152835160208201906118dc9084906001600160601b0316670de0b6b3a764000063ffffffff61212816565b61192761273d565b506000818152600180840160209081526040928390208351808501909452909101546001600160801b038082168452600160801b909104169082015292915050565b61197161272a565b600680850154600085815260018701602090815260409182902082519182019092529201548252906119ad9082906119a890612175565b6121ac565b90506119e8816119a8876001016000878152602001908152602001600020600601604051806020016040529081600082015481525050612175565b604080516020810190915290815295945050505050565b611a0761273d565b611a0f612754565b611a1f848463ffffffff6116c816565b9050611a2961273d565b611a39858563ffffffff61191f16565b90506000611a4d868663ffffffff61158416565b9050611a5761273d565b6040518060400160405280600115158152602001611a7584306121c5565b90529050611a8161273d565b611a8961273d565b611a938587612247565b9092509050611ab882611aac858463ffffffff6122dd16565b9063ffffffff6122dd16565b9998505050505050505050565b80516001600160a01b031660009081526002929092016020908152604080842092820151845291905290206001015460ff1690565b6001600160a01b038116611b0d57600080fd5b600b546040516001600160a01b038084169216907f8be0079c531659141344cd1fd0a4f28419497f9722a3daafe3b4186f6b6457e090600090a3600b80546001600160a01b0319166001600160a01b0392909216919091179055565b611b7161272a565b611b7961273d565b611b89858563ffffffff61191f16565b9050611b9361273d565b611b9b61273d565b611ba58386612247565b91509150611bb161272a565b60008781526001890160205260409020600401546001600160a01b031663e8177dcf611be38a8a63ffffffff61158416565b846020015186602001516040518463ffffffff1660e01b8152600401611c0b93929190613661565b60206040518083038186803b158015611c2357600080fd5b505afa158015611c37573d6000803e3d6000fd5b505050506040513d601f19601f82011682018060405250611c5b9190810190612e9a565b98975050505050505050565b8261076f57611c75826122f7565b600160f51b6101d102611c87836122f7565b604051602001611c99939291906135b2565b60408051601f1981840301815290829052600160e51b62461bcd028252611cc2916004016136ec565b60405180910390fd5b611cd361284e565b604051806020016040528083604051908082528060200260200182016040528015611d1857816020015b611d05612861565b815260200190600190039081611cfd5790505b50905292915050565b602001516001600160801b03161590565b6000611d44848363ffffffff61237f16565b15611d515750600061165b565b611d61838363ffffffff61178116565b8451805184908110611d6f57fe5b602090810291909101810151604090810192909252600084815260018601909152206007015460ff1615611df957600184600001518381518110611daf57fe5b60209081029190910101519015159052611dcf838363ffffffff61191f16565b518451805184908110611dde57fe5b6020908102919091018101516001600160801b039092169101525b5060019392505050565b611e0b61272a565b611e1361272a565b611e1b61272a565b611e2361272a565b6000611e2e876123ad565b905060005b81811015611f4757611e4b888263ffffffff61237f16565b611e5457611f3f565b611e5c61273d565b611e6d8b8b8463ffffffff6123b216565b9050611e7881612421565b15611e835750611f3f565b6000611eaa611e988b8563ffffffff61242916565b5160208401519063ffffffff61245316565b9050611eb461272a565b611ebc61247a565b90508915611ef457600084815260018e01602090815260409182902082519182019092526005909101548152611ef190612175565b90505b825115611f1d57611f16611f08838361249c565b88519063ffffffff6124b516565b8752611f3b565b611f38611f2a83836121ac565b87519063ffffffff6124b516565b86525b5050505b600101611e33565b50919890975095505050505050565b611f5e612754565b611f6661273d565b611f6e61273d565b611f788588612247565b915091506000611f866124c7565b90506000611fbe611fb08a6040015163ffffffff168463ffffffff166124d790919063ffffffff16565b89519063ffffffff61245316565b90506000611fcb85612421565b15611fd85750600061200a565b611fe282886121ac565b905084602001518460200151101561200a576120078185602001518760200151612106565b90505b8181111561201457fe5b60408051606081019091528a51819061205890612053906001600160601b03166120478188670de0b6b3a7640000612106565b9063ffffffff6124b516565b6124ec565b6001600160601b03908116825260208d81015192019161208a9161205391166120478187670de0b6b3a7640000612106565b6001600160601b031681526020018463ffffffff1681525095505050505050949350505050565b83612100576120bf836122f7565b600160f51b6101d1026120d1846122f7565b600160f21b61080f026120e38561252f565b604051611c99959493929190600160f91b601f02906020016135da565b50505050565b60006118798261211c868663ffffffff61245316565b9063ffffffff6125ef16565b6000831580612135575082155b1561214c576121456000836125ef565b905061165b565b61187960016120478461211c836121698a8a63ffffffff61245316565b9063ffffffff6124d716565b61217d61272a565b6040805160208101909152825181906121a490670de0b6b3a764000063ffffffff6124b516565b905292915050565b6000610ade838360000151670de0b6b3a7640000612106565b604051600160e01b6370a082310281526000906001600160a01b038416906370a08231906121f7908590600401613638565b60206040518083038186803b15801561220f57600080fd5b505afa158015612223573d6000803e3d6000fd5b505050506040513d601f19601f82011682018060405250610ade9190810190612ed6565b61224f61273d565b61225761273d565b61225f61273d565b5060408051808201909152600181526020858101516001600160801b03169082015261228961273d565b50604080518082019091526000815285516001600160801b031660208201526122b061273d565b6122ba8387611881565b90506122c461273d565b6122ce8388611881565b91989197509095505050505050565b6122e561273d565b610ade836122f284612611565b612638565b6060808260405160200161230b919061359d565b60408051601f19818403018152919052905060205b80156123685781516000199091019082908290811061233b57fe5b01602001516001600160f81b031960f891821c90911b16156123635760010181529050610789565b612320565b505060408051600081526020810190915292915050565b60008260000151828151811061239157fe5b6020026020010151604001516000015160001415905092915050565b515190565b6123ba61273d565b6123c261273d565b6123d385858563ffffffff61166216565b90506123de81611d21565b156123f3576123eb6126ca565b91505061165b565b6123fb612754565b61240b868563ffffffff6116c816565b90506124178282611881565b9695505050505050565b602001511590565b61243161272a565b825180518390811061243f57fe5b602002602001015160400151905092915050565b60008261246257506000610ae1565b8282028284828161246f57fe5b0414610ade57600080fd5b61248261272a565b506040805160208101909152670de0b6b3a7640000815290565b6000610ade83670de0b6b3a76400008460000151612106565b600082820183811015610ade57600080fd5b60006124d2426126ea565b905090565b6000828211156124e657600080fd5b50900390565b6000816107866001600160601b0382168214600160e31b6309ac2e8d027f556e73616665206361737420746f2075696e7439360000000000000000000000611c67565b60608161255757506040805180820190915260018152600160fc1b6003026020820152610789565b8160005b811561256f57600101600a8204915061255b565b6060816040519080825280601f01601f19166020018201604052801561259c576020820181803883390190505b508593509050815b80156125e65760001901600a840660300160f81b8282815181106125c457fe5b60200101906001600160f81b031916908160001a905350600a840493506125a4565b50949350505050565b60008082116125fd57600080fd5b600082848161260857fe5b04949350505050565b61261961273d565b5060408051808201909152815115815260208083015190820152919050565b61264061273d565b61264861273d565b825184511515901515141561267b578351151581526020808501519084015161267191906124b5565b6020820152610ade565b82602001518460200151106126a4578351151581526020808501519084015161267191906124d7565b825115158152602080840151908501516126be91906124d7565b60208201529392505050565b6126d261273d565b50604080518082019091526000808252602082015290565b60008161078663ffffffff82168214600160e31b6309ac2e8d027f556e73616665206361737420746f2075696e7433320000000000000000000000611c67565b6040518060200160405280600081525090565b604080518082019091526000808252602082015290565b604080516060810182526000808252602082018190529181019190915290565b604051806080016040528061278761272a565b815260200161279461272a565b81526020016127a161272a565b81526020016127ae61272a565b905290565b60405180610160016040528060006001600160a01b031681526020016127d761273d565b81526020016127e4612754565b815260006020820181905260408201526060016127ff61272a565b815260200161280c61272a565b8152600060209091015290565b6040805160c081018252600080825260208201819052918101829052606081018290526080810182905260a081019190915290565b6040518060200160405280606081525090565b60408051606081018252600080825260208201529081016127ae61272a565b6000610ade82356139c5565b600082601f83011261289d57600080fd5b81356128b06128ab82613969565b613942565b81815260209384019390925082018360005b838110156128ee57813586016128d88882612a5b565b84525060209283019291909101906001016128c2565b5050505092915050565b600082601f83011261290957600080fd5b81356129176128ab82613969565b9150818183526020840193506020810190508385604084028201111561293c57600080fd5b60005b838110156128ee57816129528882612bd9565b8452506020909201916040919091019060010161293f565b600082601f83011261297b57600080fd5b81356129896128ab82613969565b915081818352602084019350602081019050838560408402820111156129ae57600080fd5b60005b838110156128ee57816129c48882612c20565b845250602090920191604091909101906001016129b1565b6000610ade82356139d0565b600082601f8301126129f957600080fd5b8135612a076128ab8261398a565b91508082526020830160208301858383011115612a2357600080fd5b612a2e838284613a9e565b50505092915050565b6000610ade8235613a54565b6000610ade8235613a5f565b6000610ade8235613a6e565b60006101608284031215612a6e57600080fd5b612a79610100613942565b90506000612a878484612a43565b8252506020612a9884848301612c85565b6020830152506040612aac84828501612b37565b60408301525060c0612ac084828501612c85565b60608301525060e0612ad484828501612c85565b608083015250610100612ae984828501612880565b60a083015250610120612afe84828501612c85565b60c08301525061014082013567ffffffffffffffff811115612b1f57600080fd5b612b2b848285016129e8565b60e08301525092915050565b600060808284031215612b4957600080fd5b612b536080613942565b90506000612b6184846129dc565b8252506020612b7284848301612a4f565b6020830152506040612b8684828501612a4f565b6040830152506060612b9a84828501612c85565b60608301525092915050565b600060208284031215612bb857600080fd5b612bc26020613942565b90506000612bd08484612c85565b82525092915050565b600060408284031215612beb57600080fd5b612bf56040613942565b90506000612c038484612880565b8252506020612c1484848301612c85565b60208301525092915050565b600060408284031215612c3257600080fd5b612c3c6040613942565b90506000612c4a8484612880565b8252506020612c14848483016129dc565b600060208284031215612c6d57600080fd5b612c776020613942565b90506000612bd08484612c91565b6000610ade82356139ef565b6000610ade82516139ef565b600060208284031215612caf57600080fd5b60006118798484612880565b60008060408385031215612cce57600080fd5b6000612cda8585612880565b9250506020612ceb85828601612880565b9150509250929050565b60008060408385031215612d0857600080fd5b6000612d148585612880565b9250506020612ceb858286016129dc565b600080600080600060a08688031215612d3d57600080fd5b6000612d498888612880565b9550506020612d5a88828901612a37565b9450506040612d6b88828901612a37565b9350506060612d7c88828901612ba6565b9250506080612d8d88828901612ba6565b9150509295509295909350565b60008060408385031215612dad57600080fd5b823567ffffffffffffffff811115612dc457600080fd5b612dd0858286016128f8565b925050602083013567ffffffffffffffff811115612ded57600080fd5b612ceb8582860161288c565b600060208284031215612e0b57600080fd5b813567ffffffffffffffff811115612e2257600080fd5b6118798482850161296a565b600060208284031215612e4057600080fd5b60006118798484612ba6565b600060408284031215612e5e57600080fd5b60006118798484612bd9565b60008060608385031215612e7d57600080fd5b6000612e898585612bd9565b9250506040612ceb85828601612c85565b600060208284031215612eac57600080fd5b60006118798484612c5b565b600060208284031215612eca57600080fd5b60006118798484612c85565b600060208284031215612ee857600080fd5b60006118798484612c91565b60008060408385031215612f0757600080fd5b6000612cda8585612c85565b60008060408385031215612f2657600080fd5b6000612d148585612c85565b60008060408385031215612f4557600080fd5b6000612f518585612c85565b9250506020612ceb85828601612a37565b60008060408385031215612f7557600080fd5b6000612f818585612c85565b9250506020612ceb85828601612ba6565b60008060408385031215612fa557600080fd5b6000612fb18585612c85565b9250506020612ceb85828601612c85565b6000612fce838361300e565b505060200190565b6000610ade838361327a565b6000612fee83836133ae565b505060400190565b6000612fee838361346c565b6000612fee838361355f565b613017816139c5565b82525050565b6000613028826139b8565b61303281856139bc565b935061303d836139b2565b60005b8281101561306857613053868351612fc2565b955061305e826139b2565b9150600101613040565b5093949350505050565b600061307d826139b8565b61308781856139bc565b935083602082028501613099856139b2565b60005b848110156130d05783830388526130b4838351612fd6565b92506130bf826139b2565b60209890980197915060010161309c565b50909695505050505050565b60006130e7826139b8565b6130f181856139bc565b93506130fc836139b2565b60005b8281101561306857613112868351612fe2565b955061311d826139b2565b91506001016130ff565b6000613132826139b8565b61313c81856139bc565b9350613147836139b2565b60005b828110156130685761315d868351612ff6565b9550613168826139b2565b915060010161314a565b600061317d826139b8565b61318781856139bc565b9350613192836139b2565b60005b82811015613068576131a8868351613002565b95506131b3826139b2565b9150600101613195565b613017816139d0565b6130176131d2826139d5565b6139ef565b6130176131d2826139e2565b6130176131d2826139ef565b60006131fa826139b8565b6132048185610789565b9350613214818560208601613aaa565b9290920192915050565b6000613229826139b8565b61323381856139bc565b9350613243818560208601613aaa565b61324c81613ad6565b9093019392505050565b61301781613a54565b61301781613a7d565b61301781613a88565b61301781613a93565b805160009061016084019061328f858261325f565b5060208301516132a26020860182613579565b5060408301516132b5604086018261331c565b5060608301516132c860c0860182613579565b5060808301516132db60e0860182613579565b5060a08301516132ef61010086018261300e565b5060c0830151613303610120860182613579565b5060e0830151848203610140860152611778828261321e565b8051608083019061332d84826131bd565b5060208201516133406020850182613268565b5060408201516133536040850182613268565b5060608201516121006060850182613579565b805160208301906121008482613579565b805160608301906133888482613594565b50602082015161339b6020850182613594565b5060408201516121006040850182613582565b805160408301906133bf848261300e565b5060208201516121006020850182613579565b80516101608301906133e4848261300e565b5060208201516133f7602085018261354e565b50604082015161340a6060850182613377565b50606082015161341d60c0850182613256565b50608082015161343060e0850182613256565b5060a0820151613444610100850182613366565b5060c0820151613458610120850182613366565b5060e08201516121006101408501826131bd565b8051604083019061347d84826131bd565b5060208201516121006020850182613570565b805160c08301906134a1848261358b565b5060208201516134b4602085018261358b565b5060408201516134c7604085018261358b565b5060608201516134da606085018261358b565b5060808201516134ed608085018261358b565b5060a082015161210060a0850182613570565b805160808301906135118482613366565b5060208201516135246020850182613366565b5060408201516135376040850182613366565b5060608201516121006060850182613366565b9052565b8051604083019061347d8482613570565b805160408301906133bf84826131bd565b61301781613a1a565b613017816139ef565b61301781613a32565b61301781613a3b565b61301781613a48565b60006135a982846131e3565b50602001919050565b60006135be82866131ef565b91506135ca82856131d7565b60028201915061177882846131ef565b60006135e682896131ef565b91506135f282886131d7565b60028201915061360282876131ef565b915061360e82866131d7565b60028201915061361e82856131ef565b915061362a82846131c6565b506001019695505050505050565b60208101610ae1828461300e565b60408101613654828561300e565b61165b60208301846131bd565b6060810161366f828661300e565b61367c6020830185613579565b6118796040830184613579565b6060808252810161369a818661301d565b905081810360208301526136ae8185613127565b905081810360408301526117788184613172565b60208101610ae182846131bd565b60208101610ae18284613256565b60208101610ae18284613271565b60208082528101610ade818461321e565b60208101610ae18284613366565b60608101610ae18284613377565b6101608101610ae182846133d2565b610200810161373782876133d2565b613745610160830186613377565b6137536101c0830185613366565b6117786101e0830184613366565b60408101610ae1828461346c565b60c08101610ae18284613490565b60808101610ae18284613500565b60608101613799828661354a565b6137a6602083018561300e565b611879604083018461300e565b606081016137c1828661354a565b6137ce602083018561300e565b61187960408301846131bd565b60c081016137e9828961354a565b6137f6602083018861300e565b6138036040830187613256565b6138106060830186613256565b61381d6080830185613366565b61382a60a0830184613366565b979650505050505050565b60608101613843828661354a565b818103602083015261385581856130dc565b905081810360408301526117788184613072565b60408101613877828561354a565b61165b6020830184613366565b60608101613892828661354a565b6137a66020830185613579565b606081016138ad828661354a565b6137ce6020830185613579565b606081016138c8828661354a565b6138d56020830185613579565b6118796040830184613256565b606081016138f0828661354a565b6138fd6020830185613579565b6118796040830184613366565b60408101610ae1828461354e565b604081016138778285613366565b60408101610ae1828461355f565b60208101610ae18284613579565b60405181810167ffffffffffffffff8111828210171561396157600080fd5b604052919050565b600067ffffffffffffffff82111561398057600080fd5b5060209081020190565b600067ffffffffffffffff8211156139a157600080fd5b506020601f91909101601f19160190565b60200190565b5190565b90815260200190565b600061078682613a26565b151590565b6001600160f81b03191690565b6001600160f01b03191690565b90565b6000600982106139fe57fe5b5090565b6000600282106139fe57fe5b6000600382106139fe57fe5b6001600160801b031690565b6001600160a01b031690565b63ffffffff1690565b67ffffffffffffffff1690565b6001600160601b031690565b6000610786826139c5565b6000600982106139fe57600080fd5b6000600282106139fe57600080fd5b6000610786826139f2565b600061078682613a02565b600061078682613a0e565b82818337506000910152565b60005b83811015613ac5578181015183820152602001613aad565b838111156121005750506000910152565b601f01601f19169056fea265627a7a723058200429bb916c14d387fb77daee0b3116f5ea589b40222582840ff0a03bb7f37bc96c6578706572696d656e74616cf50037",
  "language": "Solidity",
  "natspec": {
    "author": "dYdX * Main contract that inherits from other contracts",
    "methods": {
      "getAccountBalances((address,uint256))": {
        "notice": "Get an account's summary for each market.",
        "params": {
          "account": "The account to query"
        },
        "return": "The following values:                  - The ERC20 token address for each market                  - The account's principal value for each market                  - The account's (supplied or borrowed) number of tokens for each market"
      },
      "getAccountPar((address,uint256),uint256)": {
        "notice": "Get the principal value for a particular account and market.",
        "params": {
          "account": "The account to query",
          "marketId": "The market to query"
        },
        "return": "The principal value"
      },
      "getAccountStatus((address,uint256))": {
        "notice": "Get the status of an account (Normal, Liquidating, or Vaporizing).",
        "params": {
          "account": "The account to query"
        },
        "return": "The account's status"
      },
      "getAccountValues((address,uint256))": {
        "notice": "Get the total supplied and total borrowed value of an account.",
        "params": {
          "account": "The account to query"
        },
        "return": "The following values:                  - The supplied value of the account                  - The borrowed value of the account"
      },
      "getAccountWei((address,uint256),uint256)": {
        "notice": "Get the token balance for a particular account and market.",
        "params": {
          "account": "The account to query",
          "marketId": "The market to query"
        },
        "return": "The token amount"
      },
      "getAdjustedAccountValues((address,uint256))": {
        "notice": "Get the total supplied and total borrowed values of an account adjusted by the marginPremium of each market. Supplied values are divided by (1 + marginPremium) for each market and borrowed values are multiplied by (1 + marginPremium) for each market. Comparing these adjusted values gives the margin-ratio of the account which will be compared to the global margin-ratio when determining if the account can be liquidated.",
        "params": {
          "account": "The account to query"
        },
        "return": "The following values:                  - The supplied value of the account (adjusted for marginPremium)                  - The borrowed value of the account (adjusted for marginPremium)"
      },
      "getEarningsRate()": {
        "notice": "Get the global earnings-rate variable that determines what percentage of the interest paid by borrowers gets passed-on to suppliers.",
        "return": "The global earnings rate"
      },
      "getIsGlobalOperator(address)": {
        "notice": "Return true if a particular address is approved as a global operator. Such an address can act on any account as if it were the operator's own.",
        "params": {
          "operator": "The address to query"
        },
        "return": "True if operator is a global operator"
      },
      "getIsLocalOperator(address,address)": {
        "notice": "Return true if a particular address is approved as an operator for an owner's accounts. Approved operators can act on the accounts of the owner as if it were the operator's own.",
        "params": {
          "operator": "The possible operator",
          "owner": "The owner of the accounts"
        },
        "return": "True if operator is approved for owner's accounts"
      },
      "getLiquidationSpread()": {
        "notice": "Get the global liquidation spread. This is the spread between oracle prices that incentivizes the liquidation of risky positions.",
        "return": "The global liquidation spread"
      },
      "getLiquidationSpreadForPair(uint256,uint256)": {
        "notice": "Get the adjusted liquidation spread for some market pair. This is equal to the global liquidation spread multiplied by (1 + spreadPremium) for each of the two markets.",
        "params": {
          "heldMarketId": "The market for which the account has collateral",
          "owedMarketId": "The market for which the account has borrowed tokens"
        },
        "return": "The adjusted liquidation spread"
      },
      "getMarginRatio()": {
        "notice": "Get the global minimum margin-ratio that every position must maintain to prevent being liquidated.",
        "return": "The global margin-ratio"
      },
      "getMarket(uint256)": {
        "notice": "Get basic information about a particular market.",
        "params": {
          "marketId": "The market to query"
        },
        "return": "A Storage.Market struct with the current state of the market"
      },
      "getMarketCachedIndex(uint256)": {
        "notice": "Get the most recently cached interest index for a market.",
        "params": {
          "marketId": "The market to query"
        },
        "return": "The most recent index"
      },
      "getMarketCurrentIndex(uint256)": {
        "notice": "Get the interest index for a market if it were to be updated right now.",
        "params": {
          "marketId": "The market to query"
        },
        "return": "The estimated current index"
      },
      "getMarketInterestRate(uint256)": {
        "notice": "Get the current borrower interest rate for a market.",
        "params": {
          "marketId": "The market to query"
        },
        "return": "The current interest rate"
      },
      "getMarketInterestSetter(uint256)": {
        "notice": "Get the interest-setter address for a market.",
        "params": {
          "marketId": "The market to query"
        },
        "return": "The interest-setter address"
      },
      "getMarketIsClosing(uint256)": {
        "notice": "Return true if a particular market is in closing mode. Additional borrows cannot be taken from a market that is closing.",
        "params": {
          "marketId": "The market to query"
        },
        "return": "True if the market is closing"
      },
      "getMarketMarginPremium(uint256)": {
        "notice": "Get the margin premium for a market. A margin premium makes it so that any positions that include the market require a higher collateralization to avoid being liquidated.",
        "params": {
          "marketId": "The market to query"
        },
        "return": "The market's margin premium"
      },
      "getMarketPrice(uint256)": {
        "notice": "Get the price of the token for a market.",
        "params": {
          "marketId": "The market to query"
        },
        "return": "The price of each atomic unit of the token"
      },
      "getMarketPriceOracle(uint256)": {
        "notice": "Get the price oracle address for a market.",
        "params": {
          "marketId": "The market to query"
        },
        "return": "The price oracle address"
      },
      "getMarketSpreadPremium(uint256)": {
        "notice": "Get the spread premium for a market. A spread premium makes it so that any liquidations that include the market have a higher spread than the global default.",
        "params": {
          "marketId": "The market to query"
        },
        "return": "The market's spread premium"
      },
      "getMarketTokenAddress(uint256)": {
        "notice": "Get the ERC20 token address for a market.",
        "params": {
          "marketId": "The market to query"
        },
        "return": "The token address"
      },
      "getMarketTotalPar(uint256)": {
        "notice": "Get the total principal amounts (borrowed and supplied) for a market.",
        "params": {
          "marketId": "The market to query"
        },
        "return": "The total principal amounts"
      },
      "getMarketWithInfo(uint256)": {
        "notice": "Get comprehensive information about a particular market.",
        "params": {
          "marketId": "The market to query"
        },
        "return": "A tuple containing the values:                   - A Storage.Market struct with the current state of the market                   - The current estimated interest index                   - The current token price                   - The current market interest rate"
      },
      "getMinBorrowedValue()": {
        "notice": "Get the global minimum-borrow value which is the minimum value of any new borrow on Solo.",
        "return": "The global minimum borrow value"
      },
      "getNumExcessTokens(uint256)": {
        "notice": "Get the number of excess tokens for a market. The number of excess tokens is calculated by taking the current number of tokens held in Solo, adding the number of tokens owed to Solo by borrowers, and subtracting the number of tokens owed to suppliers by Solo.",
        "params": {
          "marketId": "The market to query"
        },
        "return": "The number of excess tokens"
      },
      "getNumMarkets()": {
        "notice": "Get the total number of markets.",
        "return": "The number of markets"
      },
      "getRiskLimits()": {
        "notice": "Get all risk parameter limits in a single struct. These are the maximum limits at which the risk parameters can be set by the admin of Solo.",
        "return": "All global risk parameter limnits"
      },
      "getRiskParams()": {
        "notice": "Get all risk parameters in a single struct.",
        "return": "All global risk parameters"
      },
      "isOwner()": {
        "return": "true if `msg.sender` is the owner of the contract."
      },
      "operate((address,uint256)[],(uint8,uint256,(bool,uint8,uint8,uint256),uint256,uint256,address,uint256,bytes)[])": {
        "notice": "The main entry-point to Solo that allows users and contracts to manage accounts. Take one or more actions on one or more accounts. The msg.sender must be the owner or operator of all accounts except for those being liquidated, vaporized, or traded with. One call to operate() is considered a singular \"operation\". Account collateralization is ensured only after the completion of the entire operation.",
        "params": {
          "accounts": "A list of all accounts that will be used in this operation. Cannot contain                  duplicates. In each action, the relevant account will be referred-to by its                  index in the list.",
          "actions": "An ordered list of all actions that will be taken in this operation. The                  actions will be processed in order."
        }
      },
      "owner()": {
        "return": "the address of the owner."
      },
      "ownerAddMarket(address,address,address,(uint256),(uint256))": {
        "notice": "Add a new market to Solo. Must be for a previously-unsupported ERC20 token."
      },
      "ownerSetEarningsRate((uint256))": {
        "notice": "Set the global earnings-rate variable that determines what percentage of the interest paid by borrowers gets passed-on to suppliers."
      },
      "ownerSetGlobalOperator(address,bool)": {
        "notice": "Approve (or disapprove) an address that is permissioned to be an operator for all accounts in Solo. Intended only to approve smart-contracts."
      },
      "ownerSetInterestSetter(uint256,address)": {
        "notice": "Set the interest-setter for a market."
      },
      "ownerSetIsClosing(uint256,bool)": {
        "notice": "Set (or unset) the status of a market to \"closing\". The borrowedValue of a market cannot increase while its status is \"closing\"."
      },
      "ownerSetLiquidationSpread((uint256))": {
        "notice": "Set the global liquidation spread. This is the spread between oracle prices that incentivizes the liquidation of risky positions."
      },
      "ownerSetMarginPremium(uint256,(uint256))": {
        "notice": "Set a premium on the minimum margin-ratio for a market. This makes it so that any positions that include this market require a higher collateralization to avoid being liquidated."
      },
      "ownerSetMarginRatio((uint256))": {
        "notice": "Set the global minimum margin-ratio that every position must maintain to prevent being liquidated."
      },
      "ownerSetMinBorrowedValue((uint256))": {
        "notice": "Set the global minimum-borrow value which is the minimum value of any new borrow on Solo."
      },
      "ownerSetPriceOracle(uint256,address)": {
        "notice": "Set the price oracle for a market."
      },
      "ownerSetSpreadPremium(uint256,(uint256))": {
        "notice": "Set a premium on the liquidation spread for a market. This makes it so that any liquidations that include this market have a higher spread than the global default."
      },
      "ownerWithdrawExcessTokens(uint256,address)": {
        "notice": "Withdraw an ERC20 token for which there is an associated market. Only excess tokens can be withdrawn. The number of excess tokens is calculated by taking the current number of tokens held in Solo, adding the number of tokens owed to Solo by borrowers, and subtracting the number of tokens owed to suppliers by Solo."
      },
      "ownerWithdrawUnsupportedTokens(address,address)": {
        "notice": "Withdraw an ERC20 token for which there is no associated market."
      },
      "renounceOwnership()": {
        "details": "Allows the current owner to relinquish control of the contract.",
        "notice": "Renouncing to ownership will leave the contract without an owner. It will not be possible to call the functions with the `onlyOwner` modifier anymore."
      },
      "setOperators((address,bool)[])": {
        "notice": "Approves/disapproves any number of operators. An operator is an external address that has the same permissions to manipulate an account as the owner of the account. Operators are simply addresses and therefore may either be externally-owned Ethereum accounts OR smart contracts.     * Operators are also able to act as AutoTrader contracts on behalf of the account owner if the operator is a smart contract and implements the IAutoTrader interface.",
        "params": {
          "args": "A list of OperatorArgs which have an address and a boolean. The boolean value              denotes whether to approve (true) or revoke approval (false) for that address."
        }
      },
      "transferOwnership(address)": {
        "details": "Allows the current owner to transfer control of the contract to a newOwner.",
        "params": {
          "newOwner": "The address to transfer ownership to."
        }
      }
    },
    "title": "SoloMargin"
  },
  "opcodes": "PUSH1 0x80 PUSH1 0x40 MSTORE CALLVALUE DUP1 ISZERO PUSH2 0x10 JUMPI PUSH1 0x0 DUP1 REVERT JUMPDEST POP PUSH1 0x4 CALLDATASIZE LT PUSH2 0x2BB JUMPI PUSH1 0x0 CALLDATALOAD PUSH1 0xE0 SHR DUP1 PUSH4 0x8928378E GT PUSH2 0x182 JUMPI DUP1 PUSH4 0xD5ECF7C5 GT PUSH2 0xE9 JUMPI DUP1 PUSH4 0xEB44FDD3 GT PUSH2 0xA2 JUMPI DUP1 PUSH4 0xF2FDE38B GT PUSH2 0x7C JUMPI DUP1 PUSH4 0xF2FDE38B EQ PUSH2 0x68A JUMPI DUP1 PUSH4 0xF9416052 EQ PUSH2 0x69D JUMPI DUP1 PUSH4 0xFD04B606 EQ PUSH2 0x6B0 JUMPI DUP1 PUSH4 0xFD47EDA6 EQ PUSH2 0x6C3 JUMPI PUSH2 0x2BB JUMP JUMPDEST DUP1 PUSH4 0xEB44FDD3 EQ PUSH2 0x644 JUMPI DUP1 PUSH4 0xEF6957D0 EQ PUSH2 0x664 JUMPI DUP1 PUSH4 0xF2901AE2 EQ PUSH2 0x677 JUMPI PUSH2 0x2BB JUMP JUMPDEST DUP1 PUSH4 0xD5ECF7C5 EQ PUSH2 0x5CE JUMPI DUP1 PUSH4 0xDEEC053D EQ PUSH2 0x5E1 JUMPI DUP1 PUSH4 0xE51BFCB4 EQ PUSH2 0x5F4 JUMPI DUP1 PUSH4 0xE5520228 EQ PUSH2 0x614 JUMPI DUP1 PUSH4 0xE8E72F75 EQ PUSH2 0x61C JUMPI DUP1 PUSH4 0xEB1C6E6B EQ PUSH2 0x62F JUMPI PUSH2 0x2BB JUMP JUMPDEST DUP1 PUSH4 0xB548B892 GT PUSH2 0x13B JUMPI DUP1 PUSH4 0xB548B892 EQ PUSH2 0x53D JUMPI DUP1 PUSH4 0xC0BB72B7 EQ PUSH2 0x560 JUMPI DUP1 PUSH4 0xC1460942 EQ PUSH2 0x573 JUMPI DUP1 PUSH4 0xC190C2EC EQ PUSH2 0x57B JUMPI DUP1 PUSH4 0xCB04A34C EQ PUSH2 0x59B JUMPI DUP1 PUSH4 0xD24C48BC EQ PUSH2 0x5BB JUMPI PUSH2 0x2BB JUMP JUMPDEST DUP1 PUSH4 0x8928378E EQ PUSH2 0x4E1 JUMPI DUP1 PUSH4 0x8DA5CB5B EQ PUSH2 0x4F4 JUMPI DUP1 PUSH4 0x8F32D59B EQ PUSH2 0x4FC JUMPI DUP1 PUSH4 0x8F6BC659 EQ PUSH2 0x504 JUMPI DUP1 PUSH4 0x982F323C EQ PUSH2 0x517 JUMPI DUP1 PUSH4 0xA67A6A45 EQ PUSH2 0x52A JUMPI PUSH2 0x2BB JUMP JUMPDEST DUP1 PUSH4 0x387A498A GT PUSH2 0x226 JUMPI DUP1 PUSH4 0x5AC7D17C GT PUSH2 0x1DF JUMPI DUP1 PUSH4 0x5AC7D17C EQ PUSH2 0x474 JUMPI DUP1 PUSH4 0x69794795 EQ PUSH2 0x487 JUMPI DUP1 PUSH4 0x6A8194E7 EQ PUSH2 0x49C JUMPI DUP1 PUSH4 0x715018A6 EQ PUSH2 0x4BE JUMPI DUP1 PUSH4 0x7E9EAF41 EQ PUSH2 0x4C6 JUMPI DUP1 PUSH4 0x85B53FC8 EQ PUSH2 0x4CE JUMPI PUSH2 0x2BB JUMP JUMPDEST DUP1 PUSH4 0x387A498A EQ PUSH2 0x3F3 JUMPI DUP1 PUSH4 0x3A031BF0 EQ PUSH2 0x406 JUMPI DUP1 PUSH4 0x47D1B53C EQ PUSH2 0x419 JUMPI DUP1 PUSH4 0x4BE87414 EQ PUSH2 0x439 JUMPI DUP1 PUSH4 0x4F3C1542 EQ PUSH2 0x44C JUMPI DUP1 PUSH4 0x56EA84B2 EQ PUSH2 0x454 JUMPI PUSH2 0x2BB JUMP JUMPDEST DUP1 PUSH4 0x197F0F05 GT PUSH2 0x278 JUMPI DUP1 PUSH4 0x197F0F05 EQ PUSH2 0x372 JUMPI DUP1 PUSH4 0x1A7777BB EQ PUSH2 0x385 JUMPI DUP1 PUSH4 0x295C39A5 EQ PUSH2 0x3A5 JUMPI DUP1 PUSH4 0x2A560845 EQ PUSH2 0x3BA JUMPI DUP1 PUSH4 0x2E822AF3 EQ PUSH2 0x3CD JUMPI DUP1 PUSH4 0x3063BCE2 EQ PUSH2 0x3E0 JUMPI PUSH2 0x2BB JUMP JUMPDEST DUP1 PUSH4 0x42069D6 EQ PUSH2 0x2C0 JUMPI DUP1 PUSH4 0x52F72D7 EQ PUSH2 0x2D5 JUMPI DUP1 PUSH4 0x62BD3E9 EQ PUSH2 0x2FE JUMPI DUP1 PUSH4 0x121FB72F EQ PUSH2 0x31E JUMPI DUP1 PUSH4 0x124F914C EQ PUSH2 0x331 JUMPI DUP1 PUSH4 0x13368364 EQ PUSH2 0x352 JUMPI JUMPDEST PUSH1 0x0 DUP1 REVERT JUMPDEST PUSH2 0x2D3 PUSH2 0x2CE CALLDATASIZE PUSH1 0x4 PUSH2 0x2F62 JUMP JUMPDEST PUSH2 0x6D6 JUMP JUMPDEST STOP JUMPDEST PUSH2 0x2E8 PUSH2 0x2E3 CALLDATASIZE PUSH1 0x4 PUSH2 0x2C9D JUMP JUMPDEST PUSH2 0x774 JUMP JUMPDEST PUSH1 0x40 MLOAD PUSH2 0x2F5 SWAP2 SWAP1 PUSH2 0x36C2 JUMP JUMPDEST PUSH1 0x40 MLOAD DUP1 SWAP2 SUB SWAP1 RETURN JUMPDEST PUSH2 0x311 PUSH2 0x30C CALLDATASIZE PUSH1 0x4 PUSH2 0x2EB8 JUMP JUMPDEST PUSH2 0x78E JUMP JUMPDEST PUSH1 0x40 MLOAD PUSH2 0x2F5 SWAP2 SWAP1 PUSH2 0x3638 JUMP JUMPDEST PUSH2 0x2D3 PUSH2 0x32C CALLDATASIZE PUSH1 0x4 PUSH2 0x2F32 JUMP JUMPDEST PUSH2 0x7AA JUMP JUMPDEST PUSH2 0x344 PUSH2 0x33F CALLDATASIZE PUSH1 0x4 PUSH2 0x2E4C JUMP JUMPDEST PUSH2 0x805 JUMP JUMPDEST PUSH1 0x40 MLOAD PUSH2 0x2F5 SWAP3 SWAP2 SWAP1 PUSH2 0x3918 JUMP JUMPDEST PUSH2 0x365 PUSH2 0x360 CALLDATASIZE PUSH1 0x4 PUSH2 0x2EB8 JUMP JUMPDEST PUSH2 0x829 JUMP JUMPDEST PUSH1 0x40 MLOAD PUSH2 0x2F5 SWAP2 SWAP1 PUSH2 0x36D0 JUMP JUMPDEST PUSH2 0x365 PUSH2 0x380 CALLDATASIZE PUSH1 0x4 PUSH2 0x2EB8 JUMP JUMPDEST PUSH2 0x853 JUMP JUMPDEST PUSH2 0x398 PUSH2 0x393 CALLDATASIZE PUSH1 0x4 PUSH2 0x2EB8 JUMP JUMPDEST PUSH2 0x87D JUMP JUMPDEST PUSH1 0x40 MLOAD PUSH2 0x2F5 SWAP2 SWAP1 PUSH2 0x36FD JUMP JUMPDEST PUSH2 0x3AD PUSH2 0x8B4 JUMP JUMPDEST PUSH1 0x40 MLOAD PUSH2 0x2F5 SWAP2 SWAP1 PUSH2 0x3934 JUMP JUMPDEST PUSH2 0x3AD PUSH2 0x3C8 CALLDATASIZE PUSH1 0x4 PUSH2 0x2CBB JUMP JUMPDEST PUSH2 0x8BA JUMP JUMPDEST PUSH2 0x2D3 PUSH2 0x3DB CALLDATASIZE PUSH1 0x4 PUSH2 0x2E2E JUMP JUMPDEST PUSH2 0x97E JUMP JUMPDEST PUSH2 0x2D3 PUSH2 0x3EE CALLDATASIZE PUSH1 0x4 PUSH2 0x2E2E JUMP JUMPDEST PUSH2 0xA19 JUMP JUMPDEST PUSH2 0x2D3 PUSH2 0x401 CALLDATASIZE PUSH1 0x4 PUSH2 0x2E2E JUMP JUMPDEST PUSH2 0xA72 JUMP JUMPDEST PUSH2 0x2E8 PUSH2 0x414 CALLDATASIZE PUSH1 0x4 PUSH2 0x2CBB JUMP JUMPDEST PUSH2 0xACB JUMP JUMPDEST PUSH2 0x42C PUSH2 0x427 CALLDATASIZE PUSH1 0x4 PUSH2 0x2E6A JUMP JUMPDEST PUSH2 0xAE7 JUMP JUMPDEST PUSH1 0x40 MLOAD PUSH2 0x2F5 SWAP2 SWAP1 PUSH2 0x3761 JUMP JUMPDEST PUSH2 0x2D3 PUSH2 0x447 CALLDATASIZE PUSH1 0x4 PUSH2 0x2F62 JUMP JUMPDEST PUSH2 0xB0A JUMP JUMPDEST PUSH2 0x398 PUSH2 0xB65 JUMP JUMPDEST PUSH2 0x467 PUSH2 0x462 CALLDATASIZE PUSH1 0x4 PUSH2 0x2EB8 JUMP JUMPDEST PUSH2 0xB81 JUMP JUMPDEST PUSH1 0x40 MLOAD PUSH2 0x2F5 SWAP2 SWAP1 PUSH2 0x370B JUMP JUMPDEST PUSH2 0x2E8 PUSH2 0x482 CALLDATASIZE PUSH1 0x4 PUSH2 0x2EB8 JUMP JUMPDEST PUSH2 0xBB6 JUMP JUMPDEST PUSH2 0x48F PUSH2 0xBDA JUMP JUMPDEST PUSH1 0x40 MLOAD PUSH2 0x2F5 SWAP2 SWAP1 PUSH2 0x377D JUMP JUMPDEST PUSH2 0x4AF PUSH2 0x4AA CALLDATASIZE PUSH1 0x4 PUSH2 0x2E4C JUMP JUMPDEST PUSH2 0xC36 JUMP JUMPDEST PUSH1 0x40 MLOAD PUSH2 0x2F5 SWAP4 SWAP3 SWAP2 SWAP1 PUSH2 0x3689 JUMP JUMPDEST PUSH2 0x2D3 PUSH2 0xD8A JUMP JUMPDEST PUSH2 0x398 PUSH2 0xDE5 JUMP JUMPDEST PUSH2 0x2D3 PUSH2 0x4DC CALLDATASIZE PUSH1 0x4 PUSH2 0x2DF9 JUMP JUMPDEST PUSH2 0xE01 JUMP JUMPDEST PUSH2 0x398 PUSH2 0x4EF CALLDATASIZE PUSH1 0x4 PUSH2 0x2EB8 JUMP JUMPDEST PUSH2 0xEB9 JUMP JUMPDEST PUSH2 0x311 PUSH2 0xEDB JUMP JUMPDEST PUSH2 0x2E8 PUSH2 0xEEA JUMP JUMPDEST PUSH2 0x3AD PUSH2 0x512 CALLDATASIZE PUSH1 0x4 PUSH2 0x2EF4 JUMP JUMPDEST PUSH2 0xEFB JUMP JUMPDEST PUSH2 0x2D3 PUSH2 0x525 CALLDATASIZE PUSH1 0x4 PUSH2 0x2D25 JUMP JUMPDEST PUSH2 0xF58 JUMP JUMPDEST PUSH2 0x2D3 PUSH2 0x538 CALLDATASIZE PUSH1 0x4 PUSH2 0x2D9A JUMP JUMPDEST PUSH2 0xFFF JUMP JUMPDEST PUSH2 0x550 PUSH2 0x54B CALLDATASIZE PUSH1 0x4 PUSH2 0x2EB8 JUMP JUMPDEST PUSH2 0x1049 JUMP JUMPDEST PUSH1 0x40 MLOAD PUSH2 0x2F5 SWAP5 SWAP4 SWAP3 SWAP2 SWAP1 PUSH2 0x3728 JUMP JUMPDEST PUSH2 0x2D3 PUSH2 0x56E CALLDATASIZE PUSH1 0x4 PUSH2 0x2E2E JUMP JUMPDEST PUSH2 0x10A5 JUMP JUMPDEST PUSH2 0x398 PUSH2 0x10FE JUMP JUMPDEST PUSH2 0x58E PUSH2 0x589 CALLDATASIZE PUSH1 0x4 PUSH2 0x2E6A JUMP JUMPDEST PUSH2 0x111A JUMP JUMPDEST PUSH1 0x40 MLOAD PUSH2 0x2F5 SWAP2 SWAP1 PUSH2 0x3926 JUMP JUMPDEST PUSH2 0x5AE PUSH2 0x5A9 CALLDATASIZE PUSH1 0x4 PUSH2 0x2EB8 JUMP JUMPDEST PUSH2 0x115A JUMP JUMPDEST PUSH1 0x40 MLOAD PUSH2 0x2F5 SWAP2 SWAP1 PUSH2 0x390A JUMP JUMPDEST PUSH2 0x398 PUSH2 0x5C9 CALLDATASIZE PUSH1 0x4 PUSH2 0x2F92 JUMP JUMPDEST PUSH2 0x117C JUMP JUMPDEST PUSH2 0x58E PUSH2 0x5DC CALLDATASIZE PUSH1 0x4 PUSH2 0x2EB8 JUMP JUMPDEST PUSH2 0x11A8 JUMP JUMPDEST PUSH2 0x467 PUSH2 0x5EF CALLDATASIZE PUSH1 0x4 PUSH2 0x2EB8 JUMP JUMPDEST PUSH2 0x11CA JUMP JUMPDEST PUSH2 0x607 PUSH2 0x602 CALLDATASIZE PUSH1 0x4 PUSH2 0x2E4C JUMP JUMPDEST PUSH2 0x11EC JUMP JUMPDEST PUSH1 0x40 MLOAD PUSH2 0x2F5 SWAP2 SWAP1 PUSH2 0x36DE JUMP JUMPDEST PUSH2 0x398 PUSH2 0x11FE JUMP JUMPDEST PUSH2 0x2D3 PUSH2 0x62A CALLDATASIZE PUSH1 0x4 PUSH2 0x2F32 JUMP JUMPDEST PUSH2 0x121A JUMP JUMPDEST PUSH2 0x637 PUSH2 0x1275 JUMP JUMPDEST PUSH1 0x40 MLOAD PUSH2 0x2F5 SWAP2 SWAP1 PUSH2 0x376F JUMP JUMPDEST PUSH2 0x657 PUSH2 0x652 CALLDATASIZE PUSH1 0x4 PUSH2 0x2EB8 JUMP JUMPDEST PUSH2 0x12EC JUMP JUMPDEST PUSH1 0x40 MLOAD PUSH2 0x2F5 SWAP2 SWAP1 PUSH2 0x3719 JUMP JUMPDEST PUSH2 0x2D3 PUSH2 0x672 CALLDATASIZE PUSH1 0x4 PUSH2 0x2F13 JUMP JUMPDEST PUSH2 0x13E5 JUMP JUMPDEST PUSH2 0x2D3 PUSH2 0x685 CALLDATASIZE PUSH1 0x4 PUSH2 0x2CF5 JUMP JUMPDEST PUSH2 0x1440 JUMP JUMPDEST PUSH2 0x2D3 PUSH2 0x698 CALLDATASIZE PUSH1 0x4 PUSH2 0x2C9D JUMP JUMPDEST PUSH2 0x149B JUMP JUMPDEST PUSH2 0x344 PUSH2 0x6AB CALLDATASIZE PUSH1 0x4 PUSH2 0x2E4C JUMP JUMPDEST PUSH2 0x14B8 JUMP JUMPDEST PUSH2 0x398 PUSH2 0x6BE CALLDATASIZE PUSH1 0x4 PUSH2 0x2EB8 JUMP JUMPDEST PUSH2 0x14D3 JUMP JUMPDEST PUSH2 0x398 PUSH2 0x6D1 CALLDATASIZE PUSH1 0x4 PUSH2 0x2EB8 JUMP JUMPDEST PUSH2 0x150A JUMP JUMPDEST PUSH2 0x6DE PUSH2 0xEEA JUMP JUMPDEST PUSH2 0x6E7 JUMPI PUSH1 0x0 DUP1 REVERT JUMPDEST PUSH1 0xC DUP1 SLOAD PUSH1 0x1 ADD SWAP1 DUP2 SWAP1 SSTORE PUSH1 0x40 MLOAD PUSH1 0x1 PUSH1 0xE1 SHL PUSH4 0x442A559F MUL DUP2 MSTORE PUSH20 0x0 SWAP1 PUSH4 0x8854AB3E SWAP1 PUSH2 0x731 SWAP1 PUSH1 0x0 SWAP1 DUP8 SWAP1 DUP8 SWAP1 PUSH1 0x4 ADD PUSH2 0x38E2 JUMP JUMPDEST PUSH1 0x0 PUSH1 0x40 MLOAD DUP1 DUP4 SUB DUP2 DUP7 DUP1 EXTCODESIZE ISZERO DUP1 ISZERO PUSH2 0x749 JUMPI PUSH1 0x0 DUP1 REVERT JUMPDEST POP GAS DELEGATECALL ISZERO DUP1 ISZERO PUSH2 0x75D JUMPI RETURNDATASIZE PUSH1 0x0 DUP1 RETURNDATACOPY RETURNDATASIZE PUSH1 0x0 REVERT JUMPDEST POP POP POP POP PUSH1 0xC SLOAD DUP2 EQ PUSH2 0x76F JUMPI PUSH1 0x0 DUP1 REVERT JUMPDEST POP POP POP JUMP JUMPDEST PUSH1 0x0 PUSH2 0x786 DUP2 DUP4 PUSH4 0xFFFFFFFF PUSH2 0x153F AND JUMP JUMPDEST SWAP1 POP JUMPDEST SWAP2 SWAP1 POP JUMP JUMPDEST PUSH1 0x0 PUSH2 0x799 DUP3 PUSH2 0x1561 JUMP JUMPDEST PUSH2 0x786 PUSH1 0x0 DUP4 PUSH4 0xFFFFFFFF PUSH2 0x1584 AND JUMP JUMPDEST PUSH2 0x7B2 PUSH2 0xEEA JUMP JUMPDEST PUSH2 0x7BB JUMPI PUSH1 0x0 DUP1 REVERT JUMPDEST PUSH1 0xC DUP1 SLOAD PUSH1 0x1 ADD SWAP1 DUP2 SWAP1 SSTORE PUSH1 0x40 MLOAD PUSH1 0x1 PUSH1 0xE3 SHL PUSH4 0x15525C69 MUL DUP2 MSTORE PUSH20 0x0 SWAP1 PUSH4 0xAA92E348 SWAP1 PUSH2 0x731 SWAP1 PUSH1 0x0 SWAP1 DUP8 SWAP1 DUP8 SWAP1 PUSH1 0x4 ADD PUSH2 0x38BA JUMP JUMPDEST PUSH2 0x80D PUSH2 0x272A JUMP JUMPDEST PUSH2 0x815 PUSH2 0x272A JUMP JUMPDEST PUSH2 0x820 DUP4 PUSH1 0x0 PUSH2 0x15A3 JUMP JUMPDEST SWAP2 POP SWAP2 POP SWAP2 POP SWAP2 JUMP JUMPDEST PUSH1 0x0 PUSH2 0x834 DUP3 PUSH2 0x1561 JUMP JUMPDEST POP PUSH1 0x0 SWAP1 DUP2 MSTORE PUSH1 0x1 PUSH1 0x20 MSTORE PUSH1 0x40 SWAP1 KECCAK256 PUSH1 0x3 ADD SLOAD PUSH1 0x1 PUSH1 0x1 PUSH1 0xA0 SHL SUB AND SWAP1 JUMP JUMPDEST PUSH1 0x0 PUSH2 0x85E DUP3 PUSH2 0x1561 JUMP JUMPDEST POP PUSH1 0x0 SWAP1 DUP2 MSTORE PUSH1 0x1 PUSH1 0x20 MSTORE PUSH1 0x40 SWAP1 KECCAK256 PUSH1 0x4 ADD SLOAD PUSH1 0x1 PUSH1 0x1 PUSH1 0xA0 SHL SUB AND SWAP1 JUMP JUMPDEST PUSH2 0x885 PUSH2 0x272A JUMP JUMPDEST PUSH2 0x88E DUP3 PUSH2 0x1561 JUMP JUMPDEST POP PUSH1 0x0 SWAP1 DUP2 MSTORE PUSH1 0x1 PUSH1 0x20 SWAP1 DUP2 MSTORE PUSH1 0x40 SWAP2 DUP3 SWAP1 KECCAK256 DUP3 MLOAD SWAP2 DUP3 ADD SWAP1 SWAP3 MSTORE PUSH1 0x6 SWAP1 SWAP2 ADD SLOAD DUP2 MSTORE SWAP1 JUMP JUMPDEST PUSH1 0x0 SLOAD SWAP1 JUMP JUMPDEST PUSH1 0x0 PUSH2 0x8C4 PUSH2 0xEEA JUMP JUMPDEST PUSH2 0x8CD JUMPI PUSH1 0x0 DUP1 REVERT JUMPDEST PUSH1 0xC DUP1 SLOAD PUSH1 0x1 ADD SWAP1 DUP2 SWAP1 SSTORE PUSH1 0x40 MLOAD PUSH1 0x1 PUSH1 0xE1 SHL PUSH4 0x6E994CC5 MUL DUP2 MSTORE PUSH20 0x0 SWAP1 PUSH4 0xDD32998A SWAP1 PUSH2 0x917 SWAP1 PUSH1 0x0 SWAP1 DUP9 SWAP1 DUP9 SWAP1 PUSH1 0x4 ADD PUSH2 0x378B JUMP JUMPDEST PUSH1 0x20 PUSH1 0x40 MLOAD DUP1 DUP4 SUB DUP2 DUP7 DUP1 EXTCODESIZE ISZERO DUP1 ISZERO PUSH2 0x92F JUMPI PUSH1 0x0 DUP1 REVERT JUMPDEST POP GAS DELEGATECALL ISZERO DUP1 ISZERO PUSH2 0x943 JUMPI RETURNDATASIZE PUSH1 0x0 DUP1 RETURNDATACOPY RETURNDATASIZE PUSH1 0x0 REVERT JUMPDEST POP POP POP POP PUSH1 0x40 MLOAD RETURNDATASIZE PUSH1 0x1F NOT PUSH1 0x1F DUP3 ADD AND DUP3 ADD DUP1 PUSH1 0x40 MSTORE POP PUSH2 0x967 SWAP2 SWAP1 DUP2 ADD SWAP1 PUSH2 0x2ED6 JUMP JUMPDEST SWAP2 POP PUSH1 0xC SLOAD DUP2 EQ PUSH2 0x977 JUMPI PUSH1 0x0 DUP1 REVERT JUMPDEST POP SWAP3 SWAP2 POP POP JUMP JUMPDEST PUSH2 0x986 PUSH2 0xEEA JUMP JUMPDEST PUSH2 0x98F JUMPI PUSH1 0x0 DUP1 REVERT JUMPDEST PUSH1 0xC DUP1 SLOAD PUSH1 0x1 ADD SWAP1 DUP2 SWAP1 SSTORE PUSH1 0x40 MLOAD PUSH1 0x1 PUSH1 0xE2 SHL PUSH4 0x3E72B313 MUL DUP2 MSTORE PUSH20 0x0 SWAP1 PUSH4 0xF9CACC4C SWAP1 PUSH2 0x9D7 SWAP1 PUSH1 0x0 SWAP1 DUP7 SWAP1 PUSH1 0x4 ADD PUSH2 0x3869 JUMP JUMPDEST PUSH1 0x0 PUSH1 0x40 MLOAD DUP1 DUP4 SUB DUP2 DUP7 DUP1 EXTCODESIZE ISZERO DUP1 ISZERO PUSH2 0x9EF JUMPI PUSH1 0x0 DUP1 REVERT JUMPDEST POP GAS DELEGATECALL ISZERO DUP1 ISZERO PUSH2 0xA03 JUMPI RETURNDATASIZE PUSH1 0x0 DUP1 RETURNDATACOPY RETURNDATASIZE PUSH1 0x0 REVERT JUMPDEST POP POP POP POP PUSH1 0xC SLOAD DUP2 EQ PUSH2 0xA15 JUMPI PUSH1 0x0 DUP1 REVERT JUMPDEST POP POP JUMP JUMPDEST PUSH2 0xA21 PUSH2 0xEEA JUMP JUMPDEST PUSH2 0xA2A JUMPI PUSH1 0x0 DUP1 REVERT JUMPDEST PUSH1 0xC DUP1 SLOAD PUSH1 0x1 ADD SWAP1 DUP2 SWAP1 SSTORE PUSH1 0x40 MLOAD PUSH1 0x1 PUSH1 0xE2 SHL PUSH4 0x3D139AF MUL DUP2 MSTORE PUSH20 0x0 SWAP1 PUSH4 0xF44E6BC SWAP1 PUSH2 0x9D7 SWAP1 PUSH1 0x0 SWAP1 DUP7 SWAP1 PUSH1 0x4 ADD PUSH2 0x3869 JUMP JUMPDEST PUSH2 0xA7A PUSH2 0xEEA JUMP JUMPDEST PUSH2 0xA83 JUMPI PUSH1 0x0 DUP1 REVERT JUMPDEST PUSH1 0xC DUP1 SLOAD PUSH1 0x1 ADD SWAP1 DUP2 SWAP1 SSTORE PUSH1 0x40 MLOAD PUSH1 0x1 PUSH1 0xE4 SHL PUSH4 0x311401D MUL DUP2 MSTORE PUSH20 0x0 SWAP1 PUSH4 0x311401D0 SWAP1 PUSH2 0x9D7 SWAP1 PUSH1 0x0 SWAP1 DUP7 SWAP1 PUSH1 0x4 ADD PUSH2 0x3869 JUMP JUMPDEST PUSH1 0x0 PUSH2 0xADE DUP2 DUP5 DUP5 PUSH4 0xFFFFFFFF PUSH2 0x162F AND JUMP JUMPDEST SWAP1 POP JUMPDEST SWAP3 SWAP2 POP POP JUMP JUMPDEST PUSH2 0xAEF PUSH2 0x273D JUMP JUMPDEST PUSH2 0xAF8 DUP3 PUSH2 0x1561 JUMP JUMPDEST PUSH2 0xADE PUSH1 0x0 DUP5 DUP5 PUSH4 0xFFFFFFFF PUSH2 0x1662 AND JUMP JUMPDEST PUSH2 0xB12 PUSH2 0xEEA JUMP JUMPDEST PUSH2 0xB1B JUMPI PUSH1 0x0 DUP1 REVERT JUMPDEST PUSH1 0xC DUP1 SLOAD PUSH1 0x1 ADD SWAP1 DUP2 SWAP1 SSTORE PUSH1 0x40 MLOAD PUSH1 0x1 PUSH1 0xE0 SHL PUSH4 0x7335079B MUL DUP2 MSTORE PUSH20 0x0 SWAP1 PUSH4 0x7335079B SWAP1 PUSH2 0x731 SWAP1 PUSH1 0x0 SWAP1 DUP8 SWAP1 DUP8 SWAP1 PUSH1 0x4 ADD PUSH2 0x38E2 JUMP JUMPDEST PUSH2 0xB6D PUSH2 0x272A JUMP JUMPDEST POP PUSH1 0x40 DUP1 MLOAD PUSH1 0x20 DUP2 ADD SWAP1 SWAP2 MSTORE PUSH1 0x5 SLOAD DUP2 MSTORE SWAP1 JUMP JUMPDEST PUSH2 0xB89 PUSH2 0x2754 JUMP JUMPDEST PUSH2 0xB92 DUP3 PUSH2 0x1561 JUMP JUMPDEST PUSH2 0x786 DUP3 PUSH2 0xBA7 PUSH1 0x0 DUP3 PUSH4 0xFFFFFFFF PUSH2 0x16C8 AND JUMP JUMPDEST PUSH1 0x0 SWAP2 SWAP1 PUSH4 0xFFFFFFFF PUSH2 0x1729 AND JUMP JUMPDEST PUSH1 0x0 PUSH2 0xBC1 DUP3 PUSH2 0x1561 JUMP JUMPDEST POP PUSH1 0x0 SWAP1 DUP2 MSTORE PUSH1 0x1 PUSH1 0x20 MSTORE PUSH1 0x40 SWAP1 KECCAK256 PUSH1 0x7 ADD SLOAD PUSH1 0xFF AND SWAP1 JUMP JUMPDEST PUSH2 0xBE2 PUSH2 0x2774 JUMP JUMPDEST POP PUSH1 0x40 DUP1 MLOAD PUSH1 0xA0 DUP2 ADD DUP3 MSTORE PUSH1 0x5 SLOAD PUSH1 0x80 DUP3 ADD SWAP1 DUP2 MSTORE DUP2 MSTORE DUP2 MLOAD PUSH1 0x20 DUP2 DUP2 ADD DUP5 MSTORE PUSH1 0x6 SLOAD DUP3 MSTORE DUP1 DUP4 ADD SWAP2 SWAP1 SWAP2 MSTORE DUP3 MLOAD DUP1 DUP3 ADD DUP5 MSTORE PUSH1 0x7 SLOAD DUP2 MSTORE DUP3 DUP5 ADD MSTORE DUP3 MLOAD SWAP1 DUP2 ADD SWAP1 SWAP3 MSTORE PUSH1 0x8 SLOAD DUP3 MSTORE PUSH1 0x60 DUP2 ADD SWAP2 SWAP1 SWAP2 MSTORE SWAP1 JUMP JUMPDEST PUSH1 0x60 DUP1 PUSH1 0x60 PUSH1 0x0 DUP1 PUSH1 0x0 ADD SLOAD SWAP1 POP PUSH1 0x60 DUP2 PUSH1 0x40 MLOAD SWAP1 DUP1 DUP3 MSTORE DUP1 PUSH1 0x20 MUL PUSH1 0x20 ADD DUP3 ADD PUSH1 0x40 MSTORE DUP1 ISZERO PUSH2 0xC70 JUMPI DUP2 PUSH1 0x20 ADD PUSH1 0x20 DUP3 MUL DUP1 CODESIZE DUP4 CODECOPY ADD SWAP1 POP JUMPDEST POP SWAP1 POP PUSH1 0x60 DUP3 PUSH1 0x40 MLOAD SWAP1 DUP1 DUP3 MSTORE DUP1 PUSH1 0x20 MUL PUSH1 0x20 ADD DUP3 ADD PUSH1 0x40 MSTORE DUP1 ISZERO PUSH2 0xCAF JUMPI DUP2 PUSH1 0x20 ADD JUMPDEST PUSH2 0xC9C PUSH2 0x273D JUMP JUMPDEST DUP2 MSTORE PUSH1 0x20 ADD SWAP1 PUSH1 0x1 SWAP1 SUB SWAP1 DUP2 PUSH2 0xC94 JUMPI SWAP1 POP JUMPDEST POP SWAP1 POP PUSH1 0x60 DUP4 PUSH1 0x40 MLOAD SWAP1 DUP1 DUP3 MSTORE DUP1 PUSH1 0x20 MUL PUSH1 0x20 ADD DUP3 ADD PUSH1 0x40 MSTORE DUP1 ISZERO PUSH2 0xCEE JUMPI DUP2 PUSH1 0x20 ADD JUMPDEST PUSH2 0xCDB PUSH2 0x273D JUMP JUMPDEST DUP2 MSTORE PUSH1 0x20 ADD SWAP1 PUSH1 0x1 SWAP1 SUB SWAP1 DUP2 PUSH2 0xCD3 JUMPI SWAP1 POP JUMPDEST POP SWAP1 POP PUSH1 0x0 JUMPDEST DUP5 DUP2 LT ISZERO PUSH2 0xD7B JUMPI PUSH2 0xD05 DUP2 PUSH2 0x78E JUMP JUMPDEST DUP5 DUP3 DUP2 MLOAD DUP2 LT PUSH2 0xD11 JUMPI INVALID JUMPDEST PUSH1 0x20 MUL PUSH1 0x20 ADD ADD SWAP1 PUSH1 0x1 PUSH1 0x1 PUSH1 0xA0 SHL SUB AND SWAP1 DUP2 PUSH1 0x1 PUSH1 0x1 PUSH1 0xA0 SHL SUB AND DUP2 MSTORE POP POP PUSH2 0xD3B DUP10 DUP3 PUSH2 0xAE7 JUMP JUMPDEST DUP4 DUP3 DUP2 MLOAD DUP2 LT PUSH2 0xD47 JUMPI INVALID JUMPDEST PUSH1 0x20 MUL PUSH1 0x20 ADD ADD DUP2 SWAP1 MSTORE POP PUSH2 0xD5C DUP10 DUP3 PUSH2 0x111A JUMP JUMPDEST DUP3 DUP3 DUP2 MLOAD DUP2 LT PUSH2 0xD68 JUMPI INVALID JUMPDEST PUSH1 0x20 SWAP1 DUP2 MUL SWAP2 SWAP1 SWAP2 ADD ADD MSTORE PUSH1 0x1 ADD PUSH2 0xCF4 JUMP JUMPDEST POP SWAP2 SWAP8 SWAP1 SWAP7 POP SWAP1 SWAP5 POP SWAP3 POP POP POP JUMP JUMPDEST PUSH2 0xD92 PUSH2 0xEEA JUMP JUMPDEST PUSH2 0xD9B JUMPI PUSH1 0x0 DUP1 REVERT JUMPDEST PUSH1 0xB SLOAD PUSH1 0x40 MLOAD PUSH1 0x0 SWAP2 PUSH1 0x1 PUSH1 0x1 PUSH1 0xA0 SHL SUB AND SWAP1 PUSH32 0x8BE0079C531659141344CD1FD0A4F28419497F9722A3DAAFE3B4186F6B6457E0 SWAP1 DUP4 SWAP1 LOG3 PUSH1 0xB DUP1 SLOAD PUSH1 0x1 PUSH1 0x1 PUSH1 0xA0 SHL SUB NOT AND SWAP1 SSTORE JUMP JUMPDEST PUSH2 0xDED PUSH2 0x272A JUMP JUMPDEST POP PUSH1 0x40 DUP1 MLOAD PUSH1 0x20 DUP2 ADD SWAP1 SWAP2 MSTORE PUSH1 0x8 SLOAD DUP2 MSTORE SWAP1 JUMP JUMPDEST PUSH1 0x0 JUMPDEST DUP2 MLOAD DUP2 LT ISZERO PUSH2 0xA15 JUMPI PUSH1 0x0 DUP3 DUP3 DUP2 MLOAD DUP2 LT PUSH2 0xE1B JUMPI INVALID JUMPDEST PUSH1 0x20 MUL PUSH1 0x20 ADD ADD MLOAD PUSH1 0x0 ADD MLOAD SWAP1 POP PUSH1 0x0 DUP4 DUP4 DUP2 MLOAD DUP2 LT PUSH2 0xE37 JUMPI INVALID JUMPDEST PUSH1 0x20 SWAP1 DUP2 MUL SWAP2 SWAP1 SWAP2 ADD DUP2 ADD MLOAD DUP2 ADD MLOAD CALLER PUSH1 0x0 DUP2 DUP2 MSTORE PUSH1 0x3 DUP5 MSTORE PUSH1 0x40 DUP1 DUP3 KECCAK256 PUSH1 0x1 PUSH1 0x1 PUSH1 0xA0 SHL SUB DUP9 AND DUP4 MSTORE SWAP1 SWAP5 MSTORE DUP4 SWAP1 KECCAK256 DUP1 SLOAD PUSH1 0xFF NOT AND DUP4 ISZERO ISZERO OR SWAP1 SSTORE SWAP2 MLOAD SWAP1 SWAP3 POP PUSH32 0x4D7F317D2088D039C2A95A09FCBF9CC9191FAD5905F883C937CC3D317C4A6327 SWAP1 PUSH2 0xEA7 SWAP1 DUP6 SWAP1 DUP6 SWAP1 PUSH2 0x3646 JUMP JUMPDEST PUSH1 0x40 MLOAD DUP1 SWAP2 SUB SWAP1 LOG2 POP POP PUSH1 0x1 ADD PUSH2 0xE04 JUMP JUMPDEST PUSH2 0xEC1 PUSH2 0x272A JUMP JUMPDEST PUSH2 0xECA DUP3 PUSH2 0x1561 JUMP JUMPDEST PUSH2 0x786 PUSH1 0x0 DUP4 PUSH4 0xFFFFFFFF PUSH2 0x1781 AND JUMP JUMPDEST PUSH1 0xB SLOAD PUSH1 0x1 PUSH1 0x1 PUSH1 0xA0 SHL SUB AND SWAP1 JUMP JUMPDEST PUSH1 0xB SLOAD PUSH1 0x1 PUSH1 0x1 PUSH1 0xA0 SHL SUB AND CALLER EQ SWAP1 JUMP JUMPDEST PUSH1 0x0 PUSH2 0xF05 PUSH2 0xEEA JUMP JUMPDEST PUSH2 0xF0E JUMPI PUSH1 0x0 DUP1 REVERT JUMPDEST PUSH1 0xC DUP1 SLOAD PUSH1 0x1 ADD SWAP1 DUP2 SWAP1 SSTORE PUSH1 0x40 MLOAD PUSH1 0x1 PUSH1 0xE5 SHL PUSH4 0x5929947 MUL DUP2 MSTORE PUSH20 0x0 SWAP1 PUSH4 0xB25328E0 SWAP1 PUSH2 0x917 SWAP1 PUSH1 0x0 SWAP1 DUP9 SWAP1 DUP9 SWAP1 PUSH1 0x4 ADD PUSH2 0x3884 JUMP JUMPDEST PUSH2 0xF60 PUSH2 0xEEA JUMP JUMPDEST PUSH2 0xF69 JUMPI PUSH1 0x0 DUP1 REVERT JUMPDEST PUSH1 0xC DUP1 SLOAD PUSH1 0x1 ADD SWAP1 DUP2 SWAP1 SSTORE PUSH1 0x40 MLOAD PUSH1 0x1 PUSH1 0xE2 SHL PUSH4 0x12341921 MUL DUP2 MSTORE PUSH20 0x0 SWAP1 PUSH4 0x48D06484 SWAP1 PUSH2 0xFB9 SWAP1 PUSH1 0x0 SWAP1 DUP11 SWAP1 DUP11 SWAP1 DUP11 SWAP1 DUP11 SWAP1 DUP11 SWAP1 PUSH1 0x4 ADD PUSH2 0x37DB JUMP JUMPDEST PUSH1 0x0 PUSH1 0x40 MLOAD DUP1 DUP4 SUB DUP2 DUP7 DUP1 EXTCODESIZE ISZERO DUP1 ISZERO PUSH2 0xFD1 JUMPI PUSH1 0x0 DUP1 REVERT JUMPDEST POP GAS DELEGATECALL ISZERO DUP1 ISZERO PUSH2 0xFE5 JUMPI RETURNDATASIZE PUSH1 0x0 DUP1 RETURNDATACOPY RETURNDATASIZE PUSH1 0x0 REVERT JUMPDEST POP POP POP POP PUSH1 0xC SLOAD DUP2 EQ PUSH2 0xFF7 JUMPI PUSH1 0x0 DUP1 REVERT JUMPDEST POP POP POP POP POP POP JUMP JUMPDEST PUSH1 0xC DUP1 SLOAD PUSH1 0x1 ADD SWAP1 DUP2 SWAP1 SSTORE PUSH1 0x40 MLOAD PUSH1 0x1 PUSH1 0xE0 SHL PUSH4 0xBD76ECFD MUL DUP2 MSTORE PUSH20 0x0 SWAP1 PUSH4 0xBD76ECFD SWAP1 PUSH2 0x731 SWAP1 PUSH1 0x0 SWAP1 DUP8 SWAP1 DUP8 SWAP1 PUSH1 0x4 ADD PUSH2 0x3835 JUMP JUMPDEST PUSH2 0x1051 PUSH2 0x27B3 JUMP JUMPDEST PUSH2 0x1059 PUSH2 0x2754 JUMP JUMPDEST PUSH2 0x1061 PUSH2 0x272A JUMP JUMPDEST PUSH2 0x1069 PUSH2 0x272A JUMP JUMPDEST PUSH2 0x1072 DUP6 PUSH2 0x1561 JUMP JUMPDEST PUSH2 0x107B DUP6 PUSH2 0x12EC JUMP JUMPDEST PUSH2 0x1084 DUP7 PUSH2 0xB81 JUMP JUMPDEST PUSH2 0x108D DUP8 PUSH2 0xEB9 JUMP JUMPDEST PUSH2 0x1096 DUP9 PUSH2 0x150A JUMP JUMPDEST SWAP4 POP SWAP4 POP SWAP4 POP SWAP4 POP SWAP2 SWAP4 POP SWAP2 SWAP4 JUMP JUMPDEST PUSH2 0x10AD PUSH2 0xEEA JUMP JUMPDEST PUSH2 0x10B6 JUMPI PUSH1 0x0 DUP1 REVERT JUMPDEST PUSH1 0xC DUP1 SLOAD PUSH1 0x1 ADD SWAP1 DUP2 SWAP1 SSTORE PUSH1 0x40 MLOAD PUSH1 0x1 PUSH1 0xE1 SHL PUSH4 0x2A6E9A8B MUL DUP2 MSTORE PUSH20 0x0 SWAP1 PUSH4 0x54DD3516 SWAP1 PUSH2 0x9D7 SWAP1 PUSH1 0x0 SWAP1 DUP7 SWAP1 PUSH1 0x4 ADD PUSH2 0x3869 JUMP JUMPDEST PUSH2 0x1106 PUSH2 0x272A JUMP JUMPDEST POP PUSH1 0x40 DUP1 MLOAD PUSH1 0x20 DUP2 ADD SWAP1 SWAP2 MSTORE PUSH1 0x6 SLOAD DUP2 MSTORE SWAP1 JUMP JUMPDEST PUSH2 0x1122 PUSH2 0x273D JUMP JUMPDEST PUSH2 0x112B DUP3 PUSH2 0x1561 JUMP JUMPDEST PUSH2 0xADE PUSH2 0x1140 PUSH1 0x0 DUP6 DUP6 PUSH4 0xFFFFFFFF PUSH2 0x1662 AND JUMP JUMPDEST PUSH2 0x1155 DUP5 PUSH2 0xBA7 PUSH1 0x0 DUP3 PUSH4 0xFFFFFFFF PUSH2 0x16C8 AND JUMP JUMPDEST PUSH2 0x1881 JUMP JUMPDEST PUSH2 0x1162 PUSH2 0x273D JUMP JUMPDEST PUSH2 0x116B DUP3 PUSH2 0x1561 JUMP JUMPDEST PUSH2 0x786 PUSH1 0x0 DUP4 PUSH4 0xFFFFFFFF PUSH2 0x191F AND JUMP JUMPDEST PUSH2 0x1184 PUSH2 0x272A JUMP JUMPDEST PUSH2 0x118D DUP4 PUSH2 0x1561 JUMP JUMPDEST PUSH2 0x1196 DUP3 PUSH2 0x1561 JUMP JUMPDEST PUSH2 0xADE PUSH1 0x0 DUP5 DUP5 PUSH4 0xFFFFFFFF PUSH2 0x1969 AND JUMP JUMPDEST PUSH2 0x11B0 PUSH2 0x273D JUMP JUMPDEST PUSH2 0x11B9 DUP3 PUSH2 0x1561 JUMP JUMPDEST PUSH2 0x786 PUSH1 0x0 DUP4 PUSH4 0xFFFFFFFF PUSH2 0x19FF AND JUMP JUMPDEST PUSH2 0x11D2 PUSH2 0x2754 JUMP JUMPDEST PUSH2 0x11DB DUP3 PUSH2 0x1561 JUMP JUMPDEST PUSH2 0x786 PUSH1 0x0 DUP4 PUSH4 0xFFFFFFFF PUSH2 0x16C8 AND JUMP JUMPDEST PUSH1 0x0 PUSH2 0x786 DUP2 DUP4 PUSH4 0xFFFFFFFF PUSH2 0x1AC5 AND JUMP JUMPDEST PUSH2 0x1206 PUSH2 0x272A JUMP JUMPDEST POP PUSH1 0x40 DUP1 MLOAD PUSH1 0x20 DUP2 ADD SWAP1 SWAP2 MSTORE PUSH1 0x7 SLOAD DUP2 MSTORE SWAP1 JUMP JUMPDEST PUSH2 0x1222 PUSH2 0xEEA JUMP JUMPDEST PUSH2 0x122B JUMPI PUSH1 0x0 DUP1 REVERT JUMPDEST PUSH1 0xC DUP1 SLOAD PUSH1 0x1 ADD SWAP1 DUP2 SWAP1 SSTORE PUSH1 0x40 MLOAD PUSH1 0x1 PUSH1 0xE0 SHL PUSH4 0x8C5DABD1 MUL DUP2 MSTORE PUSH20 0x0 SWAP1 PUSH4 0x8C5DABD1 SWAP1 PUSH2 0x731 SWAP1 PUSH1 0x0 SWAP1 DUP8 SWAP1 DUP8 SWAP1 PUSH1 0x4 ADD PUSH2 0x38BA JUMP JUMPDEST PUSH2 0x127D PUSH2 0x2819 JUMP JUMPDEST POP PUSH1 0x40 DUP1 MLOAD PUSH1 0xC0 DUP2 ADD DUP3 MSTORE PUSH1 0x9 SLOAD PUSH8 0xFFFFFFFFFFFFFFFF DUP1 DUP3 AND DUP4 MSTORE PUSH9 0x10000000000000000 DUP1 DUP4 DIV DUP3 AND PUSH1 0x20 DUP6 ADD MSTORE PUSH1 0x1 PUSH1 0x80 SHL DUP4 DIV DUP3 AND SWAP5 DUP5 ADD SWAP5 SWAP1 SWAP5 MSTORE PUSH1 0x1 PUSH1 0xC0 SHL SWAP1 SWAP2 DIV DUP2 AND PUSH1 0x60 DUP4 ADD MSTORE PUSH1 0xA SLOAD SWAP1 DUP2 AND PUSH1 0x80 DUP4 ADD MSTORE SWAP2 SWAP1 SWAP2 DIV PUSH1 0x1 PUSH1 0x1 PUSH1 0x80 SHL SUB AND PUSH1 0xA0 DUP3 ADD MSTORE SWAP1 JUMP JUMPDEST PUSH2 0x12F4 PUSH2 0x27B3 JUMP JUMPDEST PUSH2 0x12FD DUP3 PUSH2 0x1561 JUMP JUMPDEST POP PUSH1 0x0 SWAP1 DUP2 MSTORE PUSH1 0x1 PUSH1 0x20 DUP2 DUP2 MSTORE PUSH1 0x40 SWAP3 DUP4 SWAP1 KECCAK256 DUP4 MLOAD PUSH2 0x100 DUP2 ADD DUP6 MSTORE DUP2 SLOAD PUSH1 0x1 PUSH1 0x1 PUSH1 0xA0 SHL SUB SWAP1 DUP2 AND DUP3 MSTORE DUP6 MLOAD DUP1 DUP8 ADD DUP8 MSTORE SWAP5 DUP4 ADD SLOAD PUSH1 0x1 PUSH1 0x1 PUSH1 0x80 SHL SUB DUP1 DUP3 AND DUP8 MSTORE PUSH1 0x1 PUSH1 0x80 SHL SWAP1 SWAP2 DIV AND DUP6 DUP6 ADD MSTORE DUP2 DUP5 ADD SWAP5 SWAP1 SWAP5 MSTORE DUP5 MLOAD PUSH1 0x60 DUP1 DUP3 ADD DUP8 MSTORE PUSH1 0x2 DUP5 ADD SLOAD PUSH1 0x1 PUSH1 0x1 PUSH1 0x60 SHL SUB DUP1 DUP3 AND DUP5 MSTORE PUSH1 0x1 PUSH1 0x60 SHL DUP3 DIV AND DUP4 DUP8 ADD MSTORE PUSH1 0x1 PUSH1 0xC0 SHL SWAP1 DIV PUSH4 0xFFFFFFFF AND DUP3 DUP9 ADD MSTORE DUP3 DUP8 ADD SWAP2 SWAP1 SWAP2 MSTORE PUSH1 0x3 DUP4 ADD SLOAD DUP6 AND SWAP1 DUP3 ADD MSTORE PUSH1 0x4 DUP3 ADD SLOAD SWAP1 SWAP4 AND PUSH1 0x80 DUP5 ADD MSTORE DUP4 MLOAD DUP1 DUP4 ADD DUP6 MSTORE PUSH1 0x5 DUP3 ADD SLOAD DUP2 MSTORE PUSH1 0xA0 DUP5 ADD MSTORE DUP4 MLOAD SWAP2 DUP3 ADD SWAP1 SWAP4 MSTORE PUSH1 0x6 DUP4 ADD SLOAD DUP2 MSTORE PUSH1 0xC0 DUP3 ADD MSTORE PUSH1 0x7 SWAP1 SWAP2 ADD SLOAD PUSH1 0xFF AND ISZERO ISZERO PUSH1 0xE0 DUP3 ADD MSTORE SWAP1 JUMP JUMPDEST PUSH2 0x13ED PUSH2 0xEEA JUMP JUMPDEST PUSH2 0x13F6 JUMPI PUSH1 0x0 DUP1 REVERT JUMPDEST PUSH1 0xC DUP1 SLOAD PUSH1 0x1 ADD SWAP1 DUP2 SWAP1 SSTORE PUSH1 0x40 MLOAD PUSH1 0x1 PUSH1 0xE1 SHL PUSH4 0x8643D83 MUL DUP2 MSTORE PUSH20 0x0 SWAP1 PUSH4 0x10C87B06 SWAP1 PUSH2 0x731 SWAP1 PUSH1 0x0 SWAP1 DUP8 SWAP1 DUP8 SWAP1 PUSH1 0x4 ADD PUSH2 0x389F JUMP JUMPDEST PUSH2 0x1448 PUSH2 0xEEA JUMP JUMPDEST PUSH2 0x1451 JUMPI PUSH1 0x0 DUP1 REVERT JUMPDEST PUSH1 0xC DUP1 SLOAD PUSH1 0x1 ADD SWAP1 DUP2 SWAP1 SSTORE PUSH1 0x40 MLOAD PUSH1 0x1 PUSH1 0xE2 SHL PUSH4 0x3A03E009 MUL DUP2 MSTORE PUSH20 0x0 SWAP1 PUSH4 0xE80F8024 SWAP1 PUSH2 0x731 SWAP1 PUSH1 0x0 SWAP1 DUP8 SWAP1 DUP8 SWAP1 PUSH1 0x4 ADD PUSH2 0x37B3 JUMP JUMPDEST PUSH2 0x14A3 PUSH2 0xEEA JUMP JUMPDEST PUSH2 0x14AC JUMPI PUSH1 0x0 DUP1 REVERT JUMPDEST PUSH2 0x14B5 DUP2 PUSH2 0x1AFA JUMP JUMPDEST POP JUMP JUMPDEST PUSH2 0x14C0 PUSH2 0x272A JUMP JUMPDEST PUSH2 0x14C8 PUSH2 0x272A JUMP JUMPDEST PUSH2 0x820 DUP4 PUSH1 0x1 PUSH2 0x15A3 JUMP JUMPDEST PUSH2 0x14DB PUSH2 0x272A JUMP JUMPDEST PUSH2 0x14E4 DUP3 PUSH2 0x1561 JUMP JUMPDEST POP PUSH1 0x0 SWAP1 DUP2 MSTORE PUSH1 0x1 PUSH1 0x20 SWAP1 DUP2 MSTORE PUSH1 0x40 SWAP2 DUP3 SWAP1 KECCAK256 DUP3 MLOAD SWAP2 DUP3 ADD SWAP1 SWAP3 MSTORE PUSH1 0x5 SWAP1 SWAP2 ADD SLOAD DUP2 MSTORE SWAP1 JUMP JUMPDEST PUSH2 0x1512 PUSH2 0x272A JUMP JUMPDEST PUSH2 0x151B DUP3 PUSH2 0x1561 JUMP JUMPDEST PUSH2 0x786 DUP3 PUSH2 0x1530 PUSH1 0x0 DUP3 PUSH4 0xFFFFFFFF PUSH2 0x16C8 AND JUMP JUMPDEST PUSH1 0x0 SWAP2 SWAP1 PUSH4 0xFFFFFFFF PUSH2 0x1B69 AND JUMP JUMPDEST PUSH1 0x1 PUSH1 0x1 PUSH1 0xA0 SHL SUB AND PUSH1 0x0 SWAP1 DUP2 MSTORE PUSH1 0x4 SWAP2 SWAP1 SWAP2 ADD PUSH1 0x20 MSTORE PUSH1 0x40 SWAP1 KECCAK256 SLOAD PUSH1 0xFF AND SWAP1 JUMP JUMPDEST PUSH2 0x14B5 PUSH1 0x0 DUP1 ADD SLOAD DUP3 LT PUSH1 0xD SLOAD PUSH1 0x1 PUSH1 0xB1 SHL PUSH10 0x26B0B935B2BA1027A7A1 MUL PUSH2 0x1C67 JUMP JUMPDEST PUSH1 0x0 SWAP1 DUP2 MSTORE PUSH1 0x1 SWAP2 SWAP1 SWAP2 ADD PUSH1 0x20 MSTORE PUSH1 0x40 SWAP1 KECCAK256 SLOAD PUSH1 0x1 PUSH1 0x1 PUSH1 0xA0 SHL SUB AND SWAP1 JUMP JUMPDEST PUSH2 0x15AB PUSH2 0x272A JUMP JUMPDEST PUSH2 0x15B3 PUSH2 0x272A JUMP JUMPDEST PUSH1 0x0 SLOAD PUSH2 0x15BE PUSH2 0x284E JUMP JUMPDEST PUSH2 0x15C7 DUP3 PUSH2 0x1CCB JUMP JUMPDEST SWAP1 POP PUSH1 0x0 JUMPDEST DUP3 DUP2 LT ISZERO PUSH2 0x160E JUMPI PUSH2 0x15EE PUSH2 0x15E9 PUSH1 0x0 DUP10 DUP5 PUSH4 0xFFFFFFFF PUSH2 0x1662 AND JUMP JUMPDEST PUSH2 0x1D21 JUMP JUMPDEST PUSH2 0x1606 JUMPI PUSH2 0x1604 DUP3 PUSH1 0x0 DUP4 PUSH4 0xFFFFFFFF PUSH2 0x1D32 AND JUMP JUMPDEST POP JUMPDEST PUSH1 0x1 ADD PUSH2 0x15CC JUMP JUMPDEST POP PUSH2 0x1622 PUSH1 0x0 DUP8 DUP4 DUP9 PUSH4 0xFFFFFFFF PUSH2 0x1E03 AND JUMP JUMPDEST SWAP4 POP SWAP4 POP POP POP SWAP3 POP SWAP3 SWAP1 POP JUMP JUMPDEST PUSH1 0x1 PUSH1 0x1 PUSH1 0xA0 SHL SUB DUP1 DUP4 AND PUSH1 0x0 SWAP1 DUP2 MSTORE PUSH1 0x3 DUP6 ADD PUSH1 0x20 SWAP1 DUP2 MSTORE PUSH1 0x40 DUP1 DUP4 KECCAK256 SWAP4 DUP6 AND DUP4 MSTORE SWAP3 SWAP1 MSTORE KECCAK256 SLOAD PUSH1 0xFF AND JUMPDEST SWAP4 SWAP3 POP POP POP JUMP JUMPDEST PUSH2 0x166A PUSH2 0x273D JUMP JUMPDEST POP DUP2 MLOAD PUSH1 0x1 PUSH1 0x1 PUSH1 0xA0 SHL SUB AND PUSH1 0x0 SWAP1 DUP2 MSTORE PUSH1 0x2 DUP5 ADD PUSH1 0x20 SWAP1 DUP2 MSTORE PUSH1 0x40 DUP1 DUP4 KECCAK256 DUP3 DUP7 ADD MLOAD DUP5 MSTORE DUP3 MSTORE DUP1 DUP4 KECCAK256 DUP5 DUP5 MSTORE DUP3 MSTORE SWAP2 DUP3 SWAP1 KECCAK256 DUP3 MLOAD DUP1 DUP5 ADD SWAP1 SWAP4 MSTORE SLOAD PUSH1 0xFF DUP2 AND ISZERO ISZERO DUP4 MSTORE PUSH1 0x1 PUSH1 0x1 PUSH1 0x80 SHL SUB PUSH2 0x100 SWAP1 SWAP2 DIV AND SWAP1 DUP3 ADD MSTORE SWAP4 SWAP3 POP POP POP JUMP JUMPDEST PUSH2 0x16D0 PUSH2 0x2754 JUMP JUMPDEST POP PUSH1 0x0 SWAP1 DUP2 MSTORE PUSH1 0x1 SWAP2 SWAP1 SWAP2 ADD PUSH1 0x20 SWAP1 DUP2 MSTORE PUSH1 0x40 SWAP2 DUP3 SWAP1 KECCAK256 DUP3 MLOAD PUSH1 0x60 DUP2 ADD DUP5 MSTORE PUSH1 0x2 SWAP1 SWAP2 ADD SLOAD PUSH1 0x1 PUSH1 0x1 PUSH1 0x60 SHL SUB DUP1 DUP3 AND DUP4 MSTORE PUSH1 0x1 PUSH1 0x60 SHL DUP3 DIV AND SWAP3 DUP3 ADD SWAP3 SWAP1 SWAP3 MSTORE PUSH1 0x1 PUSH1 0xC0 SHL SWAP1 SWAP2 DIV PUSH4 0xFFFFFFFF AND SWAP2 DUP2 ADD SWAP2 SWAP1 SWAP2 MSTORE SWAP1 JUMP JUMPDEST PUSH2 0x1731 PUSH2 0x2754 JUMP JUMPDEST PUSH2 0x1739 PUSH2 0x272A JUMP JUMPDEST PUSH2 0x174A DUP6 DUP6 DUP6 PUSH4 0xFFFFFFFF PUSH2 0x1B69 AND JUMP JUMPDEST SWAP1 POP PUSH2 0x1778 DUP4 DUP3 PUSH2 0x1761 DUP9 DUP9 PUSH4 0xFFFFFFFF PUSH2 0x191F AND JUMP JUMPDEST PUSH1 0x40 DUP1 MLOAD PUSH1 0x20 DUP2 ADD SWAP1 SWAP2 MSTORE PUSH1 0x7 DUP11 ADD SLOAD DUP2 MSTORE PUSH2 0x1F56 JUMP JUMPDEST SWAP6 SWAP5 POP POP POP POP POP JUMP JUMPDEST PUSH2 0x1789 PUSH2 0x272A JUMP JUMPDEST PUSH1 0x0 DUP3 DUP2 MSTORE PUSH1 0x1 DUP5 ADD PUSH1 0x20 MSTORE PUSH1 0x40 SWAP1 KECCAK256 PUSH1 0x3 ADD SLOAD PUSH1 0x1 PUSH1 0x1 PUSH1 0xA0 SHL SUB AND PUSH2 0x17AE PUSH2 0x272A JUMP JUMPDEST PUSH1 0x1 PUSH1 0x1 PUSH1 0xA0 SHL SUB DUP3 AND PUSH4 0x41976E09 PUSH2 0x17CD DUP8 DUP8 PUSH4 0xFFFFFFFF PUSH2 0x1584 AND JUMP JUMPDEST PUSH1 0x40 MLOAD DUP3 PUSH4 0xFFFFFFFF AND PUSH1 0xE0 SHL DUP2 MSTORE PUSH1 0x4 ADD PUSH2 0x17E9 SWAP2 SWAP1 PUSH2 0x3638 JUMP JUMPDEST PUSH1 0x20 PUSH1 0x40 MLOAD DUP1 DUP4 SUB DUP2 DUP7 DUP1 EXTCODESIZE ISZERO DUP1 ISZERO PUSH2 0x1801 JUMPI PUSH1 0x0 DUP1 REVERT JUMPDEST POP GAS STATICCALL ISZERO DUP1 ISZERO PUSH2 0x1815 JUMPI RETURNDATASIZE PUSH1 0x0 DUP1 RETURNDATACOPY RETURNDATASIZE PUSH1 0x0 REVERT JUMPDEST POP POP POP POP PUSH1 0x40 MLOAD RETURNDATASIZE PUSH1 0x1F NOT PUSH1 0x1F DUP3 ADD AND DUP3 ADD DUP1 PUSH1 0x40 MSTORE POP PUSH2 0x1839 SWAP2 SWAP1 DUP2 ADD SWAP1 PUSH2 0x2E9A JUMP JUMPDEST DUP1 MLOAD SWAP1 SWAP2 POP PUSH2 0x1879 SWAP1 ISZERO ISZERO PUSH1 0x1 PUSH1 0xC8 SHL PUSH7 0x53746F72616765 MUL PUSH32 0x50726963652063616E6E6F74206265207A65726F000000000000000000000000 DUP8 PUSH2 0x20B1 JUMP JUMPDEST SWAP5 SWAP4 POP POP POP POP JUMP JUMPDEST PUSH2 0x1889 PUSH2 0x273D JUMP JUMPDEST PUSH1 0x20 DUP4 ADD MLOAD DUP4 MLOAD PUSH1 0x1 PUSH1 0x1 PUSH1 0x80 SHL SUB SWAP1 SWAP2 AND SWAP1 ISZERO PUSH2 0x18E7 JUMPI PUSH1 0x40 DUP1 MLOAD DUP1 DUP3 ADD SWAP1 SWAP2 MSTORE PUSH1 0x1 DUP2 MSTORE PUSH1 0x20 DUP5 DUP2 ADD MLOAD SWAP1 DUP3 ADD SWAP1 PUSH2 0x18DC SWAP1 DUP5 SWAP1 PUSH1 0x1 PUSH1 0x1 PUSH1 0x60 SHL SUB AND PUSH8 0xDE0B6B3A7640000 PUSH4 0xFFFFFFFF PUSH2 0x2106 AND JUMP JUMPDEST DUP2 MSTORE POP SWAP2 POP POP PUSH2 0xAE1 JUMP JUMPDEST PUSH1 0x40 DUP1 MLOAD DUP1 DUP3 ADD SWAP1 SWAP2 MSTORE PUSH1 0x0 DUP2 MSTORE DUP4 MLOAD PUSH1 0x20 DUP3 ADD SWAP1 PUSH2 0x18DC SWAP1 DUP5 SWAP1 PUSH1 0x1 PUSH1 0x1 PUSH1 0x60 SHL SUB AND PUSH8 0xDE0B6B3A7640000 PUSH4 0xFFFFFFFF PUSH2 0x2128 AND JUMP JUMPDEST PUSH2 0x1927 PUSH2 0x273D JUMP JUMPDEST POP PUSH1 0x0 DUP2 DUP2 MSTORE PUSH1 0x1 DUP1 DUP5 ADD PUSH1 0x20 SWAP1 DUP2 MSTORE PUSH1 0x40 SWAP3 DUP4 SWAP1 KECCAK256 DUP4 MLOAD DUP1 DUP6 ADD SWAP1 SWAP5 MSTORE SWAP1 SWAP2 ADD SLOAD PUSH1 0x1 PUSH1 0x1 PUSH1 0x80 SHL SUB DUP1 DUP3 AND DUP5 MSTORE PUSH1 0x1 PUSH1 0x80 SHL SWAP1 SWAP2 DIV AND SWAP1 DUP3 ADD MSTORE SWAP3 SWAP2 POP POP JUMP JUMPDEST PUSH2 0x1971 PUSH2 0x272A JUMP JUMPDEST PUSH1 0x6 DUP1 DUP6 ADD SLOAD PUSH1 0x0 DUP6 DUP2 MSTORE PUSH1 0x1 DUP8 ADD PUSH1 0x20 SWAP1 DUP2 MSTORE PUSH1 0x40 SWAP2 DUP3 SWAP1 KECCAK256 DUP3 MLOAD SWAP2 DUP3 ADD SWAP1 SWAP3 MSTORE SWAP3 ADD SLOAD DUP3 MSTORE SWAP1 PUSH2 0x19AD SWAP1 DUP3 SWAP1 PUSH2 0x19A8 SWAP1 PUSH2 0x2175 JUMP JUMPDEST PUSH2 0x21AC JUMP JUMPDEST SWAP1 POP PUSH2 0x19E8 DUP2 PUSH2 0x19A8 DUP8 PUSH1 0x1 ADD PUSH1 0x0 DUP8 DUP2 MSTORE PUSH1 0x20 ADD SWAP1 DUP2 MSTORE PUSH1 0x20 ADD PUSH1 0x0 KECCAK256 PUSH1 0x6 ADD PUSH1 0x40 MLOAD DUP1 PUSH1 0x20 ADD PUSH1 0x40 MSTORE SWAP1 DUP2 PUSH1 0x0 DUP3 ADD SLOAD DUP2 MSTORE POP POP PUSH2 0x2175 JUMP JUMPDEST PUSH1 0x40 DUP1 MLOAD PUSH1 0x20 DUP2 ADD SWAP1 SWAP2 MSTORE SWAP1 DUP2 MSTORE SWAP6 SWAP5 POP POP POP POP POP JUMP JUMPDEST PUSH2 0x1A07 PUSH2 0x273D JUMP JUMPDEST PUSH2 0x1A0F PUSH2 0x2754 JUMP JUMPDEST PUSH2 0x1A1F DUP5 DUP5 PUSH4 0xFFFFFFFF PUSH2 0x16C8 AND JUMP JUMPDEST SWAP1 POP PUSH2 0x1A29 PUSH2 0x273D JUMP JUMPDEST PUSH2 0x1A39 DUP6 DUP6 PUSH4 0xFFFFFFFF PUSH2 0x191F AND JUMP JUMPDEST SWAP1 POP PUSH1 0x0 PUSH2 0x1A4D DUP7 DUP7 PUSH4 0xFFFFFFFF PUSH2 0x1584 AND JUMP JUMPDEST SWAP1 POP PUSH2 0x1A57 PUSH2 0x273D JUMP JUMPDEST PUSH1 0x40 MLOAD DUP1 PUSH1 0x40 ADD PUSH1 0x40 MSTORE DUP1 PUSH1 0x1 ISZERO ISZERO DUP2 MSTORE PUSH1 0x20 ADD PUSH2 0x1A75 DUP5 ADDRESS PUSH2 0x21C5 JUMP JUMPDEST SWAP1 MSTORE SWAP1 POP PUSH2 0x1A81 PUSH2 0x273D JUMP JUMPDEST PUSH2 0x1A89 PUSH2 0x273D JUMP JUMPDEST PUSH2 0x1A93 DUP6 DUP8 PUSH2 0x2247 JUMP JUMPDEST SWAP1 SWAP3 POP SWAP1 POP PUSH2 0x1AB8 DUP3 PUSH2 0x1AAC DUP6 DUP5 PUSH4 0xFFFFFFFF PUSH2 0x22DD AND JUMP JUMPDEST SWAP1 PUSH4 0xFFFFFFFF PUSH2 0x22DD AND JUMP JUMPDEST SWAP10 SWAP9 POP POP POP POP POP POP POP POP POP JUMP JUMPDEST DUP1 MLOAD PUSH1 0x1 PUSH1 0x1 PUSH1 0xA0 SHL SUB AND PUSH1 0x0 SWAP1 DUP2 MSTORE PUSH1 0x2 SWAP3 SWAP1 SWAP3 ADD PUSH1 0x20 SWAP1 DUP2 MSTORE PUSH1 0x40 DUP1 DUP5 KECCAK256 SWAP3 DUP3 ADD MLOAD DUP5 MSTORE SWAP2 SWAP1 MSTORE SWAP1 KECCAK256 PUSH1 0x1 ADD SLOAD PUSH1 0xFF AND SWAP1 JUMP JUMPDEST PUSH1 0x1 PUSH1 0x1 PUSH1 0xA0 SHL SUB DUP2 AND PUSH2 0x1B0D JUMPI PUSH1 0x0 DUP1 REVERT JUMPDEST PUSH1 0xB SLOAD PUSH1 0x40 MLOAD PUSH1 0x1 PUSH1 0x1 PUSH1 0xA0 SHL SUB DUP1 DUP5 AND SWAP3 AND SWAP1 PUSH32 0x8BE0079C531659141344CD1FD0A4F28419497F9722A3DAAFE3B4186F6B6457E0 SWAP1 PUSH1 0x0 SWAP1 LOG3 PUSH1 0xB DUP1 SLOAD PUSH1 0x1 PUSH1 0x1 PUSH1 0xA0 SHL SUB NOT AND PUSH1 0x1 PUSH1 0x1 PUSH1 0xA0 SHL SUB SWAP3 SWAP1 SWAP3 AND SWAP2 SWAP1 SWAP2 OR SWAP1 SSTORE JUMP JUMPDEST PUSH2 0x1B71 PUSH2 0x272A JUMP JUMPDEST PUSH2 0x1B79 PUSH2 0x273D JUMP JUMPDEST PUSH2 0x1B89 DUP6 DUP6 PUSH4 0xFFFFFFFF PUSH2 0x191F AND JUMP JUMPDEST SWAP1 POP PUSH2 0x1B93 PUSH2 0x273D JUMP JUMPDEST PUSH2 0x1B9B PUSH2 0x273D JUMP JUMPDEST PUSH2 0x1BA5 DUP4 DUP7 PUSH2 0x2247 JUMP JUMPDEST SWAP2 POP SWAP2 POP PUSH2 0x1BB1 PUSH2 0x272A JUMP JUMPDEST PUSH1 0x0 DUP8 DUP2 MSTORE PUSH1 0x1 DUP10 ADD PUSH1 0x20 MSTORE PUSH1 0x40 SWAP1 KECCAK256 PUSH1 0x4 ADD SLOAD PUSH1 0x1 PUSH1 0x1 PUSH1 0xA0 SHL SUB AND PUSH4 0xE8177DCF PUSH2 0x1BE3 DUP11 DUP11 PUSH4 0xFFFFFFFF PUSH2 0x1584 AND JUMP JUMPDEST DUP5 PUSH1 0x20 ADD MLOAD DUP7 PUSH1 0x20 ADD MLOAD PUSH1 0x40 MLOAD DUP5 PUSH4 0xFFFFFFFF AND PUSH1 0xE0 SHL DUP2 MSTORE PUSH1 0x4 ADD PUSH2 0x1C0B SWAP4 SWAP3 SWAP2 SWAP1 PUSH2 0x3661 JUMP JUMPDEST PUSH1 0x20 PUSH1 0x40 MLOAD DUP1 DUP4 SUB DUP2 DUP7 DUP1 EXTCODESIZE ISZERO DUP1 ISZERO PUSH2 0x1C23 JUMPI PUSH1 0x0 DUP1 REVERT JUMPDEST POP GAS STATICCALL ISZERO DUP1 ISZERO PUSH2 0x1C37 JUMPI RETURNDATASIZE PUSH1 0x0 DUP1 RETURNDATACOPY RETURNDATASIZE PUSH1 0x0 REVERT JUMPDEST POP POP POP POP PUSH1 0x40 MLOAD RETURNDATASIZE PUSH1 0x1F NOT PUSH1 0x1F DUP3 ADD AND DUP3 ADD DUP1 PUSH1 0x40 MSTORE POP PUSH2 0x1C5B SWAP2 SWAP1 DUP2 ADD SWAP1 PUSH2 0x2E9A JUMP JUMPDEST SWAP9 SWAP8 POP POP POP POP POP POP POP POP JUMP JUMPDEST DUP3 PUSH2 0x76F JUMPI PUSH2 0x1C75 DUP3 PUSH2 0x22F7 JUMP JUMPDEST PUSH1 0x1 PUSH1 0xF5 SHL PUSH2 0x1D1 MUL PUSH2 0x1C87 DUP4 PUSH2 0x22F7 JUMP JUMPDEST PUSH1 0x40 MLOAD PUSH1 0x20 ADD PUSH2 0x1C99 SWAP4 SWAP3 SWAP2 SWAP1 PUSH2 0x35B2 JUMP JUMPDEST PUSH1 0x40 DUP1 MLOAD PUSH1 0x1F NOT DUP2 DUP5 SUB ADD DUP2 MSTORE SWAP1 DUP3 SWAP1 MSTORE PUSH1 0x1 PUSH1 0xE5 SHL PUSH3 0x461BCD MUL DUP3 MSTORE PUSH2 0x1CC2 SWAP2 PUSH1 0x4 ADD PUSH2 0x36EC JUMP JUMPDEST PUSH1 0x40 MLOAD DUP1 SWAP2 SUB SWAP1 REVERT JUMPDEST PUSH2 0x1CD3 PUSH2 0x284E JUMP JUMPDEST PUSH1 0x40 MLOAD DUP1 PUSH1 0x20 ADD PUSH1 0x40 MSTORE DUP1 DUP4 PUSH1 0x40 MLOAD SWAP1 DUP1 DUP3 MSTORE DUP1 PUSH1 0x20 MUL PUSH1 0x20 ADD DUP3 ADD PUSH1 0x40 MSTORE DUP1 ISZERO PUSH2 0x1D18 JUMPI DUP2 PUSH1 0x20 ADD JUMPDEST PUSH2 0x1D05 PUSH2 0x2861 JUMP JUMPDEST DUP2 MSTORE PUSH1 0x20 ADD SWAP1 PUSH1 0x1 SWAP1 SUB SWAP1 DUP2 PUSH2 0x1CFD JUMPI SWAP1 POP JUMPDEST POP SWAP1 MSTORE SWAP3 SWAP2 POP POP JUMP JUMPDEST PUSH1 0x20 ADD MLOAD PUSH1 0x1 PUSH1 0x1 PUSH1 0x80 SHL SUB AND ISZERO SWAP1 JUMP JUMPDEST PUSH1 0x0 PUSH2 0x1D44 DUP5 DUP4 PUSH4 0xFFFFFFFF PUSH2 0x237F AND JUMP JUMPDEST ISZERO PUSH2 0x1D51 JUMPI POP PUSH1 0x0 PUSH2 0x165B JUMP JUMPDEST PUSH2 0x1D61 DUP4 DUP4 PUSH4 0xFFFFFFFF PUSH2 0x1781 AND JUMP JUMPDEST DUP5 MLOAD DUP1 MLOAD DUP5 SWAP1 DUP2 LT PUSH2 0x1D6F JUMPI INVALID JUMPDEST PUSH1 0x20 SWAP1 DUP2 MUL SWAP2 SWAP1 SWAP2 ADD DUP2 ADD MLOAD PUSH1 0x40 SWAP1 DUP2 ADD SWAP3 SWAP1 SWAP3 MSTORE PUSH1 0x0 DUP5 DUP2 MSTORE PUSH1 0x1 DUP7 ADD SWAP1 SWAP2 MSTORE KECCAK256 PUSH1 0x7 ADD SLOAD PUSH1 0xFF AND ISZERO PUSH2 0x1DF9 JUMPI PUSH1 0x1 DUP5 PUSH1 0x0 ADD MLOAD DUP4 DUP2 MLOAD DUP2 LT PUSH2 0x1DAF JUMPI INVALID JUMPDEST PUSH1 0x20 SWAP1 DUP2 MUL SWAP2 SWAP1 SWAP2 ADD ADD MLOAD SWAP1 ISZERO ISZERO SWAP1 MSTORE PUSH2 0x1DCF DUP4 DUP4 PUSH4 0xFFFFFFFF PUSH2 0x191F AND JUMP JUMPDEST MLOAD DUP5 MLOAD DUP1 MLOAD DUP5 SWAP1 DUP2 LT PUSH2 0x1DDE JUMPI INVALID JUMPDEST PUSH1 0x20 SWAP1 DUP2 MUL SWAP2 SWAP1 SWAP2 ADD DUP2 ADD MLOAD PUSH1 0x1 PUSH1 0x1 PUSH1 0x80 SHL SUB SWAP1 SWAP3 AND SWAP2 ADD MSTORE JUMPDEST POP PUSH1 0x1 SWAP4 SWAP3 POP POP POP JUMP JUMPDEST PUSH2 0x1E0B PUSH2 0x272A JUMP JUMPDEST PUSH2 0x1E13 PUSH2 0x272A JUMP JUMPDEST PUSH2 0x1E1B PUSH2 0x272A JUMP JUMPDEST PUSH2 0x1E23 PUSH2 0x272A JUMP JUMPDEST PUSH1 0x0 PUSH2 0x1E2E DUP8 PUSH2 0x23AD JUMP JUMPDEST SWAP1 POP PUSH1 0x0 JUMPDEST DUP2 DUP2 LT ISZERO PUSH2 0x1F47 JUMPI PUSH2 0x1E4B DUP9 DUP3 PUSH4 0xFFFFFFFF PUSH2 0x237F AND JUMP JUMPDEST PUSH2 0x1E54 JUMPI PUSH2 0x1F3F JUMP JUMPDEST PUSH2 0x1E5C PUSH2 0x273D JUMP JUMPDEST PUSH2 0x1E6D DUP12 DUP12 DUP5 PUSH4 0xFFFFFFFF PUSH2 0x23B2 AND JUMP JUMPDEST SWAP1 POP PUSH2 0x1E78 DUP2 PUSH2 0x2421 JUMP JUMPDEST ISZERO PUSH2 0x1E83 JUMPI POP PUSH2 0x1F3F JUMP JUMPDEST PUSH1 0x0 PUSH2 0x1EAA PUSH2 0x1E98 DUP12 DUP6 PUSH4 0xFFFFFFFF PUSH2 0x2429 AND JUMP JUMPDEST MLOAD PUSH1 0x20 DUP5 ADD MLOAD SWAP1 PUSH4 0xFFFFFFFF PUSH2 0x2453 AND JUMP JUMPDEST SWAP1 POP PUSH2 0x1EB4 PUSH2 0x272A JUMP JUMPDEST PUSH2 0x1EBC PUSH2 0x247A JUMP JUMPDEST SWAP1 POP DUP10 ISZERO PUSH2 0x1EF4 JUMPI PUSH1 0x0 DUP5 DUP2 MSTORE PUSH1 0x1 DUP15 ADD PUSH1 0x20 SWAP1 DUP2 MSTORE PUSH1 0x40 SWAP2 DUP3 SWAP1 KECCAK256 DUP3 MLOAD SWAP2 DUP3 ADD SWAP1 SWAP3 MSTORE PUSH1 0x5 SWAP1 SWAP2 ADD SLOAD DUP2 MSTORE PUSH2 0x1EF1 SWAP1 PUSH2 0x2175 JUMP JUMPDEST SWAP1 POP JUMPDEST DUP3 MLOAD ISZERO PUSH2 0x1F1D JUMPI PUSH2 0x1F16 PUSH2 0x1F08 DUP4 DUP4 PUSH2 0x249C JUMP JUMPDEST DUP9 MLOAD SWAP1 PUSH4 0xFFFFFFFF PUSH2 0x24B5 AND JUMP JUMPDEST DUP8 MSTORE PUSH2 0x1F3B JUMP JUMPDEST PUSH2 0x1F38 PUSH2 0x1F2A DUP4 DUP4 PUSH2 0x21AC JUMP JUMPDEST DUP8 MLOAD SWAP1 PUSH4 0xFFFFFFFF PUSH2 0x24B5 AND JUMP JUMPDEST DUP7 MSTORE JUMPDEST POP POP POP JUMPDEST PUSH1 0x1 ADD PUSH2 0x1E33 JUMP JUMPDEST POP SWAP2 SWAP9 SWAP1 SWAP8 POP SWAP6 POP POP POP POP POP POP JUMP JUMPDEST PUSH2 0x1F5E PUSH2 0x2754 JUMP JUMPDEST PUSH2 0x1F66 PUSH2 0x273D JUMP JUMPDEST PUSH2 0x1F6E PUSH2 0x273D JUMP JUMPDEST PUSH2 0x1F78 DUP6 DUP9 PUSH2 0x2247 JUMP JUMPDEST SWAP2 POP SWAP2 POP PUSH1 0x0 PUSH2 0x1F86 PUSH2 0x24C7 JUMP JUMPDEST SWAP1 POP PUSH1 0x0 PUSH2 0x1FBE PUSH2 0x1FB0 DUP11 PUSH1 0x40 ADD MLOAD PUSH4 0xFFFFFFFF AND DUP5 PUSH4 0xFFFFFFFF AND PUSH2 0x24D7 SWAP1 SWAP2 SWAP1 PUSH4 0xFFFFFFFF AND JUMP JUMPDEST DUP10 MLOAD SWAP1 PUSH4 0xFFFFFFFF PUSH2 0x2453 AND JUMP JUMPDEST SWAP1 POP PUSH1 0x0 PUSH2 0x1FCB DUP6 PUSH2 0x2421 JUMP JUMPDEST ISZERO PUSH2 0x1FD8 JUMPI POP PUSH1 0x0 PUSH2 0x200A JUMP JUMPDEST PUSH2 0x1FE2 DUP3 DUP9 PUSH2 0x21AC JUMP JUMPDEST SWAP1 POP DUP5 PUSH1 0x20 ADD MLOAD DUP5 PUSH1 0x20 ADD MLOAD LT ISZERO PUSH2 0x200A JUMPI PUSH2 0x2007 DUP2 DUP6 PUSH1 0x20 ADD MLOAD DUP8 PUSH1 0x20 ADD MLOAD PUSH2 0x2106 JUMP JUMPDEST SWAP1 POP JUMPDEST DUP2 DUP2 GT ISZERO PUSH2 0x2014 JUMPI INVALID JUMPDEST PUSH1 0x40 DUP1 MLOAD PUSH1 0x60 DUP2 ADD SWAP1 SWAP2 MSTORE DUP11 MLOAD DUP2 SWAP1 PUSH2 0x2058 SWAP1 PUSH2 0x2053 SWAP1 PUSH1 0x1 PUSH1 0x1 PUSH1 0x60 SHL SUB AND PUSH2 0x2047 DUP2 DUP9 PUSH8 0xDE0B6B3A7640000 PUSH2 0x2106 JUMP JUMPDEST SWAP1 PUSH4 0xFFFFFFFF PUSH2 0x24B5 AND JUMP JUMPDEST PUSH2 0x24EC JUMP JUMPDEST PUSH1 0x1 PUSH1 0x1 PUSH1 0x60 SHL SUB SWAP1 DUP2 AND DUP3 MSTORE PUSH1 0x20 DUP14 DUP2 ADD MLOAD SWAP3 ADD SWAP2 PUSH2 0x208A SWAP2 PUSH2 0x2053 SWAP2 AND PUSH2 0x2047 DUP2 DUP8 PUSH8 0xDE0B6B3A7640000 PUSH2 0x2106 JUMP JUMPDEST PUSH1 0x1 PUSH1 0x1 PUSH1 0x60 SHL SUB AND DUP2 MSTORE PUSH1 0x20 ADD DUP5 PUSH4 0xFFFFFFFF AND DUP2 MSTORE POP SWAP6 POP POP POP POP POP POP SWAP5 SWAP4 POP POP POP POP JUMP JUMPDEST DUP4 PUSH2 0x2100 JUMPI PUSH2 0x20BF DUP4 PUSH2 0x22F7 JUMP JUMPDEST PUSH1 0x1 PUSH1 0xF5 SHL PUSH2 0x1D1 MUL PUSH2 0x20D1 DUP5 PUSH2 0x22F7 JUMP JUMPDEST PUSH1 0x1 PUSH1 0xF2 SHL PUSH2 0x80F MUL PUSH2 0x20E3 DUP6 PUSH2 0x252F JUMP JUMPDEST PUSH1 0x40 MLOAD PUSH2 0x1C99 SWAP6 SWAP5 SWAP4 SWAP3 SWAP2 SWAP1 PUSH1 0x1 PUSH1 0xF9 SHL PUSH1 0x1F MUL SWAP1 PUSH1 0x20 ADD PUSH2 0x35DA JUMP JUMPDEST POP POP POP POP JUMP JUMPDEST PUSH1 0x0 PUSH2 0x1879 DUP3 PUSH2 0x211C DUP7 DUP7 PUSH4 0xFFFFFFFF PUSH2 0x2453 AND JUMP JUMPDEST SWAP1 PUSH4 0xFFFFFFFF PUSH2 0x25EF AND JUMP JUMPDEST PUSH1 0x0 DUP4 ISZERO DUP1 PUSH2 0x2135 JUMPI POP DUP3 ISZERO JUMPDEST ISZERO PUSH2 0x214C JUMPI PUSH2 0x2145 PUSH1 0x0 DUP4 PUSH2 0x25EF JUMP JUMPDEST SWAP1 POP PUSH2 0x165B JUMP JUMPDEST PUSH2 0x1879 PUSH1 0x1 PUSH2 0x2047 DUP5 PUSH2 0x211C DUP4 PUSH2 0x2169 DUP11 DUP11 PUSH4 0xFFFFFFFF PUSH2 0x2453 AND JUMP JUMPDEST SWAP1 PUSH4 0xFFFFFFFF PUSH2 0x24D7 AND JUMP JUMPDEST PUSH2 0x217D PUSH2 0x272A JUMP JUMPDEST PUSH1 0x40 DUP1 MLOAD PUSH1 0x20 DUP2 ADD SWAP1 SWAP2 MSTORE DUP3 MLOAD DUP2 SWAP1 PUSH2 0x21A4 SWAP1 PUSH8 0xDE0B6B3A7640000 PUSH4 0xFFFFFFFF PUSH2 0x24B5 AND JUMP JUMPDEST SWAP1 MSTORE SWAP3 SWAP2 POP POP JUMP JUMPDEST PUSH1 0x0 PUSH2 0xADE DUP4 DUP4 PUSH1 0x0 ADD MLOAD PUSH8 0xDE0B6B3A7640000 PUSH2 0x2106 JUMP JUMPDEST PUSH1 0x40 MLOAD PUSH1 0x1 PUSH1 0xE0 SHL PUSH4 0x70A08231 MUL DUP2 MSTORE PUSH1 0x0 SWAP1 PUSH1 0x1 PUSH1 0x1 PUSH1 0xA0 SHL SUB DUP5 AND SWAP1 PUSH4 0x70A08231 SWAP1 PUSH2 0x21F7 SWAP1 DUP6 SWAP1 PUSH1 0x4 ADD PUSH2 0x3638 JUMP JUMPDEST PUSH1 0x20 PUSH1 0x40 MLOAD DUP1 DUP4 SUB DUP2 DUP7 DUP1 EXTCODESIZE ISZERO DUP1 ISZERO PUSH2 0x220F JUMPI PUSH1 0x0 DUP1 REVERT JUMPDEST POP GAS STATICCALL ISZERO DUP1 ISZERO PUSH2 0x2223 JUMPI RETURNDATASIZE PUSH1 0x0 DUP1 RETURNDATACOPY RETURNDATASIZE PUSH1 0x0 REVERT JUMPDEST POP POP POP POP PUSH1 0x40 MLOAD RETURNDATASIZE PUSH1 0x1F NOT PUSH1 0x1F DUP3 ADD AND DUP3 ADD DUP1 PUSH1 0x40 MSTORE POP PUSH2 0xADE SWAP2 SWAP1 DUP2 ADD SWAP1 PUSH2 0x2ED6 JUMP JUMPDEST PUSH2 0x224F PUSH2 0x273D JUMP JUMPDEST PUSH2 0x2257 PUSH2 0x273D JUMP JUMPDEST PUSH2 0x225F PUSH2 0x273D JUMP JUMPDEST POP PUSH1 0x40 DUP1 MLOAD DUP1 DUP3 ADD SWAP1 SWAP2 MSTORE PUSH1 0x1 DUP2 MSTORE PUSH1 0x20 DUP6 DUP2 ADD MLOAD PUSH1 0x1 PUSH1 0x1 PUSH1 0x80 SHL SUB AND SWAP1 DUP3 ADD MSTORE PUSH2 0x2289 PUSH2 0x273D JUMP JUMPDEST POP PUSH1 0x40 DUP1 MLOAD DUP1 DUP3 ADD SWAP1 SWAP2 MSTORE PUSH1 0x0 DUP2 MSTORE DUP6 MLOAD PUSH1 0x1 PUSH1 0x1 PUSH1 0x80 SHL SUB AND PUSH1 0x20 DUP3 ADD MSTORE PUSH2 0x22B0 PUSH2 0x273D JUMP JUMPDEST PUSH2 0x22BA DUP4 DUP8 PUSH2 0x1881 JUMP JUMPDEST SWAP1 POP PUSH2 0x22C4 PUSH2 0x273D JUMP JUMPDEST PUSH2 0x22CE DUP4 DUP9 PUSH2 0x1881 JUMP JUMPDEST SWAP2 SWAP9 SWAP2 SWAP8 POP SWAP1 SWAP6 POP POP POP POP POP POP JUMP JUMPDEST PUSH2 0x22E5 PUSH2 0x273D JUMP JUMPDEST PUSH2 0xADE DUP4 PUSH2 0x22F2 DUP5 PUSH2 0x2611 JUMP JUMPDEST PUSH2 0x2638 JUMP JUMPDEST PUSH1 0x60 DUP1 DUP3 PUSH1 0x40 MLOAD PUSH1 0x20 ADD PUSH2 0x230B SWAP2 SWAP1 PUSH2 0x359D JUMP JUMPDEST PUSH1 0x40 DUP1 MLOAD PUSH1 0x1F NOT DUP2 DUP5 SUB ADD DUP2 MSTORE SWAP2 SWAP1 MSTORE SWAP1 POP PUSH1 0x20 JUMPDEST DUP1 ISZERO PUSH2 0x2368 JUMPI DUP2 MLOAD PUSH1 0x0 NOT SWAP1 SWAP2 ADD SWAP1 DUP3 SWAP1 DUP3 SWAP1 DUP2 LT PUSH2 0x233B JUMPI INVALID JUMPDEST ADD PUSH1 0x20 ADD MLOAD PUSH1 0x1 PUSH1 0x1 PUSH1 0xF8 SHL SUB NOT PUSH1 0xF8 SWAP2 DUP3 SHR SWAP1 SWAP2 SHL AND ISZERO PUSH2 0x2363 JUMPI PUSH1 0x1 ADD DUP2 MSTORE SWAP1 POP PUSH2 0x789 JUMP JUMPDEST PUSH2 0x2320 JUMP JUMPDEST POP POP PUSH1 0x40 DUP1 MLOAD PUSH1 0x0 DUP2 MSTORE PUSH1 0x20 DUP2 ADD SWAP1 SWAP2 MSTORE SWAP3 SWAP2 POP POP JUMP JUMPDEST PUSH1 0x0 DUP3 PUSH1 0x0 ADD MLOAD DUP3 DUP2 MLOAD DUP2 LT PUSH2 0x2391 JUMPI INVALID JUMPDEST PUSH1 0x20 MUL PUSH1 0x20 ADD ADD MLOAD PUSH1 0x40 ADD MLOAD PUSH1 0x0 ADD MLOAD PUSH1 0x0 EQ ISZERO SWAP1 POP SWAP3 SWAP2 POP POP JUMP JUMPDEST MLOAD MLOAD SWAP1 JUMP JUMPDEST PUSH2 0x23BA PUSH2 0x273D JUMP JUMPDEST PUSH2 0x23C2 PUSH2 0x273D JUMP JUMPDEST PUSH2 0x23D3 DUP6 DUP6 DUP6 PUSH4 0xFFFFFFFF PUSH2 0x1662 AND JUMP JUMPDEST SWAP1 POP PUSH2 0x23DE DUP2 PUSH2 0x1D21 JUMP JUMPDEST ISZERO PUSH2 0x23F3 JUMPI PUSH2 0x23EB PUSH2 0x26CA JUMP JUMPDEST SWAP2 POP POP PUSH2 0x165B JUMP JUMPDEST PUSH2 0x23FB PUSH2 0x2754 JUMP JUMPDEST PUSH2 0x240B DUP7 DUP6 PUSH4 0xFFFFFFFF PUSH2 0x16C8 AND JUMP JUMPDEST SWAP1 POP PUSH2 0x2417 DUP3 DUP3 PUSH2 0x1881 JUMP JUMPDEST SWAP7 SWAP6 POP POP POP POP POP POP JUMP JUMPDEST PUSH1 0x20 ADD MLOAD ISZERO SWAP1 JUMP JUMPDEST PUSH2 0x2431 PUSH2 0x272A JUMP JUMPDEST DUP3 MLOAD DUP1 MLOAD DUP4 SWAP1 DUP2 LT PUSH2 0x243F JUMPI INVALID JUMPDEST PUSH1 0x20 MUL PUSH1 0x20 ADD ADD MLOAD PUSH1 0x40 ADD MLOAD SWAP1 POP SWAP3 SWAP2 POP POP JUMP JUMPDEST PUSH1 0x0 DUP3 PUSH2 0x2462 JUMPI POP PUSH1 0x0 PUSH2 0xAE1 JUMP JUMPDEST DUP3 DUP3 MUL DUP3 DUP5 DUP3 DUP2 PUSH2 0x246F JUMPI INVALID JUMPDEST DIV EQ PUSH2 0xADE JUMPI PUSH1 0x0 DUP1 REVERT JUMPDEST PUSH2 0x2482 PUSH2 0x272A JUMP JUMPDEST POP PUSH1 0x40 DUP1 MLOAD PUSH1 0x20 DUP2 ADD SWAP1 SWAP2 MSTORE PUSH8 0xDE0B6B3A7640000 DUP2 MSTORE SWAP1 JUMP JUMPDEST PUSH1 0x0 PUSH2 0xADE DUP4 PUSH8 0xDE0B6B3A7640000 DUP5 PUSH1 0x0 ADD MLOAD PUSH2 0x2106 JUMP JUMPDEST PUSH1 0x0 DUP3 DUP3 ADD DUP4 DUP2 LT ISZERO PUSH2 0xADE JUMPI PUSH1 0x0 DUP1 REVERT JUMPDEST PUSH1 0x0 PUSH2 0x24D2 TIMESTAMP PUSH2 0x26EA JUMP JUMPDEST SWAP1 POP SWAP1 JUMP JUMPDEST PUSH1 0x0 DUP3 DUP3 GT ISZERO PUSH2 0x24E6 JUMPI PUSH1 0x0 DUP1 REVERT JUMPDEST POP SWAP1 SUB SWAP1 JUMP JUMPDEST PUSH1 0x0 DUP2 PUSH2 0x786 PUSH1 0x1 PUSH1 0x1 PUSH1 0x60 SHL SUB DUP3 AND DUP3 EQ PUSH1 0x1 PUSH1 0xE3 SHL PUSH4 0x9AC2E8D MUL PUSH32 0x556E73616665206361737420746F2075696E7439360000000000000000000000 PUSH2 0x1C67 JUMP JUMPDEST PUSH1 0x60 DUP2 PUSH2 0x2557 JUMPI POP PUSH1 0x40 DUP1 MLOAD DUP1 DUP3 ADD SWAP1 SWAP2 MSTORE PUSH1 0x1 DUP2 MSTORE PUSH1 0x1 PUSH1 0xFC SHL PUSH1 0x3 MUL PUSH1 0x20 DUP3 ADD MSTORE PUSH2 0x789 JUMP JUMPDEST DUP2 PUSH1 0x0 JUMPDEST DUP2 ISZERO PUSH2 0x256F JUMPI PUSH1 0x1 ADD PUSH1 0xA DUP3 DIV SWAP2 POP PUSH2 0x255B JUMP JUMPDEST PUSH1 0x60 DUP2 PUSH1 0x40 MLOAD SWAP1 DUP1 DUP3 MSTORE DUP1 PUSH1 0x1F ADD PUSH1 0x1F NOT AND PUSH1 0x20 ADD DUP3 ADD PUSH1 0x40 MSTORE DUP1 ISZERO PUSH2 0x259C JUMPI PUSH1 0x20 DUP3 ADD DUP2 DUP1 CODESIZE DUP4 CODECOPY ADD SWAP1 POP JUMPDEST POP DUP6 SWAP4 POP SWAP1 POP DUP2 JUMPDEST DUP1 ISZERO PUSH2 0x25E6 JUMPI PUSH1 0x0 NOT ADD PUSH1 0xA DUP5 MOD PUSH1 0x30 ADD PUSH1 0xF8 SHL DUP3 DUP3 DUP2 MLOAD DUP2 LT PUSH2 0x25C4 JUMPI INVALID JUMPDEST PUSH1 0x20 ADD ADD SWAP1 PUSH1 0x1 PUSH1 0x1 PUSH1 0xF8 SHL SUB NOT AND SWAP1 DUP2 PUSH1 0x0 BYTE SWAP1 MSTORE8 POP PUSH1 0xA DUP5 DIV SWAP4 POP PUSH2 0x25A4 JUMP JUMPDEST POP SWAP5 SWAP4 POP POP POP POP JUMP JUMPDEST PUSH1 0x0 DUP1 DUP3 GT PUSH2 0x25FD JUMPI PUSH1 0x0 DUP1 REVERT JUMPDEST PUSH1 0x0 DUP3 DUP5 DUP2 PUSH2 0x2608 JUMPI INVALID JUMPDEST DIV SWAP5 SWAP4 POP POP POP POP JUMP JUMPDEST PUSH2 0x2619 PUSH2 0x273D JUMP JUMPDEST POP PUSH1 0x40 DUP1 MLOAD DUP1 DUP3 ADD SWAP1 SWAP2 MSTORE DUP2 MLOAD ISZERO DUP2 MSTORE PUSH1 0x20 DUP1 DUP4 ADD MLOAD SWAP1 DUP3 ADD MSTORE SWAP2 SWAP1 POP JUMP JUMPDEST PUSH2 0x2640 PUSH2 0x273D JUMP JUMPDEST PUSH2 0x2648 PUSH2 0x273D JUMP JUMPDEST DUP3 MLOAD DUP5 MLOAD ISZERO ISZERO SWAP1 ISZERO ISZERO EQ ISZERO PUSH2 0x267B JUMPI DUP4 MLOAD ISZERO ISZERO DUP2 MSTORE PUSH1 0x20 DUP1 DUP6 ADD MLOAD SWAP1 DUP5 ADD MLOAD PUSH2 0x2671 SWAP2 SWAP1 PUSH2 0x24B5 JUMP JUMPDEST PUSH1 0x20 DUP3 ADD MSTORE PUSH2 0xADE JUMP JUMPDEST DUP3 PUSH1 0x20 ADD MLOAD DUP5 PUSH1 0x20 ADD MLOAD LT PUSH2 0x26A4 JUMPI DUP4 MLOAD ISZERO ISZERO DUP2 MSTORE PUSH1 0x20 DUP1 DUP6 ADD MLOAD SWAP1 DUP5 ADD MLOAD PUSH2 0x2671 SWAP2 SWAP1 PUSH2 0x24D7 JUMP JUMPDEST DUP3 MLOAD ISZERO ISZERO DUP2 MSTORE PUSH1 0x20 DUP1 DUP5 ADD MLOAD SWAP1 DUP6 ADD MLOAD PUSH2 0x26BE SWAP2 SWAP1 PUSH2 0x24D7 JUMP JUMPDEST PUSH1 0x20 DUP3 ADD MSTORE SWAP4 SWAP3 POP POP POP JUMP JUMPDEST PUSH2 0x26D2 PUSH2 0x273D JUMP JUMPDEST POP PUSH1 0x40 DUP1 MLOAD DUP1 DUP3 ADD SWAP1 SWAP2 MSTORE PUSH1 0x0 DUP1 DUP3 MSTORE PUSH1 0x20 DUP3 ADD MSTORE SWAP1 JUMP JUMPDEST PUSH1 0x0 DUP2 PUSH2 0x786 PUSH4 0xFFFFFFFF DUP3 AND DUP3 EQ PUSH1 0x1 PUSH1 0xE3 SHL PUSH4 0x9AC2E8D MUL PUSH32 0x556E73616665206361737420746F2075696E7433320000000000000000000000 PUSH2 0x1C67 JUMP JUMPDEST PUSH1 0x40 MLOAD DUP1 PUSH1 0x20 ADD PUSH1 0x40 MSTORE DUP1 PUSH1 0x0 DUP2 MSTORE POP SWAP1 JUMP JUMPDEST PUSH1 0x40 DUP1 MLOAD DUP1 DUP3 ADD SWAP1 SWAP2 MSTORE PUSH1 0x0 DUP1 DUP3 MSTORE PUSH1 0x20 DUP3 ADD MSTORE SWAP1 JUMP JUMPDEST PUSH1 0x40 DUP1 MLOAD PUSH1 0x60 DUP2 ADD DUP3 MSTORE PUSH1 0x0 DUP1 DUP3 MSTORE PUSH1 0x20 DUP3 ADD DUP2 SWAP1 MSTORE SWAP2 DUP2 ADD SWAP2 SWAP1 SWAP2 MSTORE SWAP1 JUMP JUMPDEST PUSH1 0x40 MLOAD DUP1 PUSH1 0x80 ADD PUSH1 0x40 MSTORE DUP1 PUSH2 0x2787 PUSH2 0x272A JUMP JUMPDEST DUP2 MSTORE PUSH1 0x20 ADD PUSH2 0x2794 PUSH2 0x272A JUMP JUMPDEST DUP2 MSTORE PUSH1 0x20 ADD PUSH2 0x27A1 PUSH2 0x272A JUMP JUMPDEST DUP2 MSTORE PUSH1 0x20 ADD PUSH2 0x27AE PUSH2 0x272A JUMP JUMPDEST SWAP1 MSTORE SWAP1 JUMP JUMPDEST PUSH1 0x40 MLOAD DUP1 PUSH2 0x160 ADD PUSH1 0x40 MSTORE DUP1 PUSH1 0x0 PUSH1 0x1 PUSH1 0x1 PUSH1 0xA0 SHL SUB AND DUP2 MSTORE PUSH1 0x20 ADD PUSH2 0x27D7 PUSH2 0x273D JUMP JUMPDEST DUP2 MSTORE PUSH1 0x20 ADD PUSH2 0x27E4 PUSH2 0x2754 JUMP JUMPDEST DUP2 MSTORE PUSH1 0x0 PUSH1 0x20 DUP3 ADD DUP2 SWAP1 MSTORE PUSH1 0x40 DUP3 ADD MSTORE PUSH1 0x60 ADD PUSH2 0x27FF PUSH2 0x272A JUMP JUMPDEST DUP2 MSTORE PUSH1 0x20 ADD PUSH2 0x280C PUSH2 0x272A JUMP JUMPDEST DUP2 MSTORE PUSH1 0x0 PUSH1 0x20 SWAP1 SWAP2 ADD MSTORE SWAP1 JUMP JUMPDEST PUSH1 0x40 DUP1 MLOAD PUSH1 0xC0 DUP2 ADD DUP3 MSTORE PUSH1 0x0 DUP1 DUP3 MSTORE PUSH1 0x20 DUP3 ADD DUP2 SWAP1 MSTORE SWAP2 DUP2 ADD DUP3 SWAP1 MSTORE PUSH1 0x60 DUP2 ADD DUP3 SWAP1 MSTORE PUSH1 0x80 DUP2 ADD DUP3 SWAP1 MSTORE PUSH1 0xA0 DUP2 ADD SWAP2 SWAP1 SWAP2 MSTORE SWAP1 JUMP JUMPDEST PUSH1 0x40 MLOAD DUP1 PUSH1 0x20 ADD PUSH1 0x40 MSTORE DUP1 PUSH1 0x60 DUP2 MSTORE POP SWAP1 JUMP JUMPDEST PUSH1 0x40 DUP1 MLOAD PUSH1 0x60 DUP2 ADD DUP3 MSTORE PUSH1 0x0 DUP1 DUP3 MSTORE PUSH1 0x20 DUP3 ADD MSTORE SWAP1 DUP2 ADD PUSH2 0x27AE PUSH2 0x272A JUMP JUMPDEST PUSH1 0x0 PUSH2 0xADE DUP3 CALLDATALOAD PUSH2 0x39C5 JUMP JUMPDEST PUSH1 0x0 DUP3 PUSH1 0x1F DUP4 ADD SLT PUSH2 0x289D JUMPI PUSH1 0x0 DUP1 REVERT JUMPDEST DUP2 CALLDATALOAD PUSH2 0x28B0 PUSH2 0x28AB DUP3 PUSH2 0x3969 JUMP JUMPDEST PUSH2 0x3942 JUMP JUMPDEST DUP2 DUP2 MSTORE PUSH1 0x20 SWAP4 DUP5 ADD SWAP4 SWAP1 SWAP3 POP DUP3 ADD DUP4 PUSH1 0x0 JUMPDEST DUP4 DUP2 LT ISZERO PUSH2 0x28EE JUMPI DUP2 CALLDATALOAD DUP7 ADD PUSH2 0x28D8 DUP9 DUP3 PUSH2 0x2A5B JUMP JUMPDEST DUP5 MSTORE POP PUSH1 0x20 SWAP3 DUP4 ADD SWAP3 SWAP2 SWAP1 SWAP2 ADD SWAP1 PUSH1 0x1 ADD PUSH2 0x28C2 JUMP JUMPDEST POP POP POP POP SWAP3 SWAP2 POP POP JUMP JUMPDEST PUSH1 0x0 DUP3 PUSH1 0x1F DUP4 ADD SLT PUSH2 0x2909 JUMPI PUSH1 0x0 DUP1 REVERT JUMPDEST DUP2 CALLDATALOAD PUSH2 0x2917 PUSH2 0x28AB DUP3 PUSH2 0x3969 JUMP JUMPDEST SWAP2 POP DUP2 DUP2 DUP4 MSTORE PUSH1 0x20 DUP5 ADD SWAP4 POP PUSH1 0x20 DUP2 ADD SWAP1 POP DUP4 DUP6 PUSH1 0x40 DUP5 MUL DUP3 ADD GT ISZERO PUSH2 0x293C JUMPI PUSH1 0x0 DUP1 REVERT JUMPDEST PUSH1 0x0 JUMPDEST DUP4 DUP2 LT ISZERO PUSH2 0x28EE JUMPI DUP2 PUSH2 0x2952 DUP9 DUP3 PUSH2 0x2BD9 JUMP JUMPDEST DUP5 MSTORE POP PUSH1 0x20 SWAP1 SWAP3 ADD SWAP2 PUSH1 0x40 SWAP2 SWAP1 SWAP2 ADD SWAP1 PUSH1 0x1 ADD PUSH2 0x293F JUMP JUMPDEST PUSH1 0x0 DUP3 PUSH1 0x1F DUP4 ADD SLT PUSH2 0x297B JUMPI PUSH1 0x0 DUP1 REVERT JUMPDEST DUP2 CALLDATALOAD PUSH2 0x2989 PUSH2 0x28AB DUP3 PUSH2 0x3969 JUMP JUMPDEST SWAP2 POP DUP2 DUP2 DUP4 MSTORE PUSH1 0x20 DUP5 ADD SWAP4 POP PUSH1 0x20 DUP2 ADD SWAP1 POP DUP4 DUP6 PUSH1 0x40 DUP5 MUL DUP3 ADD GT ISZERO PUSH2 0x29AE JUMPI PUSH1 0x0 DUP1 REVERT JUMPDEST PUSH1 0x0 JUMPDEST DUP4 DUP2 LT ISZERO PUSH2 0x28EE JUMPI DUP2 PUSH2 0x29C4 DUP9 DUP3 PUSH2 0x2C20 JUMP JUMPDEST DUP5 MSTORE POP PUSH1 0x20 SWAP1 SWAP3 ADD SWAP2 PUSH1 0x40 SWAP2 SWAP1 SWAP2 ADD SWAP1 PUSH1 0x1 ADD PUSH2 0x29B1 JUMP JUMPDEST PUSH1 0x0 PUSH2 0xADE DUP3 CALLDATALOAD PUSH2 0x39D0 JUMP JUMPDEST PUSH1 0x0 DUP3 PUSH1 0x1F DUP4 ADD SLT PUSH2 0x29F9 JUMPI PUSH1 0x0 DUP1 REVERT JUMPDEST DUP2 CALLDATALOAD PUSH2 0x2A07 PUSH2 0x28AB DUP3 PUSH2 0x398A JUMP JUMPDEST SWAP2 POP DUP1 DUP3 MSTORE PUSH1 0x20 DUP4 ADD PUSH1 0x20 DUP4 ADD DUP6 DUP4 DUP4 ADD GT ISZERO PUSH2 0x2A23 JUMPI PUSH1 0x0 DUP1 REVERT JUMPDEST PUSH2 0x2A2E DUP4 DUP3 DUP5 PUSH2 0x3A9E JUMP JUMPDEST POP POP POP SWAP3 SWAP2 POP POP JUMP JUMPDEST PUSH1 0x0 PUSH2 0xADE DUP3 CALLDATALOAD PUSH2 0x3A54 JUMP JUMPDEST PUSH1 0x0 PUSH2 0xADE DUP3 CALLDATALOAD PUSH2 0x3A5F JUMP JUMPDEST PUSH1 0x0 PUSH2 0xADE DUP3 CALLDATALOAD PUSH2 0x3A6E JUMP JUMPDEST PUSH1 0x0 PUSH2 0x160 DUP3 DUP5 SUB SLT ISZERO PUSH2 0x2A6E JUMPI PUSH1 0x0 DUP1 REVERT JUMPDEST PUSH2 0x2A79 PUSH2 0x100 PUSH2 0x3942 JUMP JUMPDEST SWAP1 POP PUSH1 0x0 PUSH2 0x2A87 DUP5 DUP5 PUSH2 0x2A43 JUMP JUMPDEST DUP3 MSTORE POP PUSH1 0x20 PUSH2 0x2A98 DUP5 DUP5 DUP4 ADD PUSH2 0x2C85 JUMP JUMPDEST PUSH1 0x20 DUP4 ADD MSTORE POP PUSH1 0x40 PUSH2 0x2AAC DUP5 DUP3 DUP6 ADD PUSH2 0x2B37 JUMP JUMPDEST PUSH1 0x40 DUP4 ADD MSTORE POP PUSH1 0xC0 PUSH2 0x2AC0 DUP5 DUP3 DUP6 ADD PUSH2 0x2C85 JUMP JUMPDEST PUSH1 0x60 DUP4 ADD MSTORE POP PUSH1 0xE0 PUSH2 0x2AD4 DUP5 DUP3 DUP6 ADD PUSH2 0x2C85 JUMP JUMPDEST PUSH1 0x80 DUP4 ADD MSTORE POP PUSH2 0x100 PUSH2 0x2AE9 DUP5 DUP3 DUP6 ADD PUSH2 0x2880 JUMP JUMPDEST PUSH1 0xA0 DUP4 ADD MSTORE POP PUSH2 0x120 PUSH2 0x2AFE DUP5 DUP3 DUP6 ADD PUSH2 0x2C85 JUMP JUMPDEST PUSH1 0xC0 DUP4 ADD MSTORE POP PUSH2 0x140 DUP3 ADD CALLDATALOAD PUSH8 0xFFFFFFFFFFFFFFFF DUP2 GT ISZERO PUSH2 0x2B1F JUMPI PUSH1 0x0 DUP1 REVERT JUMPDEST PUSH2 0x2B2B DUP5 DUP3 DUP6 ADD PUSH2 0x29E8 JUMP JUMPDEST PUSH1 0xE0 DUP4 ADD MSTORE POP SWAP3 SWAP2 POP POP JUMP JUMPDEST PUSH1 0x0 PUSH1 0x80 DUP3 DUP5 SUB SLT ISZERO PUSH2 0x2B49 JUMPI PUSH1 0x0 DUP1 REVERT JUMPDEST PUSH2 0x2B53 PUSH1 0x80 PUSH2 0x3942 JUMP JUMPDEST SWAP1 POP PUSH1 0x0 PUSH2 0x2B61 DUP5 DUP5 PUSH2 0x29DC JUMP JUMPDEST DUP3 MSTORE POP PUSH1 0x20 PUSH2 0x2B72 DUP5 DUP5 DUP4 ADD PUSH2 0x2A4F JUMP JUMPDEST PUSH1 0x20 DUP4 ADD MSTORE POP PUSH1 0x40 PUSH2 0x2B86 DUP5 DUP3 DUP6 ADD PUSH2 0x2A4F JUMP JUMPDEST PUSH1 0x40 DUP4 ADD MSTORE POP PUSH1 0x60 PUSH2 0x2B9A DUP5 DUP3 DUP6 ADD PUSH2 0x2C85 JUMP JUMPDEST PUSH1 0x60 DUP4 ADD MSTORE POP SWAP3 SWAP2 POP POP JUMP JUMPDEST PUSH1 0x0 PUSH1 0x20 DUP3 DUP5 SUB SLT ISZERO PUSH2 0x2BB8 JUMPI PUSH1 0x0 DUP1 REVERT JUMPDEST PUSH2 0x2BC2 PUSH1 0x20 PUSH2 0x3942 JUMP JUMPDEST SWAP1 POP PUSH1 0x0 PUSH2 0x2BD0 DUP5 DUP5 PUSH2 0x2C85 JUMP JUMPDEST DUP3 MSTORE POP SWAP3 SWAP2 POP POP JUMP JUMPDEST PUSH1 0x0 PUSH1 0x40 DUP3 DUP5 SUB SLT ISZERO PUSH2 0x2BEB JUMPI PUSH1 0x0 DUP1 REVERT JUMPDEST PUSH2 0x2BF5 PUSH1 0x40 PUSH2 0x3942 JUMP JUMPDEST SWAP1 POP PUSH1 0x0 PUSH2 0x2C03 DUP5 DUP5 PUSH2 0x2880 JUMP JUMPDEST DUP3 MSTORE POP PUSH1 0x20 PUSH2 0x2C14 DUP5 DUP5 DUP4 ADD PUSH2 0x2C85 JUMP JUMPDEST PUSH1 0x20 DUP4 ADD MSTORE POP SWAP3 SWAP2 POP POP JUMP JUMPDEST PUSH1 0x0 PUSH1 0x40 DUP3 DUP5 SUB SLT ISZERO PUSH2 0x2C32 JUMPI PUSH1 0x0 DUP1 REVERT JUMPDEST PUSH2 0x2C3C PUSH1 0x40 PUSH2 0x3942 JUMP JUMPDEST SWAP1 POP PUSH1 0x0 PUSH2 0x2C4A DUP5 DUP5 PUSH2 0x2880 JUMP JUMPDEST DUP3 MSTORE POP PUSH1 0x20 PUSH2 0x2C14 DUP5 DUP5 DUP4 ADD PUSH2 0x29DC JUMP JUMPDEST PUSH1 0x0 PUSH1 0x20 DUP3 DUP5 SUB SLT ISZERO PUSH2 0x2C6D JUMPI PUSH1 0x0 DUP1 REVERT JUMPDEST PUSH2 0x2C77 PUSH1 0x20 PUSH2 0x3942 JUMP JUMPDEST SWAP1 POP PUSH1 0x0 PUSH2 0x2BD0 DUP5 DUP5 PUSH2 0x2C91 JUMP JUMPDEST PUSH1 0x0 PUSH2 0xADE DUP3 CALLDATALOAD PUSH2 0x39EF JUMP JUMPDEST PUSH1 0x0 PUSH2 0xADE DUP3 MLOAD PUSH2 0x39EF JUMP JUMPDEST PUSH1 0x0 PUSH1 0x20 DUP3 DUP5 SUB SLT ISZERO PUSH2 0x2CAF JUMPI PUSH1 0x0 DUP1 REVERT JUMPDEST PUSH1 0x0 PUSH2 0x1879 DUP5 DUP5 PUSH2 0x2880 JUMP JUMPDEST PUSH1 0x0 DUP1 PUSH1 0x40 DUP4 DUP6 SUB SLT ISZERO PUSH2 0x2CCE JUMPI PUSH1 0x0 DUP1 REVERT JUMPDEST PUSH1 0x0 PUSH2 0x2CDA DUP6 DUP6 PUSH2 0x2880 JUMP JUMPDEST SWAP3 POP POP PUSH1 0x20 PUSH2 0x2CEB DUP6 DUP3 DUP7 ADD PUSH2 0x2880 JUMP JUMPDEST SWAP2 POP POP SWAP3 POP SWAP3 SWAP1 POP JUMP JUMPDEST PUSH1 0x0 DUP1 PUSH1 0x40 DUP4 DUP6 SUB SLT ISZERO PUSH2 0x2D08 JUMPI PUSH1 0x0 DUP1 REVERT JUMPDEST PUSH1 0x0 PUSH2 0x2D14 DUP6 DUP6 PUSH2 0x2880 JUMP JUMPDEST SWAP3 POP POP PUSH1 0x20 PUSH2 0x2CEB DUP6 DUP3 DUP7 ADD PUSH2 0x29DC JUMP JUMPDEST PUSH1 0x0 DUP1 PUSH1 0x0 DUP1 PUSH1 0x0 PUSH1 0xA0 DUP7 DUP9 SUB SLT ISZERO PUSH2 0x2D3D JUMPI PUSH1 0x0 DUP1 REVERT JUMPDEST PUSH1 0x0 PUSH2 0x2D49 DUP9 DUP9 PUSH2 0x2880 JUMP JUMPDEST SWAP6 POP POP PUSH1 0x20 PUSH2 0x2D5A DUP9 DUP3 DUP10 ADD PUSH2 0x2A37 JUMP JUMPDEST SWAP5 POP POP PUSH1 0x40 PUSH2 0x2D6B DUP9 DUP3 DUP10 ADD PUSH2 0x2A37 JUMP JUMPDEST SWAP4 POP POP PUSH1 0x60 PUSH2 0x2D7C DUP9 DUP3 DUP10 ADD PUSH2 0x2BA6 JUMP JUMPDEST SWAP3 POP POP PUSH1 0x80 PUSH2 0x2D8D DUP9 DUP3 DUP10 ADD PUSH2 0x2BA6 JUMP JUMPDEST SWAP2 POP POP SWAP3 SWAP6 POP SWAP3 SWAP6 SWAP1 SWAP4 POP JUMP JUMPDEST PUSH1 0x0 DUP1 PUSH1 0x40 DUP4 DUP6 SUB SLT ISZERO PUSH2 0x2DAD JUMPI PUSH1 0x0 DUP1 REVERT JUMPDEST DUP3 CALLDATALOAD PUSH8 0xFFFFFFFFFFFFFFFF DUP2 GT ISZERO PUSH2 0x2DC4 JUMPI PUSH1 0x0 DUP1 REVERT JUMPDEST PUSH2 0x2DD0 DUP6 DUP3 DUP7 ADD PUSH2 0x28F8 JUMP JUMPDEST SWAP3 POP POP PUSH1 0x20 DUP4 ADD CALLDATALOAD PUSH8 0xFFFFFFFFFFFFFFFF DUP2 GT ISZERO PUSH2 0x2DED JUMPI PUSH1 0x0 DUP1 REVERT JUMPDEST PUSH2 0x2CEB DUP6 DUP3 DUP7 ADD PUSH2 0x288C JUMP JUMPDEST PUSH1 0x0 PUSH1 0x20 DUP3 DUP5 SUB SLT ISZERO PUSH2 0x2E0B JUMPI PUSH1 0x0 DUP1 REVERT JUMPDEST DUP2 CALLDATALOAD PUSH8 0xFFFFFFFFFFFFFFFF DUP2 GT ISZERO PUSH2 0x2E22 JUMPI PUSH1 0x0 DUP1 REVERT JUMPDEST PUSH2 0x1879 DUP5 DUP3 DUP6 ADD PUSH2 0x296A JUMP JUMPDEST PUSH1 0x0 PUSH1 0x20 DUP3 DUP5 SUB SLT ISZERO PUSH2 0x2E40 JUMPI PUSH1 0x0 DUP1 REVERT JUMPDEST PUSH1 0x0 PUSH2 0x1879 DUP5 DUP5 PUSH2 0x2BA6 JUMP JUMPDEST PUSH1 0x0 PUSH1 0x40 DUP3 DUP5 SUB SLT ISZERO PUSH2 0x2E5E JUMPI PUSH1 0x0 DUP1 REVERT JUMPDEST PUSH1 0x0 PUSH2 0x1879 DUP5 DUP5 PUSH2 0x2BD9 JUMP JUMPDEST PUSH1 0x0 DUP1 PUSH1 0x60 DUP4 DUP6 SUB SLT ISZERO PUSH2 0x2E7D JUMPI PUSH1 0x0 DUP1 REVERT JUMPDEST PUSH1 0x0 PUSH2 0x2E89 DUP6 DUP6 PUSH2 0x2BD9 JUMP JUMPDEST SWAP3 POP POP PUSH1 0x40 PUSH2 0x2CEB DUP6 DUP3 DUP7 ADD PUSH2 0x2C85 JUMP JUMPDEST PUSH1 0x0 PUSH1 0x20 DUP3 DUP5 SUB SLT ISZERO PUSH2 0x2EAC JUMPI PUSH1 0x0 DUP1 REVERT JUMPDEST PUSH1 0x0 PUSH2 0x1879 DUP5 DUP5 PUSH2 0x2C5B JUMP JUMPDEST PUSH1 0x0 PUSH1 0x20 DUP3 DUP5 SUB SLT ISZERO PUSH2 0x2ECA JUMPI PUSH1 0x0 DUP1 REVERT JUMPDEST PUSH1 0x0 PUSH2 0x1879 DUP5 DUP5 PUSH2 0x2C85 JUMP JUMPDEST PUSH1 0x0 PUSH1 0x20 DUP3 DUP5 SUB SLT ISZERO PUSH2 0x2EE8 JUMPI PUSH1 0x0 DUP1 REVERT JUMPDEST PUSH1 0x0 PUSH2 0x1879 DUP5 DUP5 PUSH2 0x2C91 JUMP JUMPDEST PUSH1 0x0 DUP1 PUSH1 0x40 DUP4 DUP6 SUB SLT ISZERO PUSH2 0x2F07 JUMPI PUSH1 0x0 DUP1 REVERT JUMPDEST PUSH1 0x0 PUSH2 0x2CDA DUP6 DUP6 PUSH2 0x2C85 JUMP JUMPDEST PUSH1 0x0 DUP1 PUSH1 0x40 DUP4 DUP6 SUB SLT ISZERO PUSH2 0x2F26 JUMPI PUSH1 0x0 DUP1 REVERT JUMPDEST PUSH1 0x0 PUSH2 0x2D14 DUP6 DUP6 PUSH2 0x2C85 JUMP JUMPDEST PUSH1 0x0 DUP1 PUSH1 0x40 DUP4 DUP6 SUB SLT ISZERO PUSH2 0x2F45 JUMPI PUSH1 0x0 DUP1 REVERT JUMPDEST PUSH1 0x0 PUSH2 0x2F51 DUP6 DUP6 PUSH2 0x2C85 JUMP JUMPDEST SWAP3 POP POP PUSH1 0x20 PUSH2 0x2CEB DUP6 DUP3 DUP7 ADD PUSH2 0x2A37 JUMP JUMPDEST PUSH1 0x0 DUP1 PUSH1 0x40 DUP4 DUP6 SUB SLT ISZERO PUSH2 0x2F75 JUMPI PUSH1 0x0 DUP1 REVERT JUMPDEST PUSH1 0x0 PUSH2 0x2F81 DUP6 DUP6 PUSH2 0x2C85 JUMP JUMPDEST SWAP3 POP POP PUSH1 0x20 PUSH2 0x2CEB DUP6 DUP3 DUP7 ADD PUSH2 0x2BA6 JUMP JUMPDEST PUSH1 0x0 DUP1 PUSH1 0x40 DUP4 DUP6 SUB SLT ISZERO PUSH2 0x2FA5 JUMPI PUSH1 0x0 DUP1 REVERT JUMPDEST PUSH1 0x0 PUSH2 0x2FB1 DUP6 DUP6 PUSH2 0x2C85 JUMP JUMPDEST SWAP3 POP POP PUSH1 0x20 PUSH2 0x2CEB DUP6 DUP3 DUP7 ADD PUSH2 0x2C85 JUMP JUMPDEST PUSH1 0x0 PUSH2 0x2FCE DUP4 DUP4 PUSH2 0x300E JUMP JUMPDEST POP POP PUSH1 0x20 ADD SWAP1 JUMP JUMPDEST PUSH1 0x0 PUSH2 0xADE DUP4 DUP4 PUSH2 0x327A JUMP JUMPDEST PUSH1 0x0 PUSH2 0x2FEE DUP4 DUP4 PUSH2 0x33AE JUMP JUMPDEST POP POP PUSH1 0x40 ADD SWAP1 JUMP JUMPDEST PUSH1 0x0 PUSH2 0x2FEE DUP4 DUP4 PUSH2 0x346C JUMP JUMPDEST PUSH1 0x0 PUSH2 0x2FEE DUP4 DUP4 PUSH2 0x355F JUMP JUMPDEST PUSH2 0x3017 DUP2 PUSH2 0x39C5 JUMP JUMPDEST DUP3 MSTORE POP POP JUMP JUMPDEST PUSH1 0x0 PUSH2 0x3028 DUP3 PUSH2 0x39B8 JUMP JUMPDEST PUSH2 0x3032 DUP2 DUP6 PUSH2 0x39BC JUMP JUMPDEST SWAP4 POP PUSH2 0x303D DUP4 PUSH2 0x39B2 JUMP JUMPDEST PUSH1 0x0 JUMPDEST DUP3 DUP2 LT ISZERO PUSH2 0x3068 JUMPI PUSH2 0x3053 DUP7 DUP4 MLOAD PUSH2 0x2FC2 JUMP JUMPDEST SWAP6 POP PUSH2 0x305E DUP3 PUSH2 0x39B2 JUMP JUMPDEST SWAP2 POP PUSH1 0x1 ADD PUSH2 0x3040 JUMP JUMPDEST POP SWAP4 SWAP5 SWAP4 POP POP POP POP JUMP JUMPDEST PUSH1 0x0 PUSH2 0x307D DUP3 PUSH2 0x39B8 JUMP JUMPDEST PUSH2 0x3087 DUP2 DUP6 PUSH2 0x39BC JUMP JUMPDEST SWAP4 POP DUP4 PUSH1 0x20 DUP3 MUL DUP6 ADD PUSH2 0x3099 DUP6 PUSH2 0x39B2 JUMP JUMPDEST PUSH1 0x0 JUMPDEST DUP5 DUP2 LT ISZERO PUSH2 0x30D0 JUMPI DUP4 DUP4 SUB DUP9 MSTORE PUSH2 0x30B4 DUP4 DUP4 MLOAD PUSH2 0x2FD6 JUMP JUMPDEST SWAP3 POP PUSH2 0x30BF DUP3 PUSH2 0x39B2 JUMP JUMPDEST PUSH1 0x20 SWAP9 SWAP1 SWAP9 ADD SWAP8 SWAP2 POP PUSH1 0x1 ADD PUSH2 0x309C JUMP JUMPDEST POP SWAP1 SWAP7 SWAP6 POP POP POP POP POP POP JUMP JUMPDEST PUSH1 0x0 PUSH2 0x30E7 DUP3 PUSH2 0x39B8 JUMP JUMPDEST PUSH2 0x30F1 DUP2 DUP6 PUSH2 0x39BC JUMP JUMPDEST SWAP4 POP PUSH2 0x30FC DUP4 PUSH2 0x39B2 JUMP JUMPDEST PUSH1 0x0 JUMPDEST DUP3 DUP2 LT ISZERO PUSH2 0x3068 JUMPI PUSH2 0x3112 DUP7 DUP4 MLOAD PUSH2 0x2FE2 JUMP JUMPDEST SWAP6 POP PUSH2 0x311D DUP3 PUSH2 0x39B2 JUMP JUMPDEST SWAP2 POP PUSH1 0x1 ADD PUSH2 0x30FF JUMP JUMPDEST PUSH1 0x0 PUSH2 0x3132 DUP3 PUSH2 0x39B8 JUMP JUMPDEST PUSH2 0x313C DUP2 DUP6 PUSH2 0x39BC JUMP JUMPDEST SWAP4 POP PUSH2 0x3147 DUP4 PUSH2 0x39B2 JUMP JUMPDEST PUSH1 0x0 JUMPDEST DUP3 DUP2 LT ISZERO PUSH2 0x3068 JUMPI PUSH2 0x315D DUP7 DUP4 MLOAD PUSH2 0x2FF6 JUMP JUMPDEST SWAP6 POP PUSH2 0x3168 DUP3 PUSH2 0x39B2 JUMP JUMPDEST SWAP2 POP PUSH1 0x1 ADD PUSH2 0x314A JUMP JUMPDEST PUSH1 0x0 PUSH2 0x317D DUP3 PUSH2 0x39B8 JUMP JUMPDEST PUSH2 0x3187 DUP2 DUP6 PUSH2 0x39BC JUMP JUMPDEST SWAP4 POP PUSH2 0x3192 DUP4 PUSH2 0x39B2 JUMP JUMPDEST PUSH1 0x0 JUMPDEST DUP3 DUP2 LT ISZERO PUSH2 0x3068 JUMPI PUSH2 0x31A8 DUP7 DUP4 MLOAD PUSH2 0x3002 JUMP JUMPDEST SWAP6 POP PUSH2 0x31B3 DUP3 PUSH2 0x39B2 JUMP JUMPDEST SWAP2 POP PUSH1 0x1 ADD PUSH2 0x3195 JUMP JUMPDEST PUSH2 0x3017 DUP2 PUSH2 0x39D0 JUMP JUMPDEST PUSH2 0x3017 PUSH2 0x31D2 DUP3 PUSH2 0x39D5 JUMP JUMPDEST PUSH2 0x39EF JUMP JUMPDEST PUSH2 0x3017 PUSH2 0x31D2 DUP3 PUSH2 0x39E2 JUMP JUMPDEST PUSH2 0x3017 PUSH2 0x31D2 DUP3 PUSH2 0x39EF JUMP JUMPDEST PUSH1 0x0 PUSH2 0x31FA DUP3 PUSH2 0x39B8 JUMP JUMPDEST PUSH2 0x3204 DUP2 DUP6 PUSH2 0x789 JUMP JUMPDEST SWAP4 POP PUSH2 0x3214 DUP2 DUP6 PUSH1 0x20 DUP7 ADD PUSH2 0x3AAA JUMP JUMPDEST SWAP3 SWAP1 SWAP3 ADD SWAP3 SWAP2 POP POP JUMP JUMPDEST PUSH1 0x0 PUSH2 0x3229 DUP3 PUSH2 0x39B8 JUMP JUMPDEST PUSH2 0x3233 DUP2 DUP6 PUSH2 0x39BC JUMP JUMPDEST SWAP4 POP PUSH2 0x3243 DUP2 DUP6 PUSH1 0x20 DUP7 ADD PUSH2 0x3AAA JUMP JUMPDEST PUSH2 0x324C DUP2 PUSH2 0x3AD6 JUMP JUMPDEST SWAP1 SWAP4 ADD SWAP4 SWAP3 POP POP POP JUMP JUMPDEST PUSH2 0x3017 DUP2 PUSH2 0x3A54 JUMP JUMPDEST PUSH2 0x3017 DUP2 PUSH2 0x3A7D JUMP JUMPDEST PUSH2 0x3017 DUP2 PUSH2 0x3A88 JUMP JUMPDEST PUSH2 0x3017 DUP2 PUSH2 0x3A93 JUMP JUMPDEST DUP1 MLOAD PUSH1 0x0 SWAP1 PUSH2 0x160 DUP5 ADD SWAP1 PUSH2 0x328F DUP6 DUP3 PUSH2 0x325F JUMP JUMPDEST POP PUSH1 0x20 DUP4 ADD MLOAD PUSH2 0x32A2 PUSH1 0x20 DUP7 ADD DUP3 PUSH2 0x3579 JUMP JUMPDEST POP PUSH1 0x40 DUP4 ADD MLOAD PUSH2 0x32B5 PUSH1 0x40 DUP7 ADD DUP3 PUSH2 0x331C JUMP JUMPDEST POP PUSH1 0x60 DUP4 ADD MLOAD PUSH2 0x32C8 PUSH1 0xC0 DUP7 ADD DUP3 PUSH2 0x3579 JUMP JUMPDEST POP PUSH1 0x80 DUP4 ADD MLOAD PUSH2 0x32DB PUSH1 0xE0 DUP7 ADD DUP3 PUSH2 0x3579 JUMP JUMPDEST POP PUSH1 0xA0 DUP4 ADD MLOAD PUSH2 0x32EF PUSH2 0x100 DUP7 ADD DUP3 PUSH2 0x300E JUMP JUMPDEST POP PUSH1 0xC0 DUP4 ADD MLOAD PUSH2 0x3303 PUSH2 0x120 DUP7 ADD DUP3 PUSH2 0x3579 JUMP JUMPDEST POP PUSH1 0xE0 DUP4 ADD MLOAD DUP5 DUP3 SUB PUSH2 0x140 DUP7 ADD MSTORE PUSH2 0x1778 DUP3 DUP3 PUSH2 0x321E JUMP JUMPDEST DUP1 MLOAD PUSH1 0x80 DUP4 ADD SWAP1 PUSH2 0x332D DUP5 DUP3 PUSH2 0x31BD JUMP JUMPDEST POP PUSH1 0x20 DUP3 ADD MLOAD PUSH2 0x3340 PUSH1 0x20 DUP6 ADD DUP3 PUSH2 0x3268 JUMP JUMPDEST POP PUSH1 0x40 DUP3 ADD MLOAD PUSH2 0x3353 PUSH1 0x40 DUP6 ADD DUP3 PUSH2 0x3268 JUMP JUMPDEST POP PUSH1 0x60 DUP3 ADD MLOAD PUSH2 0x2100 PUSH1 0x60 DUP6 ADD DUP3 PUSH2 0x3579 JUMP JUMPDEST DUP1 MLOAD PUSH1 0x20 DUP4 ADD SWAP1 PUSH2 0x2100 DUP5 DUP3 PUSH2 0x3579 JUMP JUMPDEST DUP1 MLOAD PUSH1 0x60 DUP4 ADD SWAP1 PUSH2 0x3388 DUP5 DUP3 PUSH2 0x3594 JUMP JUMPDEST POP PUSH1 0x20 DUP3 ADD MLOAD PUSH2 0x339B PUSH1 0x20 DUP6 ADD DUP3 PUSH2 0x3594 JUMP JUMPDEST POP PUSH1 0x40 DUP3 ADD MLOAD PUSH2 0x2100 PUSH1 0x40 DUP6 ADD DUP3 PUSH2 0x3582 JUMP JUMPDEST DUP1 MLOAD PUSH1 0x40 DUP4 ADD SWAP1 PUSH2 0x33BF DUP5 DUP3 PUSH2 0x300E JUMP JUMPDEST POP PUSH1 0x20 DUP3 ADD MLOAD PUSH2 0x2100 PUSH1 0x20 DUP6 ADD DUP3 PUSH2 0x3579 JUMP JUMPDEST DUP1 MLOAD PUSH2 0x160 DUP4 ADD SWAP1 PUSH2 0x33E4 DUP5 DUP3 PUSH2 0x300E JUMP JUMPDEST POP PUSH1 0x20 DUP3 ADD MLOAD PUSH2 0x33F7 PUSH1 0x20 DUP6 ADD DUP3 PUSH2 0x354E JUMP JUMPDEST POP PUSH1 0x40 DUP3 ADD MLOAD PUSH2 0x340A PUSH1 0x60 DUP6 ADD DUP3 PUSH2 0x3377 JUMP JUMPDEST POP PUSH1 0x60 DUP3 ADD MLOAD PUSH2 0x341D PUSH1 0xC0 DUP6 ADD DUP3 PUSH2 0x3256 JUMP JUMPDEST POP PUSH1 0x80 DUP3 ADD MLOAD PUSH2 0x3430 PUSH1 0xE0 DUP6 ADD DUP3 PUSH2 0x3256 JUMP JUMPDEST POP PUSH1 0xA0 DUP3 ADD MLOAD PUSH2 0x3444 PUSH2 0x100 DUP6 ADD DUP3 PUSH2 0x3366 JUMP JUMPDEST POP PUSH1 0xC0 DUP3 ADD MLOAD PUSH2 0x3458 PUSH2 0x120 DUP6 ADD DUP3 PUSH2 0x3366 JUMP JUMPDEST POP PUSH1 0xE0 DUP3 ADD MLOAD PUSH2 0x2100 PUSH2 0x140 DUP6 ADD DUP3 PUSH2 0x31BD JUMP JUMPDEST DUP1 MLOAD PUSH1 0x40 DUP4 ADD SWAP1 PUSH2 0x347D DUP5 DUP3 PUSH2 0x31BD JUMP JUMPDEST POP PUSH1 0x20 DUP3 ADD MLOAD PUSH2 0x2100 PUSH1 0x20 DUP6 ADD DUP3 PUSH2 0x3570 JUMP JUMPDEST DUP1 MLOAD PUSH1 0xC0 DUP4 ADD SWAP1 PUSH2 0x34A1 DUP5 DUP3 PUSH2 0x358B JUMP JUMPDEST POP PUSH1 0x20 DUP3 ADD MLOAD PUSH2 0x34B4 PUSH1 0x20 DUP6 ADD DUP3 PUSH2 0x358B JUMP JUMPDEST POP PUSH1 0x40 DUP3 ADD MLOAD PUSH2 0x34C7 PUSH1 0x40 DUP6 ADD DUP3 PUSH2 0x358B JUMP JUMPDEST POP PUSH1 0x60 DUP3 ADD MLOAD PUSH2 0x34DA PUSH1 0x60 DUP6 ADD DUP3 PUSH2 0x358B JUMP JUMPDEST POP PUSH1 0x80 DUP3 ADD MLOAD PUSH2 0x34ED PUSH1 0x80 DUP6 ADD DUP3 PUSH2 0x358B JUMP JUMPDEST POP PUSH1 0xA0 DUP3 ADD MLOAD PUSH2 0x2100 PUSH1 0xA0 DUP6 ADD DUP3 PUSH2 0x3570 JUMP JUMPDEST DUP1 MLOAD PUSH1 0x80 DUP4 ADD SWAP1 PUSH2 0x3511 DUP5 DUP3 PUSH2 0x3366 JUMP JUMPDEST POP PUSH1 0x20 DUP3 ADD MLOAD PUSH2 0x3524 PUSH1 0x20 DUP6 ADD DUP3 PUSH2 0x3366 JUMP JUMPDEST POP PUSH1 0x40 DUP3 ADD MLOAD PUSH2 0x3537 PUSH1 0x40 DUP6 ADD DUP3 PUSH2 0x3366 JUMP JUMPDEST POP PUSH1 0x60 DUP3 ADD MLOAD PUSH2 0x2100 PUSH1 0x60 DUP6 ADD DUP3 PUSH2 0x3366 JUMP JUMPDEST SWAP1 MSTORE JUMP JUMPDEST DUP1 MLOAD PUSH1 0x40 DUP4 ADD SWAP1 PUSH2 0x347D DUP5 DUP3 PUSH2 0x3570 JUMP JUMPDEST DUP1 MLOAD PUSH1 0x40 DUP4 ADD SWAP1 PUSH2 0x33BF DUP5 DUP3 PUSH2 0x31BD JUMP JUMPDEST PUSH2 0x3017 DUP2 PUSH2 0x3A1A JUMP JUMPDEST PUSH2 0x3017 DUP2 PUSH2 0x39EF JUMP JUMPDEST PUSH2 0x3017 DUP2 PUSH2 0x3A32 JUMP JUMPDEST PUSH2 0x3017 DUP2 PUSH2 0x3A3B JUMP JUMPDEST PUSH2 0x3017 DUP2 PUSH2 0x3A48 JUMP JUMPDEST PUSH1 0x0 PUSH2 0x35A9 DUP3 DUP5 PUSH2 0x31E3 JUMP JUMPDEST POP PUSH1 0x20 ADD SWAP2 SWAP1 POP JUMP JUMPDEST PUSH1 0x0 PUSH2 0x35BE DUP3 DUP7 PUSH2 0x31EF JUMP JUMPDEST SWAP2 POP PUSH2 0x35CA DUP3 DUP6 PUSH2 0x31D7 JUMP JUMPDEST PUSH1 0x2 DUP3 ADD SWAP2 POP PUSH2 0x1778 DUP3 DUP5 PUSH2 0x31EF JUMP JUMPDEST PUSH1 0x0 PUSH2 0x35E6 DUP3 DUP10 PUSH2 0x31EF JUMP JUMPDEST SWAP2 POP PUSH2 0x35F2 DUP3 DUP9 PUSH2 0x31D7 JUMP JUMPDEST PUSH1 0x2 DUP3 ADD SWAP2 POP PUSH2 0x3602 DUP3 DUP8 PUSH2 0x31EF JUMP JUMPDEST SWAP2 POP PUSH2 0x360E DUP3 DUP7 PUSH2 0x31D7 JUMP JUMPDEST PUSH1 0x2 DUP3 ADD SWAP2 POP PUSH2 0x361E DUP3 DUP6 PUSH2 0x31EF JUMP JUMPDEST SWAP2 POP PUSH2 0x362A DUP3 DUP5 PUSH2 0x31C6 JUMP JUMPDEST POP PUSH1 0x1 ADD SWAP7 SWAP6 POP POP POP POP POP POP JUMP JUMPDEST PUSH1 0x20 DUP2 ADD PUSH2 0xAE1 DUP3 DUP5 PUSH2 0x300E JUMP JUMPDEST PUSH1 0x40 DUP2 ADD PUSH2 0x3654 DUP3 DUP6 PUSH2 0x300E JUMP JUMPDEST PUSH2 0x165B PUSH1 0x20 DUP4 ADD DUP5 PUSH2 0x31BD JUMP JUMPDEST PUSH1 0x60 DUP2 ADD PUSH2 0x366F DUP3 DUP7 PUSH2 0x300E JUMP JUMPDEST PUSH2 0x367C PUSH1 0x20 DUP4 ADD DUP6 PUSH2 0x3579 JUMP JUMPDEST PUSH2 0x1879 PUSH1 0x40 DUP4 ADD DUP5 PUSH2 0x3579 JUMP JUMPDEST PUSH1 0x60 DUP1 DUP3 MSTORE DUP2 ADD PUSH2 0x369A DUP2 DUP7 PUSH2 0x301D JUMP JUMPDEST SWAP1 POP DUP2 DUP2 SUB PUSH1 0x20 DUP4 ADD MSTORE PUSH2 0x36AE DUP2 DUP6 PUSH2 0x3127 JUMP JUMPDEST SWAP1 POP DUP2 DUP2 SUB PUSH1 0x40 DUP4 ADD MSTORE PUSH2 0x1778 DUP2 DUP5 PUSH2 0x3172 JUMP JUMPDEST PUSH1 0x20 DUP2 ADD PUSH2 0xAE1 DUP3 DUP5 PUSH2 0x31BD JUMP JUMPDEST PUSH1 0x20 DUP2 ADD PUSH2 0xAE1 DUP3 DUP5 PUSH2 0x3256 JUMP JUMPDEST PUSH1 0x20 DUP2 ADD PUSH2 0xAE1 DUP3 DUP5 PUSH2 0x3271 JUMP JUMPDEST PUSH1 0x20 DUP1 DUP3 MSTORE DUP2 ADD PUSH2 0xADE DUP2 DUP5 PUSH2 0x321E JUMP JUMPDEST PUSH1 0x20 DUP2 ADD PUSH2 0xAE1 DUP3 DUP5 PUSH2 0x3366 JUMP JUMPDEST PUSH1 0x60 DUP2 ADD PUSH2 0xAE1 DUP3 DUP5 PUSH2 0x3377 JUMP JUMPDEST PUSH2 0x160 DUP2 ADD PUSH2 0xAE1 DUP3 DUP5 PUSH2 0x33D2 JUMP JUMPDEST PUSH2 0x200 DUP2 ADD PUSH2 0x3737 DUP3 DUP8 PUSH2 0x33D2 JUMP JUMPDEST PUSH2 0x3745 PUSH2 0x160 DUP4 ADD DUP7 PUSH2 0x3377 JUMP JUMPDEST PUSH2 0x3753 PUSH2 0x1C0 DUP4 ADD DUP6 PUSH2 0x3366 JUMP JUMPDEST PUSH2 0x1778 PUSH2 0x1E0 DUP4 ADD DUP5 PUSH2 0x3366 JUMP JUMPDEST PUSH1 0x40 DUP2 ADD PUSH2 0xAE1 DUP3 DUP5 PUSH2 0x346C JUMP JUMPDEST PUSH1 0xC0 DUP2 ADD PUSH2 0xAE1 DUP3 DUP5 PUSH2 0x3490 JUMP JUMPDEST PUSH1 0x80 DUP2 ADD PUSH2 0xAE1 DUP3 DUP5 PUSH2 0x3500 JUMP JUMPDEST PUSH1 0x60 DUP2 ADD PUSH2 0x3799 DUP3 DUP7 PUSH2 0x354A JUMP JUMPDEST PUSH2 0x37A6 PUSH1 0x20 DUP4 ADD DUP6 PUSH2 0x300E JUMP JUMPDEST PUSH2 0x1879 PUSH1 0x40 DUP4 ADD DUP5 PUSH2 0x300E JUMP JUMPDEST PUSH1 0x60 DUP2 ADD PUSH2 0x37C1 DUP3 DUP7 PUSH2 0x354A JUMP JUMPDEST PUSH2 0x37CE PUSH1 0x20 DUP4 ADD DUP6 PUSH2 0x300E JUMP JUMPDEST PUSH2 0x1879 PUSH1 0x40 DUP4 ADD DUP5 PUSH2 0x31BD JUMP JUMPDEST PUSH1 0xC0 DUP2 ADD PUSH2 0x37E9 DUP3 DUP10 PUSH2 0x354A JUMP JUMPDEST PUSH2 0x37F6 PUSH1 0x20 DUP4 ADD DUP9 PUSH2 0x300E JUMP JUMPDEST PUSH2 0x3803 PUSH1 0x40 DUP4 ADD DUP8 PUSH2 0x3256 JUMP JUMPDEST PUSH2 0x3810 PUSH1 0x60 DUP4 ADD DUP7 PUSH2 0x3256 JUMP JUMPDEST PUSH2 0x381D PUSH1 0x80 DUP4 ADD DUP6 PUSH2 0x3366 JUMP JUMPDEST PUSH2 0x382A PUSH1 0xA0 DUP4 ADD DUP5 PUSH2 0x3366 JUMP JUMPDEST SWAP8 SWAP7 POP POP POP POP POP POP POP JUMP JUMPDEST PUSH1 0x60 DUP2 ADD PUSH2 0x3843 DUP3 DUP7 PUSH2 0x354A JUMP JUMPDEST DUP2 DUP2 SUB PUSH1 0x20 DUP4 ADD MSTORE PUSH2 0x3855 DUP2 DUP6 PUSH2 0x30DC JUMP JUMPDEST SWAP1 POP DUP2 DUP2 SUB PUSH1 0x40 DUP4 ADD MSTORE PUSH2 0x1778 DUP2 DUP5 PUSH2 0x3072 JUMP JUMPDEST PUSH1 0x40 DUP2 ADD PUSH2 0x3877 DUP3 DUP6 PUSH2 0x354A JUMP JUMPDEST PUSH2 0x165B PUSH1 0x20 DUP4 ADD DUP5 PUSH2 0x3366 JUMP JUMPDEST PUSH1 0x60 DUP2 ADD PUSH2 0x3892 DUP3 DUP7 PUSH2 0x354A JUMP JUMPDEST PUSH2 0x37A6 PUSH1 0x20 DUP4 ADD DUP6 PUSH2 0x3579 JUMP JUMPDEST PUSH1 0x60 DUP2 ADD PUSH2 0x38AD DUP3 DUP7 PUSH2 0x354A JUMP JUMPDEST PUSH2 0x37CE PUSH1 0x20 DUP4 ADD DUP6 PUSH2 0x3579 JUMP JUMPDEST PUSH1 0x60 DUP2 ADD PUSH2 0x38C8 DUP3 DUP7 PUSH2 0x354A JUMP JUMPDEST PUSH2 0x38D5 PUSH1 0x20 DUP4 ADD DUP6 PUSH2 0x3579 JUMP JUMPDEST PUSH2 0x1879 PUSH1 0x40 DUP4 ADD DUP5 PUSH2 0x3256 JUMP JUMPDEST PUSH1 0x60 DUP2 ADD PUSH2 0x38F0 DUP3 DUP7 PUSH2 0x354A JUMP JUMPDEST PUSH2 0x38FD PUSH1 0x20 DUP4 ADD DUP6 PUSH2 0x3579 JUMP JUMPDEST PUSH2 0x1879 PUSH1 0x40 DUP4 ADD DUP5 PUSH2 0x3366 JUMP JUMPDEST PUSH1 0x40 DUP2 ADD PUSH2 0xAE1 DUP3 DUP5 PUSH2 0x354E JUMP JUMPDEST PUSH1 0x40 DUP2 ADD PUSH2 0x3877 DUP3 DUP6 PUSH2 0x3366 JUMP JUMPDEST PUSH1 0x40 DUP2 ADD PUSH2 0xAE1 DUP3 DUP5 PUSH2 0x355F JUMP JUMPDEST PUSH1 0x20 DUP2 ADD PUSH2 0xAE1 DUP3 DUP5 PUSH2 0x3579 JUMP JUMPDEST PUSH1 0x40 MLOAD DUP2 DUP2 ADD PUSH8 0xFFFFFFFFFFFFFFFF DUP2 GT DUP3 DUP3 LT OR ISZERO PUSH2 0x3961 JUMPI PUSH1 0x0 DUP1 REVERT JUMPDEST PUSH1 0x40 MSTORE SWAP2 SWAP1 POP JUMP JUMPDEST PUSH1 0x0 PUSH8 0xFFFFFFFFFFFFFFFF DUP3 GT ISZERO PUSH2 0x3980 JUMPI PUSH1 0x0 DUP1 REVERT JUMPDEST POP PUSH1 0x20 SWAP1 DUP2 MUL ADD SWAP1 JUMP JUMPDEST PUSH1 0x0 PUSH8 0xFFFFFFFFFFFFFFFF DUP3 GT ISZERO PUSH2 0x39A1 JUMPI PUSH1 0x0 DUP1 REVERT JUMPDEST POP PUSH1 0x20 PUSH1 0x1F SWAP2 SWAP1 SWAP2 ADD PUSH1 0x1F NOT AND ADD SWAP1 JUMP JUMPDEST PUSH1 0x20 ADD SWAP1 JUMP JUMPDEST MLOAD SWAP1 JUMP JUMPDEST SWAP1 DUP2 MSTORE PUSH1 0x20 ADD SWAP1 JUMP JUMPDEST PUSH1 0x0 PUSH2 0x786 DUP3 PUSH2 0x3A26 JUMP JUMPDEST ISZERO ISZERO SWAP1 JUMP JUMPDEST PUSH1 0x1 PUSH1 0x1 PUSH1 0xF8 SHL SUB NOT AND SWAP1 JUMP JUMPDEST PUSH1 0x1 PUSH1 0x1 PUSH1 0xF0 SHL SUB NOT AND SWAP1 JUMP JUMPDEST SWAP1 JUMP JUMPDEST PUSH1 0x0 PUSH1 0x9 DUP3 LT PUSH2 0x39FE JUMPI INVALID JUMPDEST POP SWAP1 JUMP JUMPDEST PUSH1 0x0 PUSH1 0x2 DUP3 LT PUSH2 0x39FE JUMPI INVALID JUMPDEST PUSH1 0x0 PUSH1 0x3 DUP3 LT PUSH2 0x39FE JUMPI INVALID JUMPDEST PUSH1 0x1 PUSH1 0x1 PUSH1 0x80 SHL SUB AND SWAP1 JUMP JUMPDEST PUSH1 0x1 PUSH1 0x1 PUSH1 0xA0 SHL SUB AND SWAP1 JUMP JUMPDEST PUSH4 0xFFFFFFFF AND SWAP1 JUMP JUMPDEST PUSH8 0xFFFFFFFFFFFFFFFF AND SWAP1 JUMP JUMPDEST PUSH1 0x1 PUSH1 0x1 PUSH1 0x60 SHL SUB AND SWAP1 JUMP JUMPDEST PUSH1 0x0 PUSH2 0x786 DUP3 PUSH2 0x39C5 JUMP JUMPDEST PUSH1 0x0 PUSH1 0x9 DUP3 LT PUSH2 0x39FE JUMPI PUSH1 0x0 DUP1 REVERT JUMPDEST PUSH1 0x0 PUSH1 0x2 DUP3 LT PUSH2 0x39FE JUMPI PUSH1 0x0 DUP1 REVERT JUMPDEST PUSH1 0x0 PUSH2 0x786 DUP3 PUSH2 0x39F2 JUMP JUMPDEST PUSH1 0x0 PUSH2 0x786 DUP3 PUSH2 0x3A02 JUMP JUMPDEST PUSH1 0x0 PUSH2 0x786 DUP3 PUSH2 0x3A0E JUMP JUMPDEST DUP3 DUP2 DUP4 CALLDATACOPY POP PUSH1 0x0 SWAP2 ADD MSTORE JUMP JUMPDEST PUSH1 0x0 JUMPDEST DUP4 DUP2 LT ISZERO PUSH2 0x3AC5 JUMPI DUP2 DUP2 ADD MLOAD DUP4 DUP3 ADD MSTORE PUSH1 0x20 ADD PUSH2 0x3AAD JUMP JUMPDEST DUP4 DUP2 GT ISZERO PUSH2 0x2100 JUMPI POP POP PUSH1 0x0 SWAP2 ADD MSTORE JUMP JUMPDEST PUSH1 0x1F ADD PUSH1 0x1F NOT AND SWAP1 JUMP INVALID LOG2 PUSH6 0x627A7A723058 KECCAK256 DIV 0x29 0xbb SWAP2 PUSH13 0x14D387FB77DAEE0B3116F5EA58 SWAP12 BLOCKHASH 0x22 0x25 DUP3 DUP5 0xf CREATE LOG0 EXTCODESIZE 0xb7 RETURN PUSH28 0xC96C6578706572696D656E74616CF500370000000000000000000000 ",
  "sha1": "b516d021121bb2398f93c010a9e8799ed1e2e35e",
  "source": "/*\n\n    Copyright 2019 dYdX Trading Inc.\n\n    Licensed under the Apache License, Version 2.0 (the \"License\");\n    you may not use this file except in compliance with the License.\n    You may obtain a copy of the License at\n\n    http://www.apache.org/licenses/LICENSE-2.0\n\n    Unless required by applicable law or agreed to in writing, software\n    distributed under the License is distributed on an \"AS IS\" BASIS,\n    WITHOUT WARRANTIES OR CONDITIONS OF ANY KIND, either express or implied.\n    See the License for the specific language governing permissions and\n    limitations under the License.\n\n*/\n\npragma solidity 0.5.7;\npragma experimental ABIEncoderV2;\n\nimport { Admin } from \"./Admin.sol\";\nimport { Getters } from \"./Getters.sol\";\nimport { Operation } from \"./Operation.sol\";\nimport { Permission } from \"./Permission.sol\";\nimport { State } from \"./State.sol\";\nimport { Storage } from \"./lib/Storage.sol\";\n\n\n/**\n * @title SoloMargin\n * @author dYdX\n *\n * Main contract that inherits from other contracts\n */\ncontract SoloMargin is\n    State,\n    Admin,\n    Getters,\n    Operation,\n    Permission\n{\n    // ============ Constructor ============\n\n    constructor(\n        Storage.RiskParams memory riskParams,\n        Storage.RiskLimits memory riskLimits\n    )\n        public\n    {\n        g_state.riskParams = riskParams;\n        g_state.riskLimits = riskLimits;\n    }\n}\n",
  "sourcePath": "contracts/protocol/SoloMargin.sol",
  "type": "contract"
}